:020000040800F2
:10000000FF4F0020013300087731000879310008E4
:100010007B3100087D3100087F31000800000000BE
:100020000000000000000000000000008131000816
:100030008331000800000000853100088731000886
:1000400049330008493300084933000849330008A0
:100050004933000849330008493300084933000890
:100060004933000849330008493300084933000880
:100070004933000849330008493300084933000870
:100080004933000849330008493300084933000860
:100090004933000849330008493300084933000850
:1000A0004933000849330008493300084933000840
:1000B000F12C0008B53000085D2D00084933000818
:1000C0004933000849330008493300084933000820
:1000D00049330008E1320008493300084933000879
:1000E0004933000849330008493300080000000084
:1000F0000000000000000000000000000000000000
:0C01000000000000000000005FF808F1A3
:1001100010B5054C237833B9044B13B10448AFF341
:1001200000800123237010BD6C0900200000000036
:100130005453000808B5034B1BB103490348AFF300
:10014000008008BD00000000700900205453000822
:1001500081F0004102E000BF83F0004330B54FEA78
:1001600041044FEA430594EA050F08BF90EA020FE5
:100170001FBF54EA000C55EA020C7FEA645C7FEA78
:10018000655C00F0E2804FEA5454D4EB5555B8BF9B
:100190006D420CDD2C4480EA020281EA030382EA0C
:1001A000000083EA010180EA020281EA0303362D9E
:1001B00088BF30BD11F0004F4FEA01314FF4801C71
:1001C0004CEA113102D0404261EB410113F0004F83
:1001D0004FEA03334CEA133302D0524263EB43033A
:1001E00094EA050F00F0A780A4F10104D5F1200ED8
:1001F0000DDB02FA0EFC22FA05F2801841F1000133
:1002000003FA0EF2801843FA05F359410EE0A5F106
:1002100020050EF1200E012A03FA0EFC28BF4CF037
:10022000020C43FA05F3C01851EBE37101F00045ED
:1002300007D54FF0000EDCF1000C7EEB00006EEBFA
:100240000101B1F5801F1BD3B1F5001F0CD3490884
:100250005FEA30004FEA3C0C04F101044FEA4452DB
:1002600012F5800F80F09A80BCF1004F08BF5FEA62
:10027000500C50F1000041EB045141EA050130BD42
:100280005FEA4C0C404141EB0101013C28BFB1F554
:10029000801FE9D291F0000F04BF01460020B1FA9F
:1002A00081F308BF2033A3F10B03B3F120020CDA72
:1002B0000C3208DD02F1140CC2F10C0201FA0CF050
:1002C00021FA02F10CE002F11402D8BFC2F1200CB5
:1002D00001FA02F120FA0CFCDCBF41EA0C0190406B
:1002E000E41AA2BF01EB0451294330BD6FEA0404B4
:1002F0001F3C1CDA0C340EDC04F11404C4F120029F
:1003000020FA04F001FA02F340EA030021FA04F3B0
:1003100045EA030130BDC4F10C04C4F1200220FA07
:1003200002F001FA04F340EA0300294630BD21FA45
:1003300004F0294630BD94F0000F83F4801306BF0B
:1003400081F480110134013D4EE77FEA645C18BFFF
:100350007FEA655C29D094EA050F08BF90EA020F96
:1003600005D054EA000C04BF1946104630BD91EA8E
:10037000030F1EBF0021002030BD5FEA545C05D191
:100380004000494128BF41F0004130BD14F58004D0
:100390003CBF01F5801130BD01F0004545F0FE4144
:1003A00041F470014FF0000030BD7FEA645C1ABF79
:1003B000194610467FEA655C1CBF0B46024650EAB0
:1003C000013406BF52EA033591EA030F41F40021DC
:1003D00030BD00BF90F0000F04BF0021704730B562
:1003E0004FF4806404F132044FF000054FF0000137
:1003F00050E700BF90F0000F04BF0021704730B5F8
:100400004FF4806404F1320410F0004548BF4042CC
:100410004FF000013EE700BF42004FEAE2014FEA21
:1004200031014FEA02701FBF12F07F4393F07F4FFC
:1004300081F06051704732F07F4208BF704793F0FF
:100440007F4F04BF41F40021704730B54FF4607412
:1004500001F0004521F000411CE700BF50EA010215
:1004600008BF704730B54FF000050AE050EA0102BE
:1004700008BF704730B511F0004502D5404261EB2E
:1004800041014FF4806404F132045FEA915C3FF46F
:10049000D8AE4FF003025FEADC0C18BF03325FEA0C
:1004A000DC0C18BF033202EBDC02C2F1200300FABD
:1004B00003FC20FA02F001FA03FE40EA0E0021FAE2
:1004C00002F11444BDE600BF70B54FF0FF0C4CF4D0
:1004D000E06C1CEA11541DBF1CEA135594EA0C0F82
:1004E00095EA0C0F00F0DEF82C4481EA030621EABD
:1004F0004C5123EA4C5350EA013518BF52EA0335F8
:1005000041F4801143F4801338D0A0FB02CE4FF0A9
:100510000005E1FB02E506F00042E0FB03E54FF0D9
:100520000006E1FB03569CF0000F18BF4EF0010ED1
:10053000A4F1FF04B6F5007F64F5407404D25FEACD
:100540004E0E6D4146EB060642EAC62141EA555180
:100550004FEAC52040EA5E504FEACE2EB4F1FD0CC2
:1005600088BFBCF5E06F1ED8BEF1004F08BF5FEA40
:10057000500E50F1000041EB045170BD06F00046F2
:1005800046EA010140EA020081EA0301B4EB5C049F
:10059000C2BFD4EB0C0541EA045170BD41F4801197
:1005A0004FF0000E013C00F3AB8014F1360FDEBFBC
:1005B000002001F0004170BDC4F10004203C35DA98
:1005C0000C341BDC04F11404C4F1200500FA05F31B
:1005D00020FA04F001FA05F240EA020001F00042BC
:1005E00021F0004110EBD37021FA04F642EB060132
:1005F0005EEA430E08BF20EAD37070BDC4F10C045C
:10060000C4F1200500FA04F320FA05F001FA04F21F
:1006100040EA020001F0004110EBD37041F100010B
:100620005EEA430E08BF20EAD37070BDC4F1200516
:1006300000FA05F24EEA020E20FA04F301FA05F27E
:1006400043EA020321FA04F001F0004121FA04F226
:1006500020EA020000EBD3705EEA430E08BF20EAF6
:10066000D37070BD94F0000F0FD101F00046400030
:1006700041EB010111F4801F08BF013CF7D041EAB2
:10068000060195F0000F18BF704703F000465200B6
:1006900043EB030313F4801F08BF013DF7D043EA87
:1006A0000603704794EA0C0F0CEA135518BF95EA3D
:1006B0000C0F0CD050EA410618BF52EA4306D1D1C4
:1006C00081EA030101F000414FF0000070BD50EAE3
:1006D000410606BF1046194652EA430619D094EA6D
:1006E0000C0F02D150EA013613D195EA0C0F05D157
:1006F00052EA03361CBF104619460AD181EA0301AB
:1007000001F0004141F0FE4141F470014FF0000062
:1007100070BD41F0FE4141F4780170BD70B54FF0FD
:10072000FF0C4CF4E06C1CEA11541DBF1CEA13557D
:1007300094EA0C0F95EA0C0F00F0A7F8A4EB05045F
:1007400081EA030E52EA03354FEA013100F0888056
:100750004FEA03334FF0805545EA131343EA12631F
:100760004FEA022245EA111545EA10654FEA0026D4
:100770000EF000419D4208BF964244F1FD0404F58D
:10078000407402D25B084FEA3202B61A65EB0305E9
:100790005B084FEA32024FF480104FF4002CB6EBA6
:1007A000020E75EB030E22BFB61A754640EA0C0026
:1007B0005B084FEA3202B6EB020E75EB030E22BF66
:1007C000B61A754640EA5C005B084FEA3202B6EBA7
:1007D000020E75EB030E22BFB61A754640EA9C0066
:1007E0005B084FEA3202B6EB020E75EB030E22BF36
:1007F000B61A754640EADC0055EA060E18D04FEAF4
:10080000051545EA16754FEA06164FEAC30343EA93
:1008100052734FEAC2025FEA1C1CC0D111F4801F60
:100820000BD141EA00014FF000004FF0004CB6E759
:1008300011F4801F04BF01430020B4F1FD0C88BFF8
:10084000BCF5E06F3FF6AFAEB5EB030C04BFB6EB03
:10085000020C5FEA500C50F1000041EB045170BDF6
:100860000EF0004E4EEA113114EB5C04C2BFD4EB23
:100870000C0541EA045170BD41F480114FF0000EA7
:10088000013C90E645EA060E8DE60CEA135594EA23
:100890000C0F08BF95EA0C0F3FF43BAF94EA0C0F26
:1008A0000AD150EA01347FF434AF95EA0C0F7FF49B
:1008B00025AF104619462CE795EA0C0F06D152EAEF
:1008C00003353FF4FDAE1046194622E750EA4106D3
:1008D00018BF52EA43067FF4C5AE50EA41047FF4E4
:1008E0000DAF52EA43057FF4EBAE12E74FEA410247
:1008F000B2F1E04324BFB3F5001CDCF1FE5C0DD97E
:1009000001F0004C4FEAC0024CEA5070B2F1004FC7
:1009100040EB830008BF20F00100704711F0804FCA
:1009200021D113F13872BCBF01F00040704741F48F
:1009300080114FEA5252C2F11802C2F1200C10FA93
:100940000CF320FA02F018BF40F001004FEAC12377
:100950004FEAD32303FA0CFC40EA0C0023FA02F31B
:100960004FEA4303CCE77FEA625307D150EA0133F1
:100970001EBF4FF0FE4040F44000704701F00040C1
:1009800040F0FE4040F40000704700BF80F000409F
:1009900002E000BF81F0004142001FBF5FEA410357
:1009A00092EA030F7FEA226C7FEA236C6AD04FEA57
:1009B0001262D2EB1363C1BFD2184140484041409C
:1009C000B8BF5B42192B88BF704710F0004F40F44E
:1009D000000020F07F4018BF404211F0004F41F46A
:1009E000000121F07F4118BF494292EA030F3FD036
:1009F000A2F1010241FA03FC10EB0C00C3F1200349
:100A000001FA03F100F0004302D5494260EB4000D7
:100A1000B0F5000F13D3B0F1807F06D340084FEA42
:100A2000310102F10102FE2A51D2B1F1004F40EB37
:100A3000C25008BF20F0010040EA0300704749009F
:100A400040EB0000013A28BFB0F5000FEDD2B0FA3C
:100A500080FCACF1080CB2EB0C0200FA0CF0AABF5F
:100A600000EBC25052421843BCBFD04018437047FD
:100A700092F0000F81F4000106BF80F40000013203
:100A8000013BB5E74FEA41037FEA226C18BF7FEADA
:100A9000236C21D092EA030F04D092F0000F08BF1C
:100AA0000846704790EA010F1CBF0020704712F003
:100AB0007F4F04D1400028BF40F00040704712F142
:100AC00000723CBF00F50000704700F0004343F0A7
:100AD000FE4040F4000070477FEA226216BF0846DD
:100AE0007FEA23630146420206BF5FEA412390EAA0
:100AF000010F40F4800070474FF0000304E000BF96
:100B000010F0004348BF40425FEA000C08BF704746
:100B100043F0964301464FF000001CE050EA01020A
:100B200008BF70474FF000030AE000BF50EA01021F
:100B300008BF704711F0004302D5404261EB41010C
:100B40005FEA010C02BF84460146002043F0B64331
:100B500008BFA3F18053A3F50003BCFA8CF2083A56
:100B6000A3EBC25310DB01FA02FC634400FA02FC5F
:100B7000C2F12002BCF1004F20FA02F243EB020066
:100B800008BF20F00100704702F1200201FA02FCC8
:100B9000C2F1200250EA4C0021FA02F243EB0200BB
:100BA00008BF20EADC7070474FF0FF0C1CEAD052FF
:100BB0001EBF1CEAD15392EA0C0F93EA0C0F6FD0C0
:100BC0001A4480EA010C400218BF5FEA41211ED09E
:100BD0004FF0006343EA501043EA5111A0FB01318A
:100BE0000CF00040B1F5000F3EBF490041EAD3715F
:100BF0005B0040EA010062F17F02FD2A1DD8B3F1DB
:100C0000004F40EBC25008BF20F00100704790F049
:100C1000000F0CF0004C08BF49024CEA502040EA9B
:100C200051207F3AC2BFD2F1FF0340EAC250704761
:100C300040F400004FF00003013A5DDC12F1190F9F
:100C4000DCBF00F000407047C2F10002410021FA11
:100C500002F1C2F1200200FA02FC5FEA310040F129
:100C6000000053EA4C0308BF20EADC70704792F0A2
:100C7000000F00F0004C02BF400010F4000F013ADA
:100C8000F9D040EA0C0093F0000F01F0004C02BFD5
:100C9000490011F4000F013BF9D041EA0C018FE744
:100CA0000CEAD15392EA0C0F18BF93EA0C0F0AD04A
:100CB00030F0004C18BF31F0004CD8D180EA010070
:100CC00000F00040704790F0000F17BF90F0004F09
:100CD000084691F0000F91F0004F14D092EA0C0FEB
:100CE00001D142020FD193EA0C0F03D14B0218BF7E
:100CF000084608D180EA010000F0004040F0FE40C4
:100D000040F40000704740F0FE4040F4400070475F
:100D10004FF0FF0C1CEAD0521EBF1CEAD15392EADE
:100D20000C0F93EA0C0F69D0A2EB030280EA010CCE
:100D300049024FEA402037D04FF0805343EA111167
:100D400043EA10130CF000408B4238BF5B0042F1C5
:100D50007D024FF4000C8B4224BF5B1A40EA0C006A
:100D6000B3EB510F24BFA3EB510340EA5C00B3EB9C
:100D7000910F24BFA3EB910340EA9C00B3EBD10F8A
:100D800024BFA3EBD10340EADC001B0118BF5FEADC
:100D90001C1CE0D1FD2A3FF650AF8B4240EBC25005
:100DA00008BF20F0010070470CF0004C4CEA5020C6
:100DB0007F32C2BFD2F1FF0340EAC250704740F415
:100DC00000004FF00003013A37E792F0000F00F007
:100DD000004C02BF400010F4000F013AF9D040EA85
:100DE0000C0093F0000F01F0004C02BF490011F419
:100DF000000F013BF9D041EA0C0195E70CEAD15311
:100E000092EA0C0F08D142027FF47DAF93EA0C0FF7
:100E10007FF470AF084676E793EA0C0F04D14B02DB
:100E20003FF44CAF08466EE730F0004C18BF31F08D
:100E3000004CCAD130F000427FF45CAF31F0004387
:100E40007FF43CAF5FE700BF4FEA4002B2F1FE4FD4
:100E50000FD34FF09E03B3EB12620DD94FEA00237C
:100E600043F0004310F0004F23FA02F018BF404255
:100E700070474FF00000704712F1610F01D142023C
:100E800005D110F0004008BF6FF0004070474FF0F0
:100E9000000070474FF0FF3C06E000BF4FF0010C30
:100EA00002E000BF4FF0010C4DF804CD4FEA410CB9
:100EB0007FEA6C5C4FEA430C18BF7FEA6C5C1BD086
:100EC00001B050EA410C0CBF52EA430C91EA030F07
:100ED00002BF90EA020F0020704710F1000F91EA64
:100EE000030F58BF994208BF90422CBFD8176FEA32
:100EF000E37040F0010070474FEA410C7FEA6C5C00
:100F000002D150EA013C07D14FEA430C7FEA6C5C06
:100F1000D6D152EA033CD3D05DF8040B704700BF32
:100F20008446104662468C461946634600E000BF80
:100F300001B5FFF7B7FF002848BF10F1000F01BD52
:100F40004DF808EDFFF7F4FF0CBF012000205DF81D
:100F500008FB00BF4DF808EDFFF7EAFF34BF0120A2
:100F600000205DF808FB00BF4DF808EDFFF7E0FF3B
:100F700094BF012000205DF808FB00BF4DF808ED8C
:100F8000FFF7CEFF94BF012000205DF808FB00BFF3
:100F90004DF808EDFFF7C4FF34BF012000205DF8D5
:100FA00008FB00BF4FEA410C7FEA6C5C02D150EABB
:100FB000013C0AD14FEA430C7FEA6C5C02D152EA51
:100FC000033C02D14FF0000070474FF00100704722
:100FD00010B504460E4B18784FF47A73B3FBF0F358
:100FE0000C4A1068B0FBF3F000F0A8F868B90F2CB9
:100FF00001D901200AE0002221464FF0FF3000F025
:1010000057F8054B1C60002000E0012010BD00BF18
:1010100000000020080000200400002008B5074A56
:10102000136843F010031360032000F02FF80F2023
:10103000FFF7CEFF02F09EF8002008BD002002401E
:10104000034A1168034B1B780B441360704700BFC1
:101050008809002000000020014B1868704700BF7D
:101060008809002038B50446FFF7F6FF0546B4F1BD
:10107000FF3F02D0044B1B781C44FFF7EDFF401BE1
:10108000A042FAD338BD00BF00000020074AD36851
:1010900023F4E0631B041B0C000200F4E060034334
:1010A00043F0BF6343F40033D360704700ED00E0CA
:1010B00000B5194BDB68C3F30223C3F1070CBCF185
:1010C000040F28BF4FF0040C03F1040EBEF1060F0D
:1010D00018D9033B4FF0FF3E0EFA0CFC21EA0C013D
:1010E00099400EFA03F322EA0303194300280BDBAD
:1010F0000901C9B200F1604000F5614080F80013B9
:101100005DF804FB0023E5E700F00F000901C9B218
:10111000024B1954F4E700BF00ED00E014ED00E0CD
:10112000002807DB00F01F02400901239340024A18
:1011300042F82030704700BF00E100E00138B0F114
:10114000807F0BD24FF0E0235861054AF02182F8EE
:1011500023100020986107221A6170470120704710
:1011600000ED00E090F82130DBB2022B06D0042322
:101170008363002380F820300120704702681368E1
:1011800023F00E0313600268136823F00103136059
:10119000036CC16B012202FA03F34B6080F821203B
:1011A000002380F8203018467047000008B590F8FA
:1011B0002130DBB2022B03D004238363012008BD5E
:1011C0000268136823F00E0313600268136823F0AB
:1011D000010313600368194A934214D014329342F6
:1011E0001FD0143293421ED0143293421ED01432B8
:1011F00093421ED01432934202D04FF0807203E02B
:101200004FF4801200E001220D4B5A60012380F858
:101210002130002380F82030436B6BB198470020C9
:10122000CDE71022F0E74FF48072EDE74FF48052E3
:10123000EAE74FF48032E7E70020C0E70800024009
:101240000000024070B582B00024A446A6E0804DA4
:10125000AA4210D007D97F4DAA420CD005F580359F
:10126000AA4208D013E0A5F58015AA4203D005F5DF
:101270007025AA4207D18A68002A58D0012A51D085
:101280004361082403E0A5F58015AA42F3D0BEF11E
:10129000FF0F4ED80646BEF1FF0F4CD84FEA8C0226
:1012A00033680F25954023EA050304FA02F213433D
:1012B00033604B6813F0805F6ED0674B9A6942F0E1
:1012C00001029A619B6903F001030193019B4FEABC
:1012D0009C02951C614B53F825600CF003039D00A4
:1012E0000F23AB4026EA03065D4B984229D003F555
:1012F0008063984200F08E8003F58063984200F08E
:101300008B8003F58063984219D004231AE0CC68DF
:10131000BDE7CC680434BAE7CC680834B7E7CC68DA
:101320000C34B4E703610824B1E70024AFE70424D8
:10133000ADE7061DAFE7ACF108029200B0E703236A
:1013400000E00023AB4033430232444D45F82230E5
:101350004B6813F4803F61D0424A136843EA0E039E
:1013600013604B6813F4003F5ED03E4A536843EA73
:101370000E0353604B6813F4801F5BD0394A9368A7
:1013800043EA0E0393604B6813F4001F58D0354AAC
:10139000D36843EA0E03D3600CF1010C0A6832FAF9
:1013A0000CF353D0012303FA0CF302EA030E33EAE1
:1013B0000202F1D14A68122A3FF649AF122A3FF6DB
:1013C00066AF01A555F822F0771200080F13000848
:1013D000191300082B1300088F1200088F12000841
:1013E0008F1200088F1200088F1200088F12000859
:1013F0008F1200088F1200088F1200088F12000849
:101400008F1200088F1200088F12000813130008B3
:101410001F130008012395E7022393E7114A13687D
:1014200023EA0E0313609CE70E4A536823EA0E0377
:1014300053609FE70B4A936823EA0E039360A2E789
:10144000084AD36823EA0E03D360A5E702B070BD53
:101450000000221000003110001002400000014086
:10146000000801400004014000226DE0032500E077
:10147000002505FA04F4644542D0FF2B5BD80646EC
:10148000FF2B5AD8950034684FF00F0E0EFA05FE68
:1014900024EA0E044FF0040C0CFA05FC44EA0C0498
:1014A0003460C46824EA0303C360013231FA02F3F2
:1014B00048D0012393400B40F7D04FEA920E0EF133
:1014C0000205264C54F8255002F00304A4000F2610
:1014D000A64006EA050C224DA842C9D005F5806554
:1014E000A84209D005F58065A84207D005F58065BA
:1014F000A842BBD00425BCE70125BAE70225B8E71E
:10150000164F0EF1020457F8245025EA060647F854
:101510002460144C256825EA03052560656825EAE2
:1015200003056560A56825EA0305A560E56825EA69
:101530000305E560A1E7061DA2E7A2F1080C4FEA4A
:101540008C05A0E7F0BD013231FA02F305D001238A
:1015500093400B40F7D0F0B5AFE770470000014073
:1015600000080140000401408368194201D00120B5
:101570007047002070470AB101617047090401619A
:101580007047000082B0084B1B68084AA2FB032387
:101590005B0A00FB03F3019300BF019B5A1E0192FB
:1015A000002BF9D102B0704708000020D34D621023
:1015B000002800F0F18170B582B00446036813F092
:1015C000010F2CD0994B5B6803F00C03042B1DD04A
:1015D000964B5B6803F00C03082B12D06368B3F5DD
:1015E000803F41D0002B55D103F1804303F50433F4
:1015F0001A6822F480321A601A6822F480221A6073
:1016000037E08A4B5B6813F4803FE7D0874B1B6859
:1016100013F4003F03D06368002B00F0BF81236800
:1016200013F0020F75D0814B5B6813F00C0F5FD085
:101630007E4B5B6803F00C03082B54D02369002B0E
:1016400000F08A807A4B01221A60FFF705FD0546FB
:10165000764B1B6813F0020F75D1FFF7FDFC401BA2
:101660000228F5D903209EE1704A136843F48033C1
:101670001360636843B3FFF7EFFC05466B4B1B68D1
:1016800013F4003FCBD1FFF7E7FC401B6428F5D9EA
:10169000032088E1B3F5A02F09D0644B1A6822F427
:1016A00080321A601A6822F480221A60E1E703F19E
:1016B0008043A3F53C331A6842F480221A601A680A
:1016C00042F480321A60D4E7FFF7C6FC0546574B58
:1016D0001B6813F4003FA2D0FFF7BEFC401B642838
:1016E000F5D903205FE1514B5B6813F4803FA5D12E
:1016F0004E4B1B6813F0020F03D02369012B40F0FF
:101700004F814A4A136823F0F803616943EAC10331
:101710001360236813F0080F33D0A369002B5CD04B
:10172000434B0122C3F88024FFF796FC05463F4B4C
:101730005B6A13F0020F21D1FFF78EFC401B0228D9
:10174000F5D903202FE1394A136823F0F8036169C2
:1017500043EAC1031360DCE7354B00221A60FFF750
:101760007BFC0546314B1B6813F0020FD1D0FFF70D
:1017700073FC401B0228F5D9032014E10120FFF778
:1017800001FF236813F0040F00F09680274BDB69FC
:1017900013F0805F34D1254BDA6942F08052DA6170
:1017A000DB6903F080530193019B0125214B1B68EA
:1017B00013F4807F26D0E368012B3DD0002B53D15A
:1017C00003F1804303F504331A6A22F001021A621E
:1017D0001A6A22F004021A6233E0154B0022C3F8A1
:1017E0008024FFF739FC0546104B5B6A13F0020FAB
:1017F000C7D0FFF731FC401B0228F5D90320D2E007
:101800000025D3E70B4A136843F480731360FFF796
:1018100023FC0646074B1B6813F4807FCBD1FFF7F0
:101820001BFC801B6428F5D90320BCE0001002409B
:1018300000004242007000405F4A136A43F0010317
:101840001362E36833B3FFF707FC06465A4B1B6A83
:1018500013F0020F2FD1FFF7FFFB801B41F28833FB
:101860009842F3D903209EE0052B09D0524B1A6A07
:1018700022F001021A621A6A22F004021A62E0E7F8
:101880004D4B1A6A42F004021A621A6A42F00102CF
:101890001A62D6E7FFF7E0FB0646474B1B6A13F0D8
:1018A000020F08D0FFF7D8FB801B41F28833984223
:1018B000F3D9032077E0E5B9E369002B72D03E4A03
:1018C000526802F00C02082A56D0022B17D03B4B6C
:1018D00000221A66FFF7C0FB0446374B1B6813F063
:1018E000007F47D0FFF7B8FB001B0228F5D9032083
:1018F00059E0314AD36923F08053D361DCE72F4BA1
:1019000000221A66FFF7A8FB05462B4B1B6813F055
:10191000007F06D0FFF7A0FB401B0228F5D903206B
:1019200041E0236AB3F5803F1AD023494B6823F482
:101930007413226A606A024313434B601F4B0122F7
:101940001A66FFF789FB04461B4B1B6813F0007FE8
:101950000ED1FFF781FB001B0228F5D9032022E0FE
:10196000154A536823F40033A1680B435360DCE746
:10197000002018E0002016E0012B16D00E4B5B680B
:1019800003F48031226A914211D103F47013626A28
:1019900093420ED1002006E001207047012002E0B2
:1019A000012000E0002002B070BD0120FBE7012013
:1019B000F9E70120F7E700BF0010024000004242B3
:1019C00086B0174B0FCB0DF1180C0CE90F0040F24D
:1019D0000123ADF80430134B5B6803F00C02082AB6
:1019E00002D0114806B07047C3F3834218326A44EC
:1019F00012F8100C13F4803F0DD00A4B5B68C3F350
:101A0000404318336B4413F8143C074A02FB00F0C0
:101A1000B0FBF3F0E6E7054B03FB00F0E2E700BFA5
:101A2000705300080010024000127A0000093D00C7
:101A3000002800F0A08070B50D460446524B1B688C
:101A400003F007038B420BD24F4A136823F00703BE
:101A50000B431360136803F007038B4240F08D8043
:101A6000236813F0020F17D013F0040F04D0474A75
:101A7000536843F4E0635360236813F0080F04D005
:101A8000424A536843F460535360404A536823F01A
:101A9000F003A1680B435360236813F0010F31D0AA
:101AA0006368012B20D0022B25D0384A126812F02F
:101AB000020F64D035494A6822F0030213434B6099
:101AC000FFF7CAFA0646314B5B6803F00C03626805
:101AD000B3EB820F16D0FFF7BFFA801B41F28833B9
:101AE0009842F0D9032045E0284A126812F4003FDA
:101AF000E0D101203EE0254A126812F0007FD9D1E2
:101B0000012037E0204B1B6803F00703AB420AD9E2
:101B10001D4A136823F007032B431360136803F077
:101B20000703AB422DD1236813F0040F06D0174AE8
:101B3000536823F4E063E1680B435360236813F0B8
:101B4000080F07D0114A536823F46053216943EA10
:101B5000C1035360FFF734FF0C4B5B68C3F30313FF
:101B60000B4AD35CD8400B4B18600B4B1868FFF73F
:101B70002FFA002070BD012070470120FAE70120F4
:101B8000F8E70120F6E700BF002002400010024005
:101B9000845300080800002004000020014B18684E
:101BA000704700BF0800002008B5FFF7F7FF044B9F
:101BB0005B68C3F30223034AD35CD84008BD00BF6F
:101BC000001002409453000808B5FFF7E7FF044BEC
:101BD0005B68C3F3C223034AD35CD84008BD00BF8F
:101BE000001002409453000870B4036A23F001030C
:101BF0000362036A4668826922F073020C6844EA51
:101C0000020523F002028B6813430D4CA04209D059
:101C10000B4CA0420DD0466085614A684263036266
:101C200070BC704723F00803CA68134323F0040311
:101C3000EEE726F440764A6932438E691643EAE7B6
:101C4000002C014030B4036A23F480730362036AFA
:101C50004568C26922F073020C68224323F40073C2
:101C60008C6843EA04230F4CA04209D00D4CA042DB
:101C70000ED04560C2614A68C263036230BC7047DF
:101C800023F40063CC6843EA042323F48063EDE784
:101C900025F440554C6945EA04158C6945EA04155C
:101CA000E7E700BF002C014030B4036A23F48053FF
:101CB0000362036A4468C26922F4E6420D6842EA9C
:101CC000052223F400538D6843EA0533074DA842EB
:101CD00006D04460C2614A680264036230BC704747
:101CE00024F480444D6944EA8514F2E7002C014055
:101CF00090F83D30DBB2012B27D1022380F83D3034
:101D00000268D36843F00103D3600368114A934229
:101D100010D0B3F1804F0DD0A2F59432934209D088
:101D200002F58062934205D01A6842F001021A60FF
:101D3000002070479A6802F00702062A07D01A6846
:101D400042F001021A600020704701207047002015
:101D5000704700BF002C01407047704770477047C4
:101D600010B5044603681A6912F0020F11D0DA6840
:101D700012F0020F0DD06FF002021A6101230377F7
:101D800003689B6913F0030F70D0FFF7E6FF002391
:101D9000237723681A6912F0040F12D0DA6812F060
:101DA000040F0ED06FF004021A6102232377236818
:101DB0009B6913F4407F5FD02046FFF7CEFF0023DE
:101DC000237723681A6912F0080F12D0DA6812F02C
:101DD000080F0ED06FF008021A61042323772368DE
:101DE000DB6913F0030F4ED02046FFF7B6FF002348
:101DF000237723681A6912F0100F12D0DA6812F0F4
:101E0000100F0ED06FF010021A6108232377236899
:101E1000DB6913F4407F3DD02046FFF79EFF00238F
:101E2000237723681A6912F0010F03D0DA6812F0E1
:101E3000010F36D123681A6912F0800F03D0DA68D7
:101E400012F0800F34D123681A6912F0400F03D0CA
:101E5000DA6812F0400F32D123681A6912F0200FAD
:101E600003D0DA6812F0200F30D110BDFFF774FFF5
:101E70002046FFF773FF8AE72046FFF76DFF2046F5
:101E8000FFF76CFF9BE72046FFF766FF2046FFF752
:101E900065FFACE72046FFF75FFF2046FFF75EFFD8
:101EA000BDE76FF001021A61204601F0F5F8C1E7C5
:101EB0006FF080021A61204600F071F9C3E76FF0FD
:101EC00040021A612046FFF74AFFC5E76FF0200283
:101ED0001A61204600F062F9C7E7000003681B4A58
:101EE00090420AD0B0F1804F07D0A2F594329042D0
:101EF00003D002F58062904203D123F070034A6858
:101F00001343124A90420AD0B0F1804F07D0A2F595
:101F10009432904203D002F58062904203D123F4C0
:101F20004073CA68134323F080034A691343036074
:101F30008B68C3620B688362044B984202D0012312
:101F4000436170470B690363F9E700BF002C014050
:101F500040B310B5044690F83D30F3B1022384F845
:101F60003D30214651F8040BFFF7B8FF012384F8F8
:101F7000463084F83E3084F83F3084F8403084F8AE
:101F8000413084F8423084F8433084F8443084F897
:101F9000453084F83D30002010BD80F83C3000F022
:101FA00059FFDBE70120704730B4036A23F01003C8
:101FB0000362036A4468826922F4E6420D6842EAD9
:101FC000052223F020038D6843EA05130E4DA84235
:101FD00009D00D4DA8420ED0446082614A688263E8
:101FE000036230BC704723F08003CD6843EA0513D9
:101FF00023F04003EDE724F440644D6944EA85048E
:102000008D6944EA8504E7E7002C014090F83C30F4
:10201000012B22D010B50446012380F83C300C2A55
:102020000BD8DFE802F0070A0A0A0E0A0A0A120AA7
:102030000A0A16000068FFF7D7FD002084F83C006C
:1020400010BD0068FFF7B0FFF7E70068FFF7FAFD83
:10205000F3E70068FFF728FEEFE70220704701F082
:102060001F01012303FA01FC036A23EA0C03036244
:10207000036A02FA01F10B430362704710B504468C
:102080000846B1B994F83E30DBB2013B18BF0123DA
:10209000002B7CD130BB022384F83E300C2836D88C
:1020A000DFE800F0303535355335353559353535C0
:1020B0005F00042908D008290DD094F84130DBB224
:1020C000013B18BF0123E3E794F83F30DBB2013B4B
:1020D00018BF0123DCE794F84030DBB2013B18BFA6
:1020E0000123D5E7042805D0082807D0022384F867
:1020F0004130D3E7022384F83F30CFE7022384F84E
:102100004030CBE72268D36843F00203D36001225A
:1021100001462068FFF7A3FF23681F4A934226D099
:1021200023681D4A934227D0B3F1804F24D0A2F5F3
:102130009432934220D002F5806293421CD01A68F8
:1021400042F001021A60002022E02268D36843F0C6
:102150000403D360DBE72268D36843F00803D3604D
:10216000D5E72268D36843F01003D360CFE75A6CF9
:1021700042F400425A64D3E79A6802F00702062A42
:1021800007D01A6842F001021A60002000E0012026
:1021900010BD0020FCE700BF002C014070477047D5
:1021A0000268D36823F49073D3600268536923F004
:1021B00001035361036B012B05D0202380F83E30CF
:1021C0000023036370470268D36823F01003D360D1
:1021D000F3E790F83D30DBB2212B01D002207047AD
:1021E0008368B3F5805F17D0036A5A1C02621A78BD
:1021F00003685A60C38C9BB2013B9BB2C3844BB94A
:102200000268D36823F08003D3600268D36843F088
:102210004003D360002070470369002BE4D1036AB8
:102220001B880268C3F308035360036A0233036226
:10223000E0E7000010B504460268136923F4405338
:10224000C1680B43136183680269134342691A43EF
:102250000168CB6823F4B05323F00C031343CB6025
:102260000268536923F4407381690B435361026828
:10227000134B9A4220D0FFF797FC024602EB8202F2
:1022800002EB820263689B00B2FBF3F20D48A0FBF5
:1022900002314909642303FB11231B013233A0FBE4
:1022A00003235B0903F0F00202EB011203F00F03BA
:1022B000216813448B6010BDFFF786FC0246DDE702
:1022C000003801401F85EB512DE9F84305460F46C4
:1022D00016469946DDF820802C68246837EA040306
:1022E0000CBF4FF0010C4FF0000CB4451FD1B8F1FA
:1022F000FF3FF1D0B8F1000F05D0FEF7ADFEA0EB27
:1023000009004045E8D92A68D36823F4D073D36024
:102310002A68536923F001035361202385F83D3077
:1023200085F83E30002385F83C30032000E0002093
:10233000BDE8F88358B310B5044690F83D300BB3B0
:10234000242384F83D302268D36823F40053D360FB
:102350002046FFF76FFF2268136923F4904313614F
:102360002268536923F02A0353612268D36843F437
:102370000053D36000202064202384F83D3084F88B
:102380003E3010BD80F83C3000F048FFD8E7012017
:1023900070477047A8B110B50446242380F83D303B
:1023A0000268D36823F40053D360FFF7F2FF0020E4
:1023B000206484F83D0084F83E00206384F83C00EB
:1023C00010BD012070472DE9F04182B01E4690F803
:1023D0003D30DBB2202B54D104460D4690460029F7
:1023E00053D0002A53D090F83C30012B51D0012318
:1023F00080F83C3000230364212380F83D30FEF751
:102400002BFE0746A4F82480A4F82680A368B3F521
:10241000805F05D04FF00008002384F83C3012E0C4
:10242000236913B14FF00008F6E7A8460025F3E74B
:1024300038F8023B2268C3F308035360E28C92B27F
:10244000013A92B2E284E38C9BB273B100963B46B0
:10245000002280212046FFF737FFE0B9002DE7D0AA
:1024600015F8012B23685A60E8E700963B460022E6
:1024700040212046FFF728FF78B9202384F83D301B
:1024800000E0022002B0BDE8F0810120FAE701205F
:10249000F8E70220F6E70320F4E70320F2E708B5A7
:1024A0000168CA6822F04002CA60202280F83D20FC
:1024B00000F0F8FE002008BD704708B5406A002310
:1024C000C385C384FFF7F8FF08BD704790F83E301E
:1024D000DBB2222B60D18368B3F5805F46D0826A7D
:1024E000B3F5805F04D0002B4DD10369002B4AD196
:1024F00003685B681370836A01338362C38D9BB288
:10250000013B9BB2C385002B48D100B583B0026864
:10251000D36823F02003D3600268D36823F4807368
:10252000D3600268536923F001035361202380F8CC
:102530003E30036B012B2CD1002303630268D36868
:1025400023F01003D36003681A6812F0100F06D04E
:10255000002201921A6801925B680193019B818DB0
:10256000FFF7B3FF002003B05DF804FB0269002A07
:10257000B5D1826A03685B68C3F308031380836A7A
:1025800002338362BAE703685B6803F07F0313706A
:10259000B1E700F089FEE5E70220704700207047B0
:1025A00030B583B0044602681368D068516913F0EF
:1025B0000F0505D113F0200F02D010F0200F19D114
:1025C0002DB111F0010119D110F4907F16D1216BBA
:1025D000012975D013F0800F03D010F0800F40F068
:1025E000D78013F0400F03D010F0400F40F0D4809C
:1025F00003B030BD2046FFF769FFF9E713F0010F84
:1026000006D010F4807F03D0226C42F001022264D5
:1026100013F0040F04D019B1226C42F002022264BC
:1026200013F0020F04D019B1226C42F004022264AC
:1026300013F0080F07D010F0200F00D119B1226C51
:1026400042F008022264226C002AD1D013F0200F3D
:1026500002D010F0200F21D123685B6903F0400302
:10266000226C12F0080F00D123B32046FFF798FD2B
:1026700023685A6912F0400F18D05A6922F04002BC
:102680005A61A36B73B1464A5A63A06BFEF78EFD85
:102690000028ADD0A06B436B9847A9E72046FFF711
:1026A00015FFD9E72046FFF707FFA1E72046FFF710
:1026B00003FF9DE72046FFF7FFFE0023236497E713
:1026C00013F0100F86D010F0100F83D00023019369
:1026D0001368019353680193019B536913F0400FF2
:1026E00032D0A16B0B685B689BB2002B80D0A08DB1
:1026F00098427FF67DAFE3858B69202B08D1A18DB1
:10270000E38D9BB2C91A89B22046FFF7DEFE6FE760
:10271000D36823F48073D3602268536923F00103E4
:1027200053612268536923F040035361202384F8E6
:102730003E30002323632268D36823F01003D36064
:10274000A06BFEF70FFDDAE7A18DE38D9BB2C91AEE
:1027500089B2E38D9BB2002B3FF44AAF00293FF4CE
:1027600047AFD36823F49073D3602268536923F092
:1027700001035361202384F83E3000232363226841
:10278000D36823F01003D3602046FFF79EFE2FE7A7
:102790002046FFF71EFD2BE72046FFF780FE27E7C8
:1027A000BB240008034681628285C285002018642C
:1027B000222283F83E2083F83C001968CA6842F45C
:1027C0008072CA6019684A6942F001024A611A6857
:1027D000D36843F02003D360704708B590F83E30CB
:1027E000DBB2202B0DD171B17AB190F83C30012BC6
:1027F0000DD0012380F83C3000230363FFF7D2FFA4
:1028000000E0022008BD0120FCE70120FAE70220D9
:10281000F8E770472DE9F8439446BDF92080BDF9EB
:102820002470BDF92860BDF92C50BDF930E0244C6E
:10283000AA22227062700222A2700022E270C0F30B
:10284000072984F804906071C1F30720A071E17139
:10285000CCF30721217284F809C0C3F30721A172C8
:10286000E372C8F30723237384F80D80C7F30723AB
:10287000A373E773C6F3072323746674C5F30723B2
:10288000A374E574CEF30723237584F815E01223AF
:10289000E370134605E00A49C95C0A44D2B2013329
:1028A000DBB2152BF7D9064B9A754FF6FF7317223B
:1028B00003490448FFF787FD0028F6D1BDE8F883F7
:1028C0008C090020B40A00202DE9F0418846174603
:1028D0001E46274DAA232B706B700123AB7000247A
:1028E000EC702449FEF760F9FEF7AEFAC0F3072357
:1028F0002B7168711F494046FEF756F9FEF7A4FA9E
:10290000C0F30723AB71E8711A493846FEF74CF95A
:10291000FEF79AFAC0F307232B726872C6F30763B7
:10292000AB72C6F30743EB72C6F307232B736E73C8
:102930009DF81830AB739DF81C30EB730C23EB70D3
:102940002346224605E00A49C95C0A44D2B2013353
:10295000DBB20F2BF7D9064B1A744FF6FF73112217
:1029600003490548FFF72FFD0028F6D1BDE8F081A7
:102970008C0900200000C842B40A0020FEE70000D5
:1029800000B587B00E4B9A6942F004029A619B69C8
:1029900003F004030193019B002302930393049328
:1029A00005930223029303930123049303230593C6
:1029B00002A90448FEF746FC07B05DF804FB00BF1F
:1029C000001002400008014000B587B00F4B9A6923
:1029D00042F008029A619B6903F008030193019B8E
:1029E000002302930393049305934FF4007302931F
:1029F00002230393012304930323059302A90448AC
:102A0000FEF720FC07B05DF804FB00BF0010024099
:102A1000000C01402DE9F04F8DB000260896099674
:102A20000A960B965E4CA36943F00803A361A36961
:102A300003F008030093009B4FF4007308930125F3
:102A40000A9503270B97DFF85C8108A94046FEF73B
:102A5000F9FBA36943F01003A361A36903F010031A
:102A60000193019B4023089309960A950B9708A9A7
:102A70004D48FEF7E7FBA36943F00803A361A36990
:102A800003F008030293029B089509960A950B9799
:102A900008A94046FEF7D6FBA36943F00803A361EB
:102AA000A36903F008030393039B4FF400430893C7
:102AB00009960A950B9708A94046FEF7C3FBA36940
:102AC00043F00403A361A36903F004030493049B8C
:102AD0004FF0020ACDF820A009960A950B97DFF86F
:102AE000CC9008A94846FEF7ADFBA36943F0040368
:102AF000A361A36903F004030593059B20230893B6
:102B000009960A950B970DEB03014846FEF79AFBD1
:102B1000A36943F00403A361A36903F004030693CC
:102B2000069B4FF0100BCDF820B009960A950B9735
:102B300008A94846FEF786FBA36943F00803A36192
:102B4000A36903F008030793079BCDF820A009961B
:102B50000A950B9708A94046FEF774FB2A464021C8
:102B60001148FEF708FD2A4629464046FEF703FDB8
:102B70002A464FF400414046FEF7FDFC2A4620213C
:102B80004846FEF7F8FC2A4659464846FEF7F3FC4D
:102B9000324651464046FEF7EEFC0DB0BDE8F08FE0
:102BA00000100240000C01400010014000080140EC
:102BB00000B58FB0244BDA6942F00102DA61DB69BB
:102BC00003F001030093009B002211461C20FEF736
:102BD0006FFA1C20FEF7A4FA00230A930B930C93C0
:102BE0000D93089309930193029303930493059320
:102BF0000693079315484FF08042026040F2CF22BF
:102C0000426083604FF6FF72C26003618361FFF729
:102C10009FF9A8B9302301930023029303930593EE
:102C200004220DEB02010948FFF7F0F950B9FFF754
:102C3000A7FE04210548FFF721FA0FB05DF804FB59
:102C4000FFF79CFEFFF79AFE00100240C00900202B
:102C500000B58FB0234BDA6942F00402DA61DB6918
:102C600003F004030093009B002211461E20FEF790
:102C70001FFA1E20FEF754FA00230A930B930C93BD
:102C80000D9308930993019302930393049305937F
:102C9000069307931448154A026040F2CF2242601F
:102CA00083604FF6FF72C26003618361FFF750F9E2
:102CB000A0B93023019300230293039305930C22C0
:102CC00001A90948FFF7A2F950B9FFF77DFE0C21D1
:102CD0000548FFF7D3F90FB05DF804FBFFF74EFE90
:102CE000FFF74CFE00100240080A002000080040D8
:102CF000164B1B889BB203EB830399000B4601B96B
:102D00000123134AB2FBF3F3124A11680A6912F065
:102D1000040F19D082B00022ADF806204A6A92B2A0
:102D2000ADF80620BDF8062092B21A440A4B83FB88
:102D300002031344DB13C3EB0343D31A8B636FF01B
:102D400004030B6102B07047704700BF500A0020B7
:102D5000A0860100C009002001800080164B1B885E
:102D60009BB203EB830399000B4601B90123134A7D
:102D7000B2FBF3F3124A11680A6912F0100F19D06E
:102D800082B00022ADF806204A6A92B2ADF8062061
:102D9000BDF8062092B21A440A4B83FB0203134487
:102DA000DB13C3EB0343D31A0B646FF010030B6107
:102DB00002B07047704700BF520A0020A086010091
:102DC000080A00200180008008B5FFF723FEFFF706
:102DD000EFFEFFF73DFF08BD80B2014B1880704742
:102DE000500A002080B2014B18807047520A002020
:102DF00000B591B000210B910C910D910E910F91A6
:102E0000282201A800F0DAFE012201924FF480335B
:102E100002930592102206920222089209934FF41F
:102E2000E0130A9301A8FEF7C3FB00B1FEE70F23EE
:102E30000B9302210C9100230D930F934FF48063A9
:102E40000E930BA8FEF7F4FD00B1FEE711B05DF89C
:102E500004FB000002680E4B9A4200D0704700B598
:102E600083B003F50333DA6942F00202DA61DB6909
:102E700003F002030193019B002211461D20FEF77F
:102E800017F91D20FEF74CF903B05DF804FB00BFF5
:102E90000004004010B50A4C0A4B236041F61F4362
:102EA00063600023A3606422E26023618023A36146
:102EB0002046FFF74DF82046FEF71AFF10BD00BF71
:102EC000540A0020000400402DE9F04786B0FEF7C8
:102ED000A5F8FFF78DFF00F07BF9634800F0F2F8EA
:102EE000FFF7D8FFFFF770FF00F05FFB4FF000081F
:102EF000A4E000F0F9FC5D4DEC682869FDF78CFA60
:102F000006460F462046FDF787FA32463B4601F05B
:102F1000D5FE0022564BFDF7D7FA51A3D3E9002383
:102F2000FDF7FCFBFDF7E2FC524C6060D5F8089021
:102F3000E8680146FDF738FE064628690146FDF7B8
:102F400033FE01463046FDF727FDFDF765FA01F037
:102F5000B7FE06460F464846FDF75EFA32463B4648
:102F600001F0ACFE0022424B01F100473946FDF76B
:102F7000ABFA3BA3D3E90023FDF7D0FBFDF7B6FC8A
:102F8000264646F8040B3C4B1A683C4B1868101A4E
:102F90003B4908601A6000EB80004000FDF71AFA18
:102FA0000022384BFDF7BAFBFDF7A0FC034636487C
:102FB0000360DFF8D8A0CAF80030DFF8D490C9F871
:102FC0000030344F3B4653F80C2F00933346616872
:102FD00000F004FD3B4653F8102F00932346216870
:102FE000504600F0FBFC3B4653F8142F009304F1CD
:102FF0000803A168484600F0F1FC002605960496F7
:1030000003960296B7F904300193B7F902300093A2
:10301000B7F90030B5F90420B5F90210B5F9000090
:10302000FFF7F8FB6068A26802F1004200F100407F
:103030000196009633462168FFF746FCC820FEF74C
:1030400011F84046FFF7C8FE4046FFF7CBFE08F1F7
:103050000108B8F5167FFFF44CAF4FF4167848E737
:103060001F85EB51B81E0940B40A0020180B002040
:10307000008066402C0B00209C0A0020A40A00203F
:10308000A00A002000408F406C0000200C000020AF
:10309000CC000020380B0020044B834200D0704746
:1030A000034A136801331360F9E700BF540A002094
:1030B0009C0A002008B50248FEF752FE08BD00BF7A
:1030C000540A002008B5054B1860054B186800230A
:1030D00002221946806800F0C3FD08BDA80A00203E
:1030E0002C01002038B50D461446013801280BD8B4
:1030F0004FF6FF73A2B2294605480068FFF763F94F
:103100000028F5D1204638BD4FF0FF34FAE700BF64
:10311000A80A0020022801D80020704708B500F056
:1031200023FD092303604FF0FF3008BD08B500F010
:103130001BFD092303604FF0FF3008BD08B518B927
:10314000002343B9012008BD00F00EFD09230360F0
:103150004FF0FF30F7E70520F5E708B5022804D85F
:103160004FF400534B60002008BD00F0FDFC092324
:103170000360F8E770477047FEE7FEE7FEE7FEE70B
:1031800070477047704708B5FDF75AFF08BD00004B
:1031900008B503460B4A126842B10A4A1068034454
:1031A0006A46934206D8074A136008BD054A064995
:1031B0001160F2E700F0D8FC0C2303604FF0FF3001
:1031C000F3E700BFAC0A0020980B0020FEE70000E8
:1031D00008B50F480F4B03604FF4E1334360002301
:1031E0008360C360036183610C234361FFF7D2F8FE
:1031F00048B90748FFF79EF838B901220649044844
:10320000FFF7EBFA08BDFFF7E1FFFFF7DFFF00BFB5
:10321000B40A002000380140B00A002030B589B05F
:103220001E4B9A6942F004029A619A6902F0040204
:103230000192019A9A6942F004029A619A6902F035
:1032400004020292029A9A6942F480429A619B694E
:1032500003F480430393039B4FF40073049302230E
:10326000059301230693032307930D4D04A92846D4
:10327000FDF7E8FF4FF4806304930024059404A94C
:103280002846FDF7DFFF224621462520FDF710FFE7
:103290002520FDF745FF09B030BD00BF00100240FA
:1032A00000080140704700000268094B9A4200D0B4
:1032B0007047084A1378084908780849C854013308
:1032C000DBB213701F2BF3D9134600221A70EFE7FD
:1032D00000380140B10A0020B00A0020F80A00209E
:1032E00010B5054C2046FFF75BF901220349204643
:1032F000FFF773FA10BD00BFB40A0020B00A002027
:103300000C480D490D4A002302E0D458C450043340
:10331000C4188C42F9D30A4A0A4C002301E0136016
:103320000432A242FBD3FFF774FA00F023FCFFF74C
:10333000CBFD7047000000206C0900201C540008E1
:103340006C090020980B0020FEE7F8B506460F46F2
:1033500014461D4600F0C6F9700000F0FE0000F0B3
:1033600063FA00F0FFF978B9384600F05DFA00F032
:10337000F9F900F0B7F9700040F00100C0B200F0B8
:1033800053FA00F0EFF90AE000F0CCF9012011E067
:10339000002000F07BFA2870013CE4B2013534B122
:1033A000012CF5D0012000F071FA2870F4E700F04C
:1033B000B9F92046F8BD000000B583B001AB022288
:1033C00041216820FFF7C1FF9DF804301B021BB2AA
:1033D0009DF805001843FDF70DF800220C4BFDF792
:1033E0009DF909A3D3E90023FCF7B8FEFDF77EFAA7
:1033F0000849FDF7D9FBFDF727FD00B203B05DF8E2
:1034000004FB00BFAFF30080A4703D0AD7434240E5
:10341000004075400000C84270B582B006460D46B7
:1034200014466B46062243216820FFF78EFFA0B9A1
:103430009DF800209DF8013043EA022333809DF877
:1034400002209DF8033043EA02232B809DF80420DC
:103450009DF8053043EA0223238002B070BD70B5A9
:1034600082B006460D4614466B4606223B21682074
:10347000FFF76BFFA0B99DF800209DF8013043EAEB
:10348000022333809DF802209DF8033043EA022393
:103490002B809DF804209DF8053043EA0223238009
:1034A00002B070BD38B505460C4600F01BF9D020BF
:1034B00000F0BAF900F056F978B9284600F0B4F9EE
:1034C00000F050F9204600F0AFF900F04BF9044647
:1034D00038B900F027F9204638BD00F023F901245F
:1034E000F9E700F01FF90124F5E708B5C10001F084
:1034F000F8011B20FFF7D6FF08BD08B5C10001F099
:10350000F8011C20FFF7CEFF08BD08B5BB2809D87D
:1035100061280CD829280CD813280CD809280CD9D4
:10352000052100E001211A20FFF7BCFF08BD0221A0
:10353000F9E70321F7E70421F5E70621F3E710B5E2
:10354000B0F57A7F04D80446032803D8042401E0A8
:103550004FF47A744FF47A7191FBF4F1C9B20139E6
:10356000C9B21920FFF79EFF6008FFF7CEFF10BD1C
:1035700010B5044600F0B6F8D02000F055F900F080
:10358000F1F8204600F050F900F0ECF800F0AAF84D
:10359000D12000F049F900F0E5F8002000F076F9BC
:1035A000044600F0BFF8204610BD08B500F038F81A
:1035B00080216B20FFF776FF6420FDF753FD00218B
:1035C0006B20FFF76FFF0320FFF78FFF0020FFF74F
:1035D00094FF3220FFF7B3FF00213820FFF762FF8E
:1035E00000216A20FFF75EFF00212320FFF75AFF2A
:1035F00080213720FFF756FF7520FFF7B9FF6828B5
:1036000001D0012008BD01216B20FFF74BFF0021F5
:103610006C20FFF747FF3220FFF791FF0020F1E712
:10362000F0B587B0154CA36943F00803A361A36903
:1036300003F008030093009B0125039504950327DD
:1036400005974FF4806302930D4E02A93046FDF7B3
:10365000F9FDA36943F00803A361A36903F008031C
:103660000193019B0395049505974FF40063029322
:1036700002A93046FDF7E6FD07B0F0BD001002409C
:10368000000C014010B584B0094C4FF40061204695
:10369000FDF7EAFE012301930293032303934FF402
:1036A0000063009369462046FDF7CCFD04B010BDD1
:1036B000000C014010B584B0094C4FF40061204665
:1036C000FDF7D2FE002301930293032303934FF4EB
:1036D0000063009369462046FDF7B4FD04B010BDB9
:1036E000000C014010B5FFF7CDFF0D4C01224FF447
:1036F00000612046FDF73FFF01224FF48061204624
:10370000FDF739FF00224FF400612046FDF733FF3B
:1037100000224FF480612046FDF72DFF10BD00BF51
:10372000000C014010B5FFF7ADFF0D4C00224FF427
:1037300080612046FDF71FFF00224FF40061204604
:10374000FDF719FF01224FF480612046FDF713FFBA
:1037500001224FF400612046FDF70DFF10BD00BFB0
:10376000000C014010B5FFF7A5FF0E4C01224FF4ED
:1037700000612046FDF7FFFE01224FF480612046E4
:10378000FDF7F9FE4FF400610648FDF7EDFE002855
:10379000F8D100224FF480610248FDF7ECFE0020D2
:1037A00010BD00BF000C014010B50E4C00224FF4BC
:1037B00080612046FDF7DFFEFFF764FF00224FF433
:1037C00000612046FDF7D7FE01224FF480612046BC
:1037D000FDF7D1FE00224FF480612046FDF7CBFEBD
:1037E00010BD00BF000C014010B50E4C00224FF47C
:1037F00080612046FDF7BFFEFFF744FF01224FF432
:1038000000612046FDF7B7FE01224FF4806120469B
:10381000FDF7B1FE00224FF480612046FDF7ABFEBC
:1038200010BD00BF000C014070B50446FFF72AFF31
:1038300000224FF480611448FDF79DFE002516E03C
:1038400000224FF400611048FDF795FE6400E4B2D9
:103850000D4E01224FF480613046FDF78CFE0022B0
:103860004FF480613046FDF786FE0135EDB2072D3D
:1038700009D814F0800FE3D001224FF40061024810
:10388000FDF779FEE2E770BD000C0140F8B5074690
:10389000FFF710FF0024254601E00135EDB2072DAA
:1038A00018D8104E00224FF480613046FDF763FEB9
:1038B00001224FF480613046FDF75DFE6400E4B202
:1038C0004FF400613046FDF74FFE0028E5D001348B
:1038D000E4B2E2E71FB9FFF787FF2046F8BDFFF724
:1038E00063FFFAE7000C01402DE9F047374D2A1D30
:1038F000A91C2846FFF7B3FD354C221DA11C20460C
:10390000FFF78AFDFFF758FD2888A0F57A7000B20E
:103910002880B5F802A00AF1DC0A0FFA8AFAA5F8A5
:1039200002A0B5F8049009F164090FFA89F9A5F825
:103930000490B4F80080A8F16D080FFA88F8A4F894
:1039400000806788023F3FB26780A6880A3636B299
:10395000A680FCF74FFD00221E4BFCF7B5FDFCF7DF
:10396000C5FFA8605046FCF745FD0022194BFCF747
:10397000ABFDFCF7BBFFE8604846FCF73BFD0022CF
:10398000144BFCF7A1FDFCF7B1FF28614046FCF7A2
:1039900031FD0022104BFCF797FDFCF7A7FFE0601C
:1039A0003846FCF727FD00220B4BFCF78DFDFCF79A
:1039B0009DFF20613046FCF71DFD0022064BFCF701
:1039C00083FDFCF793FF6061BDE8F087180B0020D2
:1039D000380B00200000103F0040AF3F2DE9F04FB2
:1039E00089B004460F460593C16B039104921046BB
:1039F000FCF7D0FF25682946FDF7D6F86168FCF78B
:103A0000CBFF01906060D4F810B05946E06AFCF733
:103A1000C1FFD4F814A05146FCF7BCFF0146E06199
:103A2000D4F8188008F1004626626662D4F8309017
:103A3000C4F828902846FDF7B7F8E168FCF7ACFF1A
:103A40000290E06031462846FDF7AEF80646014692
:103A50005846FCF7A1FF8346206131465046FCF7EB
:103A60009BFF8246606149462846FDF79DF8014666
:103A70004046FCF791FF0690A06101993846FCF79B
:103A800089FF81462064D4F8388041460298FDF7CA
:103A90008BF80546606441465046FDF785F807906F
:103AA000A064666B29464046FDF77EF80146304625
:103AB000FCF772FF0746E06401462846FDF728F947
:103AC0000646206539460798FDF722F907466065E6
:103AD000A56541465846FDF767F88046E0653146E2
:103AE0002846FDF761F801460298FCF753FFE060B5
:103AF00041463046FDF758F801465846FCF74AFF64
:103B0000206139462846FDF74FF801465046FCF73C
:103B100041FF606141463846FDF746F80146069888
:103B2000FCF738FFA06131464846FDF73DF80146F5
:103B30000198FCF731FF0546606039464846FDF7BD
:103B400033F801460398FCF727FF0146E063049829
:103B5000FCF720FFA060059B1D60A268129B1A6005
:103B600009B0BDE8F08F0000014B1868704700BF36
:103B70002C01002070B50D4E0D4D761BB61006D0F1
:103B8000002455F8043B01349847A642F9D1094E68
:103B9000094D01F0DFFB761BB61006D0002455F866
:103BA000043B01349847A642F9D170BD1054000877
:103BB000105400081854000810540008830730B54A
:103BC00048D0541E002A3FD00346CAB201E0013C4F
:103BD0003AD303F8012B9D07F9D1032C2DD9CDB28F
:103BE00045EA05250F2C45EA054536D9A4F1100212
:103BF00022F00F0C03F1200EE6444FEA121C03F1F1
:103C0000100242E9045542E9025510327245F8D1DA
:103C10000CF1010214F00C0F03EB021204F00F0C74
:103C200013D0ACF1040323F003030433134442F82C
:103C3000045B9342FBD10CF003042CB1CAB21C44C8
:103C400003F8012B9C42FBD130BD64461346002C87
:103C5000F4D1F9E703461446BFE71A46A446E0E765
:103C60002DE9F043694C0E46D4F80080174604460F
:103C70001D4683B0B8F1000F03D0D8F83830002BC0
:103C800077D0022F05D0012F00F2AC80002DC0F2BA
:103C9000A980636EDA0752D52146404600F05AF9F2
:103CA000216B41B104F14003994202D0404600F03B
:103CB0007DFA002323630023B4F90CC0A3611CF038
:103CC000800F636064D12CF44A6C2CF0030C022F3B
:103CD000A4F80CC06AD001AB214640466A4600F009
:103CE00091FBA3891843A081002D2FD0002E2ED048
:103CF000D8F83830002B38D0009BC4E90465AB42BB
:103D0000B4F90C3026601CBF43F40063A381012F7B
:103D100004BF43F00103A3819AB213F008032CD02F
:103D2000D1075DD500216D42A561656EA16015F0DA
:103D3000010527D00025284603B0BDE8F083A389FC
:103D40009B05A9D4A06D00F059FBA5E7009D28466E
:103D500000F088FB0646002847D0A38943F0800383
:103D6000A381D8F83830002BC6D1404600F026F9A0
:103D7000C2E7404600F022F983E7A360656E15F0C4
:103D80000105D7D1930524D5284603B0BDE8F083BB
:103D90004046216900F00AFAB4F90CC0022F2CF455
:103DA0004A6C2CF0030CA4F80CC094D1002500211F
:103DB000012204F1430323602361636E4CF0020C83
:103DC000D807A4F80CC0A1606261DDD41CF4007FA8
:103DD000DAD1A06D00F014FB284603B0BDE8F083F3
:103DE000A560CBE74FF0FF35CEE7DDF80090A945A1
:103DF00004D0484600F036FB064620B94FF0FF35A8
:103E0000B4F90CC0D3E74D46A7E700BF2C01002052
:103E1000024B13B1024800F005B8704700000000E3
:103E2000E1400008002301461A46184600F048BE4B
:103E3000B1F90C20F8B50C461107074643D4636866
:103E400042F40062002BA2815BDDA56A002D56D0F2
:103E500000233E683B6093B212F4805255D1012397
:103E60003846E169A847421C65D0A389A56A5B076B
:103E700005D56368C01A236B0BB1E36BC01A024609
:103E8000E16900233846A847411C40D13B68002B1C
:103E90003DD01D2B01D0162B54D10022A38923F431
:103EA0000063A3812369C4E90032216B3E6031B312
:103EB00004F14003994202D0384600F077F900231C
:103EC00018462363F8BD2669CEB193B29A0718BF8E
:103ED0000023256808BF63692660AD1BA3600CE062
:103EE0002B463246D4F824C03846E169E047B0F1A9
:103EF000000CA5EB0C05664416DD002DF0DC00205F
:103F0000F8BDE36B002BA0DCF9E7206DAFE70022E2
:103F1000B4F90C30626023F400632269A381DB04EE
:103F20002260C2D52065C0E7A3894FF0FF3043F07F
:103F30004003A381F8BD3B68002B96D01D2B06D013
:103F4000162B04D0A38943F04003A381F8BD0020C1
:103F50003E60F8BD38B505460C4608B1836BA3B189
:103F6000B4F90C00B8B1636EDB0701D4810515D537
:103F700028462146FFF75CFF636E0546DA0702D448
:103F8000A3899B050ED5284638BD00F017F8B4F973
:103F90000C000028E7D10546284638BDA06D00F08A
:103FA0002DFAE5E7A06D00F02BFA284638BD00BFDA
:103FB000014900F0FBB900BF714B00082DE9F04743
:103FC0008246394800F01AFADAF83840002C66D1F7
:103FD000042303223549DAF80450CAF83C10DFF80C
:103FE000D090DFF8D080344F344E0AF53B71CAE9E7
:103FF000B921CAF8E0422146EB600822C5E9004435
:10400000C5E904446C66AC60AC6105F15C00FFF787
:10401000D5FDC5E90759C5E90987EE6205F15800E4
:1040200000F0E8F9DAF80850254B2146EB60082249
:10403000C5E90044C5E904446C66AC60AC6105F1B7
:104040005C00FFF7BBFDC5E90759C5E90987EE62CA
:1040500005F1580000F0CEF9DAF80C50194B214662
:10406000EB600822C5E90044C5E904446C66AC6015
:10407000AC6105F15C00FFF7A1FD05F15800C5E951
:104080000759C5E90A76C5F8248000F0B3F9012381
:104090000548CAF83830BDE8F04700F0B1B9024829
:1040A000BDE8F04700F0ACB95C0B0020B13F000860
:1040B000094A00082D4A00086D4A00088D4A000888
:1040C0000900010012000200014800F097B900BF8A
:1040D000580B0020014800F093B900BF580B002096
:1040E00038B5084B084D5B1B9C1007D0043B1D44A2
:1040F000013C55F804399847002CF9D1BDE8384007
:1041000001F02EB91C54000818540008F8B50C46EC
:10411000234F064600F05AFCBB685D68C4F57E6319
:1041200025F003050F332B4423F47F6323F00F03A3
:10413000A3F58054B4F5805F07DB0021304600F022
:1041400051FCBB682B44984204D0304600F044FC3C
:104150000020F8BD3046614200F044FC01300DD033
:10416000104ABB682D1B45F001055D6013683046A1
:104170001B1B136000F030FC0120F8BD002130460D
:1041800000F030FCBA68831A0F2BDEDD43F0010328
:104190005360054B03491B68C01A0860D5E700BF90
:1041A0005C050020600B00206409002000295ED01F
:1041B000F8B50C46064600F009FC54F8042C784F7C
:1041C000A4F1080522F001016818D7F808C0436877
:1041D000844523F0030300F08780D207436034D482
:1041E00054F8082C07F10804AD1A1144AA68A24239
:1041F00068D000EB030CDCF804E0D5F80CC01EF02E
:10420000010FC2F80CC0CCF8082000F0918041F0FA
:1042100001036B600160B1F5007F31D24A09CB0820
:10422000012191407A6801331143796007EBC302A1
:1042300057F83310083AC5E9021247F83350CD60F9
:104240003046BDE8F84000F0C7BBC2185268D2073C
:104250000ED4194407F108048368A34270D0C268E1
:10426000DA60936041F001036B606950D3E77047F7
:1042700041F00103B1F5007F44F8043C0160CDD367
:10428000B1F5206F4FEA512347D28B0903F1390072
:1042900003F13802C300F818FB580838984258D088
:1042A0005A6822F003028A4202D99B689842F7D1E9
:1042B000D868C5E9023085603046DD60BDE8F84069
:1042C00000F08ABBC2185268D20763D40B44D0E90D
:1042D0000212CA60916043F001026A603046EB50FE
:1042E000BDE8F84000F078BB0B44D10707D454F880
:1042F000082CAD1A1344D5E90212CA60916043F04C
:1043000001026A60274ABD6012689A4298D8264B1B
:1043100030461968FFF7FAFE92E7142B0AD9542B9E
:104320001FD80B0B03F16F0003F16E02C300B2E75D
:10433000194491E703F15C0003F15B02C300AAE7B3
:1043400041F00103C7E90455C5E902446B606950B7
:1043500076E70121921001FA02F279680A437A6045
:10436000A7E7B3F5AA7F06D8CB0B03F1780003F1DA
:104370007702C3008FE740F25452934206D88B0C69
:1043800003F17D0003F17C02C30084E74FF47E73E8
:104390007E2280E741F001036B60016050E700BFBF
:1043A0005C05002068090020900B00202DE9F843EF
:1043B0004FF000090746884600F53876D6E90154E3
:1043C000013D10D4A389013D012B08D9B4F90E3069
:1043D000013304D021463846C04749EA00096B1C26
:1043E00004F16804EED13668002EE7D14846BDE8F6
:1043F000F88300BF704700BF704700BF704700BF21
:10440000704700BF70B50C46B1F90E101546002973
:104410001E4696B014DB6A4600F010FC00280FDB45
:10442000019A4FF4806302F47042A2F50052B2FA8E
:1044300082F24FF40060520932602B6016B070BDFA
:104440000023B4F90C10336011F0800004D0402236
:1044500018462A6016B070BD4FF480632B6016B00A
:1044600070BD00BF024B0146186800F003B800BFE2
:104470002C0100202DE9F04F01F10B05162D064609
:1044800083B025D8102900F2B88000F09FFA1025DB
:1044900018224FF0020CB54F3A445368A2F10801BC
:1044A0008B4200F0B7805A68D96822F003021A44A0
:1044B0009C683046E1608C60516803F1080441F06B
:1044C0000101516000F088FA204603B0BDE8F08F8A
:1044D00035F0070500F19180A94200F28E8000F0CE
:1044E00075FAB5F5FC7FC0F094816B0A00F08C8002
:1044F000042B00F26A81AB0903F1390C03F1380493
:104500004FEACC00994F384443680838984206D1A6
:104510000CE0002980F22681DB68984206D05A68B8
:1045200022F00302511B0F29F3DDA4463C69DFF89A
:1045300040E274457AD0626822F00302531B0F2BCD
:1045400000F37681002BC7E904EE80F26781B2F5B3
:10455000007F80F019810121D30852090B4491405A
:104560007A6857F833000A4307EBC3010839A060A3
:10457000E1607A6047F83340C46001214FEAAC0340
:104580009940914259D8114206D12CF0030C4900B0
:1045900011420CF1040CFAD007EBCC0948466446F2
:1045A000D0F80C80404508D11CE1002B80F221811D
:1045B000D8F80C80404500F01581D8F8042022F08E
:1045C0000302531B0F2BF0DD08EB050145F001053D
:1045D000C8F804503046D8E90264F460A66043F09D
:1045E0000104C7E904114C60C1E902EE48F8023049
:1045F00000F0F2F908F1080402E00C230024336013
:10460000204603B0BDE8F08F4FF400704FF0400C2F
:104610003F2477E7D3689A4208BF0CF1020C7FF47D
:1046200042AF3C69DFF848E1744584D101217A68E2
:104630004FEAAC0399409142A5D9BC68636823F066
:1046400003094D4503D8A9EB05030F2B7ADCDFF8EE
:1046500024B1494BDBF800201B6801322B4404EBEA
:10466000090A00F02F8103F580530F3323F47F688C
:1046700028F00F084146304600F0B4F9411C0246CC
:1046800000F0EF80824500F2EA803C4B196841441B
:104690000846196000F04981DBF8001001930131F0
:1046A0001BBFA2EB0A0A5044CBF80020186012F09E
:1046B000070B00F01181CBF108010A44CBF58051C2
:1046C00090440831A1EB0801C1F30B0A5146304672
:1046D000009200F087F9421CDDE9002300F04B81D5
:1046E000801A00EB0A08196848F001005144BC42E6
:1046F000BA601960506000F02481B9F10F0F40F2E8
:1047000022814FF0050E6068A9F10C0C2CF0070C0B
:1047100000F0010040EA0C006060BCF10F0F04EBF8
:104720000C00C0E901EE00F22E8114465068144BD3
:104730001A688A4238BF1960124B1A688A4238BF19
:10474000196090E0621943F0010345F001056560CE
:104750003046BA600834536000F03EF9204603B09A
:10476000BDE8F08FD9681A44A2E600BF5C050020BE
:104770006405002064090020900B0020600B0020DD
:10478000880B00208C0B0020B2F5206F4FEA5223DB
:104790005FD3142B00F2B18003F15C01C9005B33DD
:1047A000781879580838884200F08F804B6823F0D9
:1047B0000303934202D989688842F7D1C8687A68AE
:1047C000C4E902108460CC60D7E6142B59D9542B6D
:1047D00000F29B802B0B03F16F0C03F16E044FEA88
:1047E000CC008FE60134A30700F108007FF4D8AEB7
:1047F00053E0444642445368D8F80C1043F0010398
:10480000536054F8083F3046D9608B6000F0E4F8FC
:10481000F6E64FEAD50C05F108023CE6224453685F
:10482000304643F00103536000F0D6F80834E7E661
:10483000611945F00105656043F00105C7E9041100
:104840003046C1E902EE4D60A35000F0C5F80834CF
:10485000D6E6930903F13901C9003833A0E7BC4219
:104860005ED0BC68606820F003084545A8EB0503EE
:1048700002D80F2B3FF766AF304600F0ADF80024AA
:10488000BEE603F15C0C03F15B044FEACC0039E6B1
:1048900059F808394B4540F095801CF0030F0CF196
:1048A000FF3CF5D17B6823EA01037B604900994214
:1048B0003FF6C3AE11B9C0E6490004341942FBD03B
:1048C000A44669E603F11008D4E601229B109A4041
:1048D0007B681A437A6073E702EB08014942C1F32F
:1048E0000B0A51463046009200F07CF8431CDDE98B
:1048F00000237FF4F5AEDA46F5E6542B26D8130BE9
:1049000003F16F01C9006E334AE7B3F5AA7F26D8D9
:10491000EB0B03F1780C03F177044FEACC00F1E5DF
:10492000294B186840441860B6E6CAF30B0CBCF17A
:10493000000F7FF4B1AEBC68C84448F0010060606D
:10494000F5E61446F3E60123536095E7B3F5AA7F35
:1049500024D8D30B03F17801C900773320E740F264
:104960005452934224D8AB0C03F17D0C03F17C0428
:104970004FEACC00C6E5ABF1080BD8444FF0000A73
:10498000A8EB0208AFE604F1080130460093FFF7F8
:104990000DFCBC68009B60681968C8E640F2545181
:1049A0008B420BD8930C03F17D01C9007C33F7E6F1
:1049B0004FF47E704FF07F0C7E24A3E54FF47E71A0
:1049C0007E23EDE67B6871E7600B00200148FFF76E
:1049D00015BD00BF540B00200148FFF711BD00BFFB
:1049E000540B0020002238B5064D044608462A60C4
:1049F000FEF7CEFB431C00D038BD2B68002BFBD04C
:104A0000236038BD940B002010B50C46B1F90E1090
:104A100000F03EF9002803DB236D0344236510BD3D
:104A2000A38923F48053A38110BD00BF2DE9F04179
:104A30000C46B1F90C101F46CB05054616460BD4A3
:104A400021F48051A1813B4632462846B4F90E102C
:104A5000BDE8F04100F01EB8B4F90E1002230022A8
:104A600000F000F9B4F90C10EAE700BF10B50C46ED
:104A7000B1F90E1000F0F6F8A389421C0EBF23F422
:104A8000805343F480532065A38110BDB1F90E100B
:104A900000F05CB838B50C46114600228446074D3C
:104AA00020462A601A466446FEF71CFB431C00D0D1
:104AB00038BD2B68002BFBD0236038BD940B002041
:104AC0002DE9F047DFF87CA00646DAF800009846AA
:104AD0000F469146FFF792FC1B4B1B68D3F84841E9
:104AE00024B365681F2D26DC5EB96B1C0235DAF82D
:104AF0000000636044F82570FFF782FC0020BDE8E9
:104B0000F087012304EB8501C1F88890D4F888214F
:104B1000AB401A43022EC4F88821C1F80881E4D1C1
:104B2000D4F88C211343C4F88C31DEE703F5A67466
:104B3000C3F84841D5E7DAF80000FFF761FC4FF011
:104B4000FF30DCE7580500209C530008002238B5F0
:104B5000064D044608462A60FEF7DCFA431C00D0E6
:104B600038BD2B68002BFBD0236038BD940B002090
:104B700070B500294BD006460C4610B1836B002B54
:104B800048D0636ED80734D5B4F90C30002B3ED032
:104B900021463046FFF74CF9E36A054633B130460B
:104BA000E16998470028B8BF4FF0FF35A3891A067E
:104BB0003BD4216B41B104F14003994202D030460D
:104BC000FFF7F4FA00232363616C21B13046FFF74D
:104BD000EDFA00236364FFF777FA0022636EA28187
:104BE000DB0727D5A06DFFF707FCFFF773FA284610
:104BF00070BDA3899905CBD4A06DFFF7FFFBB4F975
:104C00000C30002BC4D1656E15F0010508D00025CD
:104C1000284670BDFFF7D2F9636ED807B4D4E8E731
:104C2000A06DFFF7EDFB284670BD30462169FFF708
:104C3000BDFABEE7A06DFFF7E3FBD3E770B5002632
:104C4000074D0446084611462E60FEF786FA431CBF
:104C500000D070BD2B68002BFBD0236070BD00BF5F
:104C6000940B002038B50C46114600228446074DAF
:104C700020462A601A466446FEF758FA431C00D0C4
:104C800038BD2B68002BFBD0236038BD940B00206F
:104C900038B50C46114600228446074D20462A604E
:104CA0001A466446FEF74AFA431C00D038BD2B680A
:104CB000002BFBD0236038BD940B002000F028B8F7
:104CC000F8B504460D4600F0EDF8224606460F46BC
:104CD0002B4620462946FCF765F930B9204629467F
:104CE00000220023FCF736F910B930463946F8BDEA
:104CF000FEF73AFF002200232121016010461946E9
:104D0000FBF70CFD06460F4630463946F8BD00BF9E
:104D10009C462DE9F84F53425F4C13432CF0004959
:104D200049EAD373A342964607460E463DD845420C
:104D3000054321F0004A4AEAD575A54203468B4651
:104D400033D80CF1404505F5801515433DD04FEAA9
:104D5000AC7505F002055AEA030345EAD1752CD07B
:104D600059EA020335D0A14546D0A24531D0AAEB7D
:104D70000909B9F1747F4FEA295339DABCF1000F00
:104D800046DA3C3344DA00200021012D58D0022DB0
:104D900049D085B134A3D3E90023FBF7DDF934A36F
:104DA000D3E90023FBF7D8F905E03A46704661469F
:104DB0003346FBF7D3F9BDE8F88F022D10D0032D51
:104DC000F9D12DA1D1E90001F5E7BDE8F84F00F0D8
:104DD0002FB9BBF1000F07DB29A1D1E90001EAE7F8
:104DE00023A1D1E90001E6E727A1D1E90001E2E72B
:104DF00023A1D1E90001C8E7CA4505F1FF3523D059
:104E0000022D29D8254B03EBC505D5E90001D2E7D2
:104E10007246634638463146FBF780FC00F096FA4E
:104E200000F006F9B1E710A3D3E90023FBF794F9EA
:104E300002460B460EA1D1E90001FBF78DF9BAE756
:104E400001F100431946B6E7022D08D8144B03EBD5
:104E5000C505D5E90001AEE700200021ABE70CA1B4
:104E6000D1E90001A7E700BF075C143326A6A13CE7
:104E7000182D4454FB210940182D4454FB2109C02E
:104E8000182D4454FB21F93F182D4454FB21F9BF40
:104E9000182D4454FB21E93F0000F07FB85300086F
:104EA000A05300082DE9F843604E054636EA01029A
:104EB0000C4600F09E8000290B46844654DD0915FF
:104EC00062D0C3F31303C807A1F2FF3743F4801382
:104ED00004D45B0003EBDC734FEA4C0C00264FEA72
:104EE000DC7202EB43034FF0160E4FF4001234460F
:104EF0007F104FEA4C0CA118994202DC5B1A8C1807
:104F000016445B00BEF1010E03EBDC734FEA520264
:104F10004FEA4C0CEFD1754620204FF000420AE0DA
:104F200043D04FEADC71013801EB43034FEA4C0CEC
:104F30004FEA520242D0A34202EB0E01F0DD0029FB
:104F400001EB020E0ADBA0461B1B614588BF03F183
:104F5000FF334446ACEB010C1544E2E7BEF1000F11
:104F6000F1DB04F10108EFE721F00042024336D003
:104F700000294CD14FEADC22134615394FEA4C5C2C
:104F8000002AF7D0D6024CD400205B00DD02044694
:104F900000F10100F9D51A4663460CFA00FCC0F195
:104FA0002000C340091B13438BE76145B9D8002992
:104FB00001EB020ED2DB98460023CAE753EA0C034A
:104FC00011D16808731003F17F5303F50013F20742
:104FD00048BF40F0004003EB075905464C462846C1
:104FE0002146BDE8F883691C16BF681C01364008DD
:104FF000E8E702460B46FBF767FA2A462346FBF72B
:10500000ADF805460C4628462146BDE8F883024621
:10501000FBF7A2F802460B46FBF780FB05460C4661
:10502000DDE7634620204FF0FF34BAE70000F07F51
:105030002DE9F84FB84F21F00046BE4204460D4618
:105040008A461CDDB54B9E420DDC0AD0B44BB54AF6
:10505000B54CBAF1000FD8BF134620461946BDE83B
:10506000F88F0028F2D022462B4620462946FBF72F
:1050700075F804460B4620461946BDE8F88FAB4B41
:105080009E4200F3B080A3F1DE739E4240F39D8008
:105090004FF0FF3B22462B4620462946FBF714FAE9
:1050A00002460B4680468946FBF70EFA82A3D3E9F7
:1050B000002306460F46FBF707FA81A3D3E9002336
:1050C000FBF74CF832463B46FBF7FEF97EA3D3E9EB
:1050D0000023FBF743F832463B46FBF7F5F97CA388
:1050E000D3E90023FBF73AF832463B46FBF7ECF9ED
:1050F00079A3D3E90023FBF731F832463B46FBF7AF
:10510000E3F977A3D3E90023FBF728F842464B469F
:10511000FBF7DAF974A3D3E90023804689463046C9
:105120003946FBF7D1F972A3D3E90023FBF714F852
:1051300032463B46FBF7C8F96FA3D3E90023FBF7E0
:105140000BF832463B46FBF7BFF96DA3D3E90023CA
:10515000FBF702F832463B46FBF7B6F96AA3D3E900
:105160000023FAF7F9FF32463B46FBF7ADF9BBF1F6
:10517000FF3F02460B464046494653D0FAF7EEFF42
:105180006B4E22462B46FBF79FF96A4B06EBCB068C
:105190004FEACB0B9B44DBE90023FAF7DDFF224605
:1051A0002B46FAF7D9FF0B460246D6E90001FAF77B
:1051B000D3FFBAF1000F04460B46BFF64EAF01F124
:1051C000004320461946BDE8F88F51A3D3E90023D8
:1051D000FAF7C4FF0022584BFBF7DAFE00283FF431
:1051E00057AF2B4639E700F0B1F8544B04469E42C6
:1051F0000D4629DCA3F550239E4250DC02460B46A7
:10520000FAF7ACFF00224C4BFAF7A6FF02460B461A
:105210002046294614461D464FF0000B00224FF051
:10522000804326E0FAF79AFF22462B46FBF74CF91B
:1052300002460B4620462946FAF78EFF04460B46E7
:1052400020461946BDE8F88F3D4B9E421CDA0022ED
:105250003C4BFAF781FF02460B462046294614468E
:105260001D460022374B4FF0020BFBF72DF90022B1
:10527000314BFAF773FF02460B4620462946FBF7EF
:105280004DFA04460D4605E702460B4600202E491E
:10529000FBF744FA4FF0030B04460D46FAE60022F2
:1052A000254BFAF759FF02460B46204629464FF098
:1052B000010B14461D46DAE711DA22E33AAD903FBE
:1052C000EB0D76244B7BA93F513DD0A0660DB13F3D
:1052D0006E204CC5CD45B73FFF8300922449C23FA5
:1052E0000D5555555555D53F2F6C6A2C44B4A2BF6A
:1052F0009AFDDE522DDEAD3F6D9A74AFF2B0B33F32
:10530000711623FEC671BC3FC4EB98999999C93FA9
:105310009C7500883CE4377EFFFF0F440000F07F5F
:10532000FB21F93FFB21F9BF182D4454FFFFDB3F60
:10533000D0530008F05300080000F03FFFFFF23F99
:10534000008003400000F83F0000F0BF21F0004162
:10535000704700BFF8B500BFF8BC08BC9E46704758
:0C536000F8B500BFF8BC08BC9E467047C2
:1053700002030405060708090A0B0C0D0E0F101096
:105380000000000000000000000000000102030413
:105390000607080900000000010203043001002094
:1053A000182D4454FB21E9BFD221337F7CD9024020
:1053B000D221337F7CD902C00000000000000080B1
:1053C000182D4454FB210940182D4454FB2109C0D9
:1053D0004FBB610567ACDD3F182D4454FB21E93F0D
:1053E0009BF681D20B73EF3F182D4454FB21F93FFC
:1053F000E2652F227F2B7A3C075C143326A6813C82
:10540000BDCBF07A8807703C075C143326A6913C2C
:08541000113E000835010008FF
:045418001101000876
:10541C0001000000100000000024F4000AD7233C17
:10542C0000000000000000000000803F00000000B1
:10543C00000000000000803F0000000000000000A1
:10544C0000000000000000006F12833A0AD7A33B53
:10545C000000003F0000803F000000000000000042
:10546C000000000000000000000000000000000030
:10547C000000000000000000000000000AD7233CE0
:10548C0000000000000000000000803F0000000051
:10549C00000000000000803F000000000000000041
:1054AC0000000000000000006F12833A0AD7A33BF3
:1054BC000000003F0000803F0000000000000000E2
:1054CC0000000000000000000000000000000000D0
:1054DC000000000000000000000000000AD7233C80
:1054EC0000000000000000000000803F00000000F1
:1054FC00000000000000803F0000000000000000E1
:10550C0000000000000000006F12833A0AD7A33B92
:10551C000000003F0000803F000000000000000081
:10552C00000000000000000000000000000000006F
:10553C00000000000000000000000000300100200E
:10554C00000000001C04002084040020EC04002057
:10555C00000000000000000000000000000000003F
:10556C00000000000000000000000000000000002F
:10557C00000000000000000000000000000000001F
:10558C00000000000000000000000000000000000F
:10559C0000000000000000000000000000000000FF
:1055AC0000000000000000000000000000000000EF
:1055BC0000000000000000000000000000000000DF
:1055CC0000000000000000000000000000000000CF
:1055DC0000000000000000000000000000000000BF
:1055EC0000000000000000000100000000000000AE
:1055FC000E33CDAB34126DE6ECDE05000B00000073
:10560C00000000000000000000000000000000008E
:10561C00000000000000000000000000000000007E
:10562C00000000000000000000000000000000006E
:10563C00000000000000000000000000000000005E
:10596C000000000000000000500B002000000000B0
:10597C00000000005C0500205C0500206405002090
:10598C00640500206C0500206C05002074050020C7
:10599C00740500207C0500207C0500208405002077
:1059AC00840500208C0500208C0500209405002027
:1059BC00940500209C0500209C050020A4050020D7
:1059CC00A4050020AC050020AC050020B405002087
:1059DC00B4050020BC050020BC050020C405002037
:1059EC00C4050020CC050020CC050020D4050020E7
:1059FC00D4050020DC050020DC050020E405002097
:105A0C00E4050020EC050020EC050020F405002046
:105A1C00F4050020FC050020FC05002004060020F5
:105A2C00040600200C0600200C06002014060020A2
:105A3C00140600201C0600201C0600202406002052
:105A4C00240600202C0600202C0600203406002002
:105A5C00340600203C0600203C06002044060020B2
:105A6C00440600204C0600204C0600205406002062
:105A7C00540600205C0600205C0600206406002012
:105A8C00640600206C0600206C06002074060020C2
:105A9C00740600207C0600207C0600208406002072
:105AAC00840600208C0600208C0600209406002022
:105ABC00940600209C0600209C060020A4060020D2
:105ACC00A4060020AC060020AC060020B406002082
:105ADC00B4060020BC060020BC060020C406002032
:105AEC00C4060020CC060020CC060020D4060020E2
:105AFC00D4060020DC060020DC060020E406002092
:105B0C00E4060020EC060020EC060020F406002041
:105B1C00F4060020FC060020FC06002004070020F0
:105B2C00040700200C0700200C070020140700209D
:105B3C00140700201C0700201C070020240700204D
:105B4C00240700202C0700202C07002034070020FD
:105B5C00340700203C0700203C07002044070020AD
:105B6C00440700204C0700204C070020540700205D
:105B7C00540700205C0700205C070020640700200D
:105B8C00640700206C0700206C07002074070020BD
:105B9C00740700207C0700207C070020840700206D
:105BAC00840700208C0700208C070020940700201D
:105BBC00940700209C0700209C070020A4070020CD
:105BCC00A4070020AC070020AC070020B40700207D
:105BDC00B4070020BC070020BC070020C40700202D
:105BEC00C4070020CC070020CC070020D4070020DD
:105BFC00D4070020DC070020DC070020E40700208D
:105C0C00E4070020EC070020EC070020F40700203C
:105C1C00F4070020FC070020FC07002004080020EB
:105C2C00040800200C0800200C0800201408002098
:105C3C00140800201C0800201C0800202408002048
:105C4C00240800202C0800202C08002034080020F8
:105C5C00340800203C0800203C08002044080020A8
:105C6C00440800204C0800204C0800205408002058
:105C7C00540800205C0800205C0800206408002008
:105C8C00640800206C0800206C08002074080020B8
:105C9C00740800207C0800207C0800208408002068
:105CAC00840800208C0800208C0800209408002018
:105CBC00940800209C0800209C080020A4080020C8
:105CCC00A4080020AC080020AC080020B408002078
:105CDC00B4080020BC080020BC080020C408002028
:105CEC00C4080020CC080020CC080020D4080020D8
:105CFC00D4080020DC080020DC080020E408002088
:105D0C00E4080020EC080020EC080020F408002037
:105D1C00F4080020FC080020FC08002004090020E6
:105D2C00040900200C0900200C0900201409002093
:105D3C00140900201C0900201C0900202409002043
:105D4C00240900202C0900202C09002034090020F3
:105D5C00340900203C0900203C09002044090020A3
:105D6C00440900204C0900204C0900205409002053
:0C5D7C0054090020FFFFFFFF00000200A0
:0400000508003301BB
:00000001FF
