:020000040800F2
:10000000FF4F00202D2B0008A3290008A529000878
:10001000A7290008A9290008AB2900080000000052
:10002000000000000000000000000000AD290008F2
:10003000AF29000800000000B1290008B32900081A
:10004000752B0008752B0008752B0008752B000810
:10005000752B0008752B0008752B0008752B000800
:10006000752B0008752B0008752B0008752B0008F0
:10007000752B0008752B0008752B0008752B0008E0
:10008000752B0008752B0008752B0008752B0008D0
:10009000752B0008752B0008752B0008752B0008C0
:1000A000752B0008752B0008752B0008752B0008B0
:1000B000752B0008E1280008752B0008752B000837
:1000C000752B0008752B0008752B0008752B000890
:1000D000752B00080D2B0008752B0008752B0008E8
:1000E000752B0008752B0008752B00080000000018
:1000F0000000000000000000000000000000000000
:0C01000000000000000000005FF808F1A3
:1001100010B5054C237833B9044B13B10448AFF341
:1001200000800123237010BD94080020000000000F
:10013000444A000808B5034B1BB103490348AFF319
:10014000008008BD0000000098080020444A000814
:1001500081F0004102E000BF83F0004330B54FEA78
:1001600041044FEA430594EA050F08BF90EA020FE5
:100170001FBF54EA000C55EA020C7FEA645C7FEA78
:10018000655C00F0E2804FEA5454D4EB5555B8BF9B
:100190006D420CDD2C4480EA020281EA030382EA0C
:1001A000000083EA010180EA020281EA0303362D9E
:1001B00088BF30BD11F0004F4FEA01314FF4801C71
:1001C0004CEA113102D0404261EB410113F0004F83
:1001D0004FEA03334CEA133302D0524263EB43033A
:1001E00094EA050F00F0A780A4F10104D5F1200ED8
:1001F0000DDB02FA0EFC22FA05F2801841F1000133
:1002000003FA0EF2801843FA05F359410EE0A5F106
:1002100020050EF1200E012A03FA0EFC28BF4CF037
:10022000020C43FA05F3C01851EBE37101F00045ED
:1002300007D54FF0000EDCF1000C7EEB00006EEBFA
:100240000101B1F5801F1BD3B1F5001F0CD3490884
:100250005FEA30004FEA3C0C04F101044FEA4452DB
:1002600012F5800F80F09A80BCF1004F08BF5FEA62
:10027000500C50F1000041EB045141EA050130BD42
:100280005FEA4C0C404141EB0101013C28BFB1F554
:10029000801FE9D291F0000F04BF01460020B1FA9F
:1002A00081F308BF2033A3F10B03B3F120020CDA72
:1002B0000C3208DD02F1140CC2F10C0201FA0CF050
:1002C00021FA02F10CE002F11402D8BFC2F1200CB5
:1002D00001FA02F120FA0CFCDCBF41EA0C0190406B
:1002E000E41AA2BF01EB0451294330BD6FEA0404B4
:1002F0001F3C1CDA0C340EDC04F11404C4F120029F
:1003000020FA04F001FA02F340EA030021FA04F3B0
:1003100045EA030130BDC4F10C04C4F1200220FA07
:1003200002F001FA04F340EA0300294630BD21FA45
:1003300004F0294630BD94F0000F83F4801306BF0B
:1003400081F480110134013D4EE77FEA645C18BFFF
:100350007FEA655C29D094EA050F08BF90EA020F96
:1003600005D054EA000C04BF1946104630BD91EA8E
:10037000030F1EBF0021002030BD5FEA545C05D191
:100380004000494128BF41F0004130BD14F58004D0
:100390003CBF01F5801130BD01F0004545F0FE4144
:1003A00041F470014FF0000030BD7FEA645C1ABF79
:1003B000194610467FEA655C1CBF0B46024650EAB0
:1003C000013406BF52EA033591EA030F41F40021DC
:1003D00030BD00BF90F0000F04BF0021704730B562
:1003E0004FF4806404F132044FF000054FF0000137
:1003F00050E700BF90F0000F04BF0021704730B5F8
:100400004FF4806404F1320410F0004548BF4042CC
:100410004FF000013EE700BF42004FEAE2014FEA21
:1004200031014FEA02701FBF12F07F4393F07F4FFC
:1004300081F06051704732F07F4208BF704793F0FF
:100440007F4F04BF41F40021704730B54FF4607412
:1004500001F0004521F000411CE700BF50EA010215
:1004600008BF704730B54FF000050AE050EA0102BE
:1004700008BF704730B511F0004502D5404261EB2E
:1004800041014FF4806404F132045FEA915C3FF46F
:10049000D8AE4FF003025FEADC0C18BF03325FEA0C
:1004A000DC0C18BF033202EBDC02C2F1200300FABD
:1004B00003FC20FA02F001FA03FE40EA0E0021FAE2
:1004C00002F11444BDE600BF70B54FF0FF0C4CF4D0
:1004D000E06C1CEA11541DBF1CEA135594EA0C0F82
:1004E00095EA0C0F00F0DEF82C4481EA030621EABD
:1004F0004C5123EA4C5350EA013518BF52EA0335F8
:1005000041F4801143F4801338D0A0FB02CE4FF0A9
:100510000005E1FB02E506F00042E0FB03E54FF0D9
:100520000006E1FB03569CF0000F18BF4EF0010ED1
:10053000A4F1FF04B6F5007F64F5407404D25FEACD
:100540004E0E6D4146EB060642EAC62141EA555180
:100550004FEAC52040EA5E504FEACE2EB4F1FD0CC2
:1005600088BFBCF5E06F1ED8BEF1004F08BF5FEA40
:10057000500E50F1000041EB045170BD06F00046F2
:1005800046EA010140EA020081EA0301B4EB5C049F
:10059000C2BFD4EB0C0541EA045170BD41F4801197
:1005A0004FF0000E013C00F3AB8014F1360FDEBFBC
:1005B000002001F0004170BDC4F10004203C35DA98
:1005C0000C341BDC04F11404C4F1200500FA05F31B
:1005D00020FA04F001FA05F240EA020001F00042BC
:1005E00021F0004110EBD37021FA04F642EB060132
:1005F0005EEA430E08BF20EAD37070BDC4F10C045C
:10060000C4F1200500FA04F320FA05F001FA04F21F
:1006100040EA020001F0004110EBD37041F100010B
:100620005EEA430E08BF20EAD37070BDC4F1200516
:1006300000FA05F24EEA020E20FA04F301FA05F27E
:1006400043EA020321FA04F001F0004121FA04F226
:1006500020EA020000EBD3705EEA430E08BF20EAF6
:10066000D37070BD94F0000F0FD101F00046400030
:1006700041EB010111F4801F08BF013CF7D041EAB2
:10068000060195F0000F18BF704703F000465200B6
:1006900043EB030313F4801F08BF013DF7D043EA87
:1006A0000603704794EA0C0F0CEA135518BF95EA3D
:1006B0000C0F0CD050EA410618BF52EA4306D1D1C4
:1006C00081EA030101F000414FF0000070BD50EAE3
:1006D000410606BF1046194652EA430619D094EA6D
:1006E0000C0F02D150EA013613D195EA0C0F05D157
:1006F00052EA03361CBF104619460AD181EA0301AB
:1007000001F0004141F0FE4141F470014FF0000062
:1007100070BD41F0FE4141F4780170BD70B54FF0FD
:10072000FF0C4CF4E06C1CEA11541DBF1CEA13557D
:1007300094EA0C0F95EA0C0F00F0A7F8A4EB05045F
:1007400081EA030E52EA03354FEA013100F0888056
:100750004FEA03334FF0805545EA131343EA12631F
:100760004FEA022245EA111545EA10654FEA0026D4
:100770000EF000419D4208BF964244F1FD0404F58D
:10078000407402D25B084FEA3202B61A65EB0305E9
:100790005B084FEA32024FF480104FF4002CB6EBA6
:1007A000020E75EB030E22BFB61A754640EA0C0026
:1007B0005B084FEA3202B6EB020E75EB030E22BF66
:1007C000B61A754640EA5C005B084FEA3202B6EBA7
:1007D000020E75EB030E22BFB61A754640EA9C0066
:1007E0005B084FEA3202B6EB020E75EB030E22BF36
:1007F000B61A754640EADC0055EA060E18D04FEAF4
:10080000051545EA16754FEA06164FEAC30343EA93
:1008100052734FEAC2025FEA1C1CC0D111F4801F60
:100820000BD141EA00014FF000004FF0004CB6E759
:1008300011F4801F04BF01430020B4F1FD0C88BFF8
:10084000BCF5E06F3FF6AFAEB5EB030C04BFB6EB03
:10085000020C5FEA500C50F1000041EB045170BDF6
:100860000EF0004E4EEA113114EB5C04C2BFD4EB23
:100870000C0541EA045170BD41F480114FF0000EA7
:10088000013C90E645EA060E8DE60CEA135594EA23
:100890000C0F08BF95EA0C0F3FF43BAF94EA0C0F26
:1008A0000AD150EA01347FF434AF95EA0C0F7FF49B
:1008B00025AF104619462CE795EA0C0F06D152EAEF
:1008C00003353FF4FDAE1046194622E750EA4106D3
:1008D00018BF52EA43067FF4C5AE50EA41047FF4E4
:1008E0000DAF52EA43057FF4EBAE12E74FEA410247
:1008F000B2F1E04324BFB3F5001CDCF1FE5C0DD97E
:1009000001F0004C4FEAC0024CEA5070B2F1004FC7
:1009100040EB830008BF20F00100704711F0804FCA
:1009200021D113F13872BCBF01F00040704741F48F
:1009300080114FEA5252C2F11802C2F1200C10FA93
:100940000CF320FA02F018BF40F001004FEAC12377
:100950004FEAD32303FA0CFC40EA0C0023FA02F31B
:100960004FEA4303CCE77FEA625307D150EA0133F1
:100970001EBF4FF0FE4040F44000704701F00040C1
:1009800040F0FE4040F40000704700BF80F000409F
:1009900002E000BF81F0004142001FBF5FEA410357
:1009A00092EA030F7FEA226C7FEA236C6AD04FEA57
:1009B0001262D2EB1363C1BFD2184140484041409C
:1009C000B8BF5B42192B88BF704710F0004F40F44E
:1009D000000020F07F4018BF404211F0004F41F46A
:1009E000000121F07F4118BF494292EA030F3FD036
:1009F000A2F1010241FA03FC10EB0C00C3F1200349
:100A000001FA03F100F0004302D5494260EB4000D7
:100A1000B0F5000F13D3B0F1807F06D340084FEA42
:100A2000310102F10102FE2A51D2B1F1004F40EB37
:100A3000C25008BF20F0010040EA0300704749009F
:100A400040EB0000013A28BFB0F5000FEDD2B0FA3C
:100A500080FCACF1080CB2EB0C0200FA0CF0AABF5F
:100A600000EBC25052421843BCBFD04018437047FD
:100A700092F0000F81F4000106BF80F40000013203
:100A8000013BB5E74FEA41037FEA226C18BF7FEADA
:100A9000236C21D092EA030F04D092F0000F08BF1C
:100AA0000846704790EA010F1CBF0020704712F003
:100AB0007F4F04D1400028BF40F00040704712F142
:100AC00000723CBF00F50000704700F0004343F0A7
:100AD000FE4040F4000070477FEA226216BF0846DD
:100AE0007FEA23630146420206BF5FEA412390EAA0
:100AF000010F40F4800070474FF0000304E000BF96
:100B000010F0004348BF40425FEA000C08BF704746
:100B100043F0964301464FF000001CE050EA01020A
:100B200008BF70474FF000030AE000BF50EA01021F
:100B300008BF704711F0004302D5404261EB41010C
:100B40005FEA010C02BF84460146002043F0B64331
:100B500008BFA3F18053A3F50003BCFA8CF2083A56
:100B6000A3EBC25310DB01FA02FC634400FA02FC5F
:100B7000C2F12002BCF1004F20FA02F243EB020066
:100B800008BF20F00100704702F1200201FA02FCC8
:100B9000C2F1200250EA4C0021FA02F243EB0200BB
:100BA00008BF20EADC7070474FF0FF0C1CEAD052FF
:100BB0001EBF1CEAD15392EA0C0F93EA0C0F6FD0C0
:100BC0001A4480EA010C400218BF5FEA41211ED09E
:100BD0004FF0006343EA501043EA5111A0FB01318A
:100BE0000CF00040B1F5000F3EBF490041EAD3715F
:100BF0005B0040EA010062F17F02FD2A1DD8B3F1DB
:100C0000004F40EBC25008BF20F00100704790F049
:100C1000000F0CF0004C08BF49024CEA502040EA9B
:100C200051207F3AC2BFD2F1FF0340EAC250704761
:100C300040F400004FF00003013A5DDC12F1190F9F
:100C4000DCBF00F000407047C2F10002410021FA11
:100C500002F1C2F1200200FA02FC5FEA310040F129
:100C6000000053EA4C0308BF20EADC70704792F0A2
:100C7000000F00F0004C02BF400010F4000F013ADA
:100C8000F9D040EA0C0093F0000F01F0004C02BFD5
:100C9000490011F4000F013BF9D041EA0C018FE744
:100CA0000CEAD15392EA0C0F18BF93EA0C0F0AD04A
:100CB00030F0004C18BF31F0004CD8D180EA010070
:100CC00000F00040704790F0000F17BF90F0004F09
:100CD000084691F0000F91F0004F14D092EA0C0FEB
:100CE00001D142020FD193EA0C0F03D14B0218BF7E
:100CF000084608D180EA010000F0004040F0FE40C4
:100D000040F40000704740F0FE4040F4400070475F
:100D10004FF0FF0C1CEAD0521EBF1CEAD15392EADE
:100D20000C0F93EA0C0F69D0A2EB030280EA010CCE
:100D300049024FEA402037D04FF0805343EA111167
:100D400043EA10130CF000408B4238BF5B0042F1C5
:100D50007D024FF4000C8B4224BF5B1A40EA0C006A
:100D6000B3EB510F24BFA3EB510340EA5C00B3EB9C
:100D7000910F24BFA3EB910340EA9C00B3EBD10F8A
:100D800024BFA3EBD10340EADC001B0118BF5FEADC
:100D90001C1CE0D1FD2A3FF650AF8B4240EBC25005
:100DA00008BF20F0010070470CF0004C4CEA5020C6
:100DB0007F32C2BFD2F1FF0340EAC250704740F415
:100DC00000004FF00003013A37E792F0000F00F007
:100DD000004C02BF400010F4000F013AF9D040EA85
:100DE0000C0093F0000F01F0004C02BF490011F419
:100DF000000F013BF9D041EA0C0195E70CEAD15311
:100E000092EA0C0F08D142027FF47DAF93EA0C0FF7
:100E10007FF470AF084676E793EA0C0F04D14B02DB
:100E20003FF44CAF08466EE730F0004C18BF31F08D
:100E3000004CCAD130F000427FF45CAF31F0004387
:100E40007FF43CAF5FE700BF4FEA4002B2F1FE4FD4
:100E50000FD34FF09E03B3EB12620DD94FEA00237C
:100E600043F0004310F0004F23FA02F018BF404255
:100E700070474FF00000704712F1610F01D142023C
:100E800005D110F0004008BF6FF0004070474FF0F0
:100E9000000070474FF0FF3C06E000BF4FF0010C30
:100EA00002E000BF4FF0010C4DF804CD4FEA410CB9
:100EB0007FEA6C5C4FEA430C18BF7FEA6C5C1BD086
:100EC00001B050EA410C0CBF52EA430C91EA030F07
:100ED00002BF90EA020F0020704710F1000F91EA64
:100EE000030F58BF994208BF90422CBFD8176FEA32
:100EF000E37040F0010070474FEA410C7FEA6C5C00
:100F000002D150EA013C07D14FEA430C7FEA6C5C06
:100F1000D6D152EA033CD3D05DF8040B704700BF32
:100F20008446104662468C461946634600E000BF80
:100F300001B5FFF7B7FF002848BF10F1000F01BD52
:100F40004DF808EDFFF7F4FF0CBF012000205DF81D
:100F500008FB00BF4DF808EDFFF7EAFF34BF0120A2
:100F600000205DF808FB00BF4DF808EDFFF7E0FF3B
:100F700094BF012000205DF808FB00BF4DF808ED8C
:100F8000FFF7CEFF94BF012000205DF808FB00BFF3
:100F90004DF808EDFFF7C4FF34BF012000205DF8D5
:100FA00008FB00BF4FEA410C7FEA6C5C02D150EABB
:100FB000013C0AD14FEA430C7FEA6C5C02D152EA51
:100FC000033C02D14FF0000070474FF00100704722
:100FD00010B504460E4B18784FF47A73B3FBF0F358
:100FE0000C4A1068B0FBF3F000F0A8F868B90F2CB9
:100FF00001D901200AE0002221464FF0FF3000F025
:1010000057F8054B1C60002000E0012010BD00BF18
:1010100000000020080000200400002008B5074A56
:10102000136843F010031360032000F02FF80F2023
:10103000FFF7CEFF01F0B4FC002008BD0020024005
:10104000034A1168034B1B780B441360704700BFC1
:10105000B008002000000020014B1868704700BF56
:10106000B008002038B50446FFF7F6FF0546B4F196
:10107000FF3F02D0044B1B781C44FFF7EDFF401BE1
:10108000A042FAD338BD00BF00000020074AD36851
:1010900023F4E0631B041B0C000200F4E060034334
:1010A00043F0BF6343F40033D360704700ED00E0CA
:1010B00000B5194BDB68C3F30223C3F1070CBCF185
:1010C000040F28BF4FF0040C03F1040EBEF1060F0D
:1010D00018D9033B4FF0FF3E0EFA0CFC21EA0C013D
:1010E00099400EFA03F322EA0303194300280BDBAD
:1010F0000901C9B200F1604000F5614080F80013B9
:101100005DF804FB0023E5E700F00F000901C9B218
:10111000024B1954F4E700BF00ED00E014ED00E0CD
:10112000002807DB00F01F02400901239340024A18
:1011300042F82030704700BF00E100E00138B0F114
:10114000807F0BD24FF0E0235861054AF02182F8EE
:1011500023100020986107221A6170470120704710
:1011600000ED00E090F82130DBB2022B06D0042322
:101170008363002380F820300120704702681368E1
:1011800023F00E0313600268136823F00103136059
:10119000036CC16B012202FA03F34B6080F821203B
:1011A000002380F8203018467047000008B590F8FA
:1011B0002130DBB2022B03D004238363012008BD5E
:1011C0000268136823F00E0313600268136823F0AB
:1011D000010313600368194A934214D014329342F6
:1011E0001FD0143293421ED0143293421ED01432B8
:1011F00093421ED01432934202D04FF0807203E02B
:101200004FF4801200E001220D4B5A60012380F858
:101210002130002380F82030436B6BB198470020C9
:10122000CDE71022F0E74FF48072EDE74FF48052E3
:10123000EAE74FF48032E7E70020C0E70800024009
:101240000000024070B582B00024A446A6E0804DA4
:10125000AA4210D007D97F4DAA420CD005F580359F
:10126000AA4208D013E0A5F58015AA4203D005F5DF
:101270007025AA4207D18A68002A58D0012A51D085
:101280004361082403E0A5F58015AA42F3D0BEF11E
:10129000FF0F4ED80646BEF1FF0F4CD84FEA8C0226
:1012A00033680F25954023EA050304FA02F213433D
:1012B00033604B6813F0805F6ED0674B9A6942F0E1
:1012C00001029A619B6903F001030193019B4FEABC
:1012D0009C02951C614B53F825600CF003039D00A4
:1012E0000F23AB4026EA03065D4B984229D003F555
:1012F0008063984200F08E8003F58063984200F08E
:101300008B8003F58063984219D004231AE0CC68DF
:10131000BDE7CC680434BAE7CC680834B7E7CC68DA
:101320000C34B4E703610824B1E70024AFE70424D8
:10133000ADE7061DAFE7ACF108029200B0E703236A
:1013400000E00023AB4033430232444D45F82230E5
:101350004B6813F4803F61D0424A136843EA0E039E
:1013600013604B6813F4003F5ED03E4A536843EA73
:101370000E0353604B6813F4801F5BD0394A9368A7
:1013800043EA0E0393604B6813F4001F58D0354AAC
:10139000D36843EA0E03D3600CF1010C0A6832FAF9
:1013A0000CF353D0012303FA0CF302EA030E33EAE1
:1013B0000202F1D14A68122A3FF649AF122A3FF6DB
:1013C00066AF01A555F822F0771200080F13000848
:1013D000191300082B1300088F1200088F12000841
:1013E0008F1200088F1200088F1200088F12000859
:1013F0008F1200088F1200088F1200088F12000849
:101400008F1200088F1200088F12000813130008B3
:101410001F130008012395E7022393E7114A13687D
:1014200023EA0E0313609CE70E4A536823EA0E0377
:1014300053609FE70B4A936823EA0E039360A2E789
:10144000084AD36823EA0E03D360A5E702B070BD53
:101450000000221000003110001002400000014086
:10146000000801400004014000226DE0032500E077
:10147000002505FA04F4644542D0FF2B5BD80646EC
:10148000FF2B5AD8950034684FF00F0E0EFA05FE68
:1014900024EA0E044FF0040C0CFA05FC44EA0C0498
:1014A0003460C46824EA0303C360013231FA02F3F2
:1014B00048D0012393400B40F7D04FEA920E0EF133
:1014C0000205264C54F8255002F00304A4000F2610
:1014D000A64006EA050C224DA842C9D005F5806554
:1014E000A84209D005F58065A84207D005F58065BA
:1014F000A842BBD00425BCE70125BAE70225B8E71E
:10150000164F0EF1020457F8245025EA060647F854
:101510002460144C256825EA03052560656825EAE2
:1015200003056560A56825EA0305A560E56825EA69
:101530000305E560A1E7061DA2E7A2F1080C4FEA4A
:101540008C05A0E7F0BD013231FA02F305D001238A
:1015500093400B40F7D0F0B5AFE770470000014073
:1015600000080140000401408368194201D00120B5
:101570007047002070470AB101617047090401619A
:101580007047000082B0084B1B68084AA2FB032387
:101590005B0A00FB03F3019300BF019B5A1E0192FB
:1015A000002BF9D102B0704708000020D34D621023
:1015B000002800F0F18170B582B00446036813F092
:1015C000010F2CD0994B5B6803F00C03042B1DD04A
:1015D000964B5B6803F00C03082B12D06368B3F5DD
:1015E000803F41D0002B55D103F1804303F50433F4
:1015F0001A6822F480321A601A6822F480221A6073
:1016000037E08A4B5B6813F4803FE7D0874B1B6859
:1016100013F4003F03D06368002B00F0BF81236800
:1016200013F0020F75D0814B5B6813F00C0F5FD085
:101630007E4B5B6803F00C03082B54D02369002B0E
:1016400000F08A807A4B01221A60FFF705FD0546FB
:10165000764B1B6813F0020F75D1FFF7FDFC401BA2
:101660000228F5D903209EE1704A136843F48033C1
:101670001360636843B3FFF7EFFC05466B4B1B68D1
:1016800013F4003FCBD1FFF7E7FC401B6428F5D9EA
:10169000032088E1B3F5A02F09D0644B1A6822F427
:1016A00080321A601A6822F480221A60E1E703F19E
:1016B0008043A3F53C331A6842F480221A601A680A
:1016C00042F480321A60D4E7FFF7C6FC0546574B58
:1016D0001B6813F4003FA2D0FFF7BEFC401B642838
:1016E000F5D903205FE1514B5B6813F4803FA5D12E
:1016F0004E4B1B6813F0020F03D02369012B40F0FF
:101700004F814A4A136823F0F803616943EAC10331
:101710001360236813F0080F33D0A369002B5CD04B
:10172000434B0122C3F88024FFF796FC05463F4B4C
:101730005B6A13F0020F21D1FFF78EFC401B0228D9
:10174000F5D903202FE1394A136823F0F8036169C2
:1017500043EAC1031360DCE7354B00221A60FFF750
:101760007BFC0546314B1B6813F0020FD1D0FFF70D
:1017700073FC401B0228F5D9032014E10120FFF778
:1017800001FF236813F0040F00F09680274BDB69FC
:1017900013F0805F34D1254BDA6942F08052DA6170
:1017A000DB6903F080530193019B0125214B1B68EA
:1017B00013F4807F26D0E368012B3DD0002B53D15A
:1017C00003F1804303F504331A6A22F001021A621E
:1017D0001A6A22F004021A6233E0154B0022C3F8A1
:1017E0008024FFF739FC0546104B5B6A13F0020FAB
:1017F000C7D0FFF731FC401B0228F5D90320D2E007
:101800000025D3E70B4A136843F480731360FFF796
:1018100023FC0646074B1B6813F4807FCBD1FFF7F0
:101820001BFC801B6428F5D90320BCE0001002409B
:1018300000004242007000405F4A136A43F0010317
:101840001362E36833B3FFF707FC06465A4B1B6A83
:1018500013F0020F2FD1FFF7FFFB801B41F28833FB
:101860009842F3D903209EE0052B09D0524B1A6A07
:1018700022F001021A621A6A22F004021A62E0E7F8
:101880004D4B1A6A42F004021A621A6A42F00102CF
:101890001A62D6E7FFF7E0FB0646474B1B6A13F0D8
:1018A000020F08D0FFF7D8FB801B41F28833984223
:1018B000F3D9032077E0E5B9E369002B72D03E4A03
:1018C000526802F00C02082A56D0022B17D03B4B6C
:1018D00000221A66FFF7C0FB0446374B1B6813F063
:1018E000007F47D0FFF7B8FB001B0228F5D9032083
:1018F00059E0314AD36923F08053D361DCE72F4BA1
:1019000000221A66FFF7A8FB05462B4B1B6813F055
:10191000007F06D0FFF7A0FB401B0228F5D903206B
:1019200041E0236AB3F5803F1AD023494B6823F482
:101930007413226A606A024313434B601F4B0122F7
:101940001A66FFF789FB04461B4B1B6813F0007FE8
:101950000ED1FFF781FB001B0228F5D9032022E0FE
:10196000154A536823F40033A1680B435360DCE746
:10197000002018E0002016E0012B16D00E4B5B680B
:1019800003F48031226A914211D103F47013626A28
:1019900093420ED1002006E001207047012002E0B2
:1019A000012000E0002002B070BD0120FBE7012013
:1019B000F9E70120F7E700BF0010024000004242B3
:1019C00086B0174B0FCB0DF1180C0CE90F0040F24D
:1019D0000123ADF80430134B5B6803F00C02082AB6
:1019E00002D0114806B07047C3F3834218326A44EC
:1019F00012F8100C13F4803F0DD00A4B5B68C3F350
:101A0000404318336B4413F8143C074A02FB00F0C0
:101A1000B0FBF3F0E6E7054B03FB00F0E2E700BFA5
:101A2000604A00080010024000127A0000093D00E0
:101A3000002800F0A08070B50D460446524B1B688C
:101A400003F007038B420BD24F4A136823F00703BE
:101A50000B431360136803F007038B4240F08D8043
:101A6000236813F0020F17D013F0040F04D0474A75
:101A7000536843F4E0635360236813F0080F04D005
:101A8000424A536843F460535360404A536823F01A
:101A9000F003A1680B435360236813F0010F31D0AA
:101AA0006368012B20D0022B25D0384A126812F02F
:101AB000020F64D035494A6822F0030213434B6099
:101AC000FFF7CAFA0646314B5B6803F00C03626805
:101AD000B3EB820F16D0FFF7BFFA801B41F28833B9
:101AE0009842F0D9032045E0284A126812F4003FDA
:101AF000E0D101203EE0254A126812F0007FD9D1E2
:101B0000012037E0204B1B6803F00703AB420AD9E2
:101B10001D4A136823F007032B431360136803F077
:101B20000703AB422DD1236813F0040F06D0174AE8
:101B3000536823F4E063E1680B435360236813F0B8
:101B4000080F07D0114A536823F46053216943EA10
:101B5000C1035360FFF734FF0C4B5B68C3F30313FF
:101B60000B4AD35CD8400B4B18600B4B1868FFF73F
:101B70002FFA002070BD012070470120FAE70120F4
:101B8000F8E70120F6E700BF002002400010024005
:101B9000744A00080800002004000020014B186867
:101BA000704700BF0800002008B5FFF7F7FF044B9F
:101BB0005B68C3F30223034AD35CD84008BD00BF6F
:101BC00000100240844A000808B5FFF7E7FF044B05
:101BD0005B68C3F3C223034AD35CD84008BD00BF8F
:101BE00000100240844A000890F83D30DBB2012B1F
:101BF00027D1022380F83D300268D36843F0010307
:101C0000D3600368114A934210D0B3F1804F0DD0D6
:101C1000A2F59432934209D002F58062934205D036
:101C20001A6842F001021A60002070479A6802F0B8
:101C30000702062A07D01A6842F001021A60002043
:101C40007047012070470020704700BF002C014002
:101C5000704770477047704710B5044603681A69AB
:101C600012F0020F11D0DA6812F0020F0DD06FF0EF
:101C700002021A610123037703689B6913F0030FC3
:101C800070D0FFF7E6FF0023237723681A6912F06C
:101C9000040F12D0DA6812F0040F0ED06FF00402B5
:101CA0001A610223237723689B6913F4407F5FD076
:101CB0002046FFF7CEFF0023237723681A6912F02E
:101CC000080F12D0DA6812F0080F0ED06FF0080279
:101CD0001A61042323772368DB6913F0030F4ED0C6
:101CE0002046FFF7B6FF0023237723681A6912F016
:101CF000100F12D0DA6812F0100F0ED06FF0100231
:101D00001A61082323772368DB6913F4407F3DD0F1
:101D10002046FFF79EFF0023237723681A6912F0FD
:101D2000010F03D0DA6812F0010F36D123681A6967
:101D300012F0800F03D0DA6812F0800F34D12368DC
:101D40001A6912F0400F03D0DA6812F0400F32D156
:101D500023681A6912F0200F03D0DA6812F0200FFE
:101D600030D110BDFFF774FF2046FFF773FF8AE7FD
:101D70002046FFF76DFF2046FFF76CFF9BE72046EC
:101D8000FFF766FF2046FFF765FFACE72046FFF749
:101D90005FFF2046FFF75EFFBDE76FF001021A61AB
:101DA000204600F09BFDC1E76FF080021A612046DB
:101DB00000F077F8C3E76FF040021A612046FFF7A2
:101DC0004AFFC5E76FF020021A61204600F068F86C
:101DD000C7E7000003681B4A90420AD0B0F1804F69
:101DE00007D0A2F59432904203D002F5806290426F
:101DF00003D123F070034A681343124A90420AD079
:101E0000B0F1804F07D0A2F59432904203D002F592
:101E10008062904203D123F44073CA68134323F0D5
:101E200080034A69134303608B68C3620B68836253
:101E3000044B984202D00123436170470B6903634E
:101E4000F9E700BF002C014040B310B5044690F8FC
:101E50003D30F3B1022384F83D30214651F8040BA4
:101E6000FFF7B8FF012384F8463084F83E3084F849
:101E70003F3084F8403084F8413084F8423084F8B0
:101E8000433084F8443084F8453084F83D300020F5
:101E900010BD80F83C3000F037FCDBE701207047D4
:101EA000704770470268D36823F49073D360026868
:101EB000536923F001035361036B012B05D02023E9
:101EC00080F83E300023036370470268D36823F034
:101ED0001003D360F3E790F83D30DBB2212B01D043
:101EE000022070478368B3F5805F17D0036A5A1CDD
:101EF00002621A7803685A60C38C9BB2013B9BB2A2
:101F0000C3844BB90268D36823F08003D3600268AE
:101F1000D36843F04003D360002070470369002B6F
:101F2000E4D1036A1B880268C3F308035360036AA1
:101F300002330362E0E7000010B50446026813694B
:101F400023F44053C1680B43136183680269134350
:101F500042691A430168CB6823F4B05323F00C03A1
:101F60001343CB600268536923F4407381690B43C8
:101F700053610268134B9A4220D0FFF715FE0246C8
:101F800002EB820202EB820263689B00B2FBF3F277
:101F90000D48A0FB02314909642303FB11231B01F7
:101FA0003233A0FB03235B0903F0F00202EB0112C2
:101FB00003F00F03216813448B6010BDFFF704FE8C
:101FC0000246DDE7003801401F85EB512DE9F8435B
:101FD00005460F4616469946DDF820802C68246891
:101FE00037EA04030CBF4FF0010C4FF0000CB4456E
:101FF0001FD1B8F1FF3FF1D0B8F1000F05D0FFF7C6
:102000002BF8A0EB09004045E8D92A68D36823F4EF
:10201000D073D3602A68536923F0010353612023EE
:1020200085F83D3085F83E30002385F83C300320AC
:1020300000E00020BDE8F88358B310B5044690F8DE
:102040003D300BB3242384F83D302268D36823F459
:102050000053D3602046FFF76FFF2268136923F413
:10206000904313612268536923F02A035361226865
:10207000D36843F40053D36000202064202384F805
:102080003D3084F83E3010BD80F83C3000F0DCFC80
:10209000D8E7012070477047A8B110B50446242343
:1020A00080F83D300268D36823F40053D360FFF713
:1020B000F2FF0020206484F83D0084F83E00206395
:1020C00084F83C0010BD012070472DE9F04182B03A
:1020D0001E4690F83D30DBB2202B54D104460D460D
:1020E0009046002953D0002A53D090F83C30012B61
:1020F00051D0012380F83C3000230364212380F871
:102100003D30FEF7A9FF0746A4F82480A4F82680F6
:10211000A368B3F5805F05D04FF00008002384F872
:102120003C3012E0236913B14FF00008F6E7A846EF
:102130000025F3E738F8023B2268C3F30803536035
:10214000E28C92B2013A92B2E284E38C9BB273B118
:1021500000963B46002280212046FFF737FFE0B97A
:10216000002DE7D015F8012B23685A60E8E70096A8
:102170003B46002240212046FFF728FF78B9202364
:1021800084F83D3000E0022002B0BDE8F08101207B
:10219000FAE70120F8E70220F6E70320F4E703203E
:1021A000F2E708B50168CA6822F04002CA6020223E
:1021B00080F83D2000F08CFC002008BD704708B579
:1021C000406A0023C385C384FFF7F8FF08BD70474A
:1021D00090F83E30DBB2222B60D18368B3F5805F8C
:1021E00046D0826AB3F5805F04D0002B4DD10369DD
:1021F000002B4AD103685B681370836A01338362E2
:10220000C38D9BB2013B9BB2C385002B48D100B567
:1022100083B00268D36823F02003D3600268D368D8
:1022200023F48073D3600268536923F00103536180
:10223000202380F83E30036B012B2CD10023036355
:102240000268D36823F01003D36003681A6812F0A1
:10225000100F06D0002201921A6801925B68019368
:10226000019B818DFFF7B3FF002003B05DF804FBF5
:102270000269002AB5D1826A03685B68C3F3080368
:102280001380836A02338362BAE703685B6803F0F2
:102290007F031370B1E700F01DFCE5E702207047F3
:1022A0000020704730B583B0044602681368D068D8
:1022B000516913F00F0505D113F0200F02D010F073
:1022C000200F19D12DB111F0010119D110F4907F17
:1022D00016D1216B012975D013F0800F03D010F0B7
:1022E000800F40F0D78013F0400F03D010F0400F64
:1022F00040F0D48003B030BD2046FFF769FFF9E716
:1023000013F0010F06D010F4807F03D0226C42F04E
:102310000102226413F0040F04D019B1226C42F0C0
:102320000202226413F0020F04D019B1226C42F0B1
:102330000402226413F0080F07D010F0200F00D120
:1023400019B1226C42F008022264226C002AD1D01A
:1023500013F0200F02D010F0200F21D123685B6909
:1023600003F04003226C12F0080F00D123B3204683
:10237000FFF798FD23685A6912F0400F18D05A6988
:1023800022F040025A61A36B73B1464A5A63A06BB4
:10239000FEF70CFF0028ADD0A06B436B9847A9E770
:1023A0002046FFF715FFD9E72046FFF707FFA1E713
:1023B0002046FFF703FF9DE72046FFF7FFFE0023BF
:1023C000236497E713F0100F86D010F0100F83D01E
:1023D000002301931368019353680193019B536990
:1023E00013F0400F32D0A16B0B685B689BB2002BDF
:1023F00080D0A08D98427FF67DAFE3858B69202B3E
:1024000008D1A18DE38D9BB2C91A89B22046FFF78E
:10241000DEFE6FE7D36823F48073D36022685369CC
:1024200023F0010353612268536923F04003536191
:10243000202384F83E30002323632268D36823F0EE
:102440001003D360A06BFEF78DFEDAE7A18DE38D5C
:102450009BB2C91A89B2E38D9BB2002B3FF44AAFFD
:1024600000293FF447AFD36823F49073D360226808
:10247000536923F001035361202384F83E30002385
:1024800023632268D36823F01003D3602046FFF74C
:102490009EFE2FE72046FFF71EFD2BE72046FFF7A5
:1024A00080FE27E7BF210008034681628285C2853E
:1024B00000201864222283F83E2083F83C0019682B
:1024C000CA6842F48072CA6019684A6942F001021F
:1024D0004A611A68D36843F02003D360704708B597
:1024E00090F83E30DBB2202B0DD171B17AB190F86B
:1024F0003C30012B0DD0012380F83C3000230363D6
:10250000FFF7D2FF00E0022008BD0120FCE7012018
:10251000FAE70220F8E770471C2A46D870B588B061
:10252000D61C06F120030DEB0304002304F8203C25
:1025300088248DF80040AA248DF801408DF8010010
:102540008DF8022007E0CC5C03F12300684400F81A
:10255000204C0133DBB29342F5D300230FE006F1A8
:1025600020010DEB010010F8201C03F120046C4445
:1025700014F8204C214400F8201C0133DBB2911CDC
:102580009942ECDA00250BE04FF6FF7301220DEBC8
:1025900004010648FFF799FD0028F5D10135EDB299
:1025A0002C46AE42F0DA08B070BD70470809002032
:1025B00010B584B0BDF918E0BDF91CC004128DF847
:1025C00004408DF8050008128DF806008DF80710FC
:1025D00011128DF808108DF809201A128DF80A20B2
:1025E0008DF80B309DF919308DF80C308DF80DE019
:1025F0009DF91D308DF80E308DF80FC00C2201A909
:10260000A120FFF789FF04B010BDF0B589B0BDF976
:102610003870BDF93C60BDF94050BDF944E0BDF9EA
:1026200048C00024019402940394049405940694F1
:10263000079404128DF804408DF8050008128DF8F7
:1026400006008DF8071011128DF808108DF809207A
:102650001A128DF80A208DF80B309DF939308DF85B
:102660000C308DF80D709DF93D308DF80E308DF8E1
:102670000F609DF941308DF816308DF817509DF997
:1026800045308DF818308DF819E09DF949308DF8F6
:102690001A308DF81BC01C2201A9AF20FFF73CFFA8
:1026A00009B0F0BD00B591B000210B910C910D91D6
:1026B0000E910F91282201A800F0F8FD012201924D
:1026C0004FF4803302930592102206920222089260
:1026D00009934FF4E0130A9301A8FEF769FF00B1D4
:1026E000FEE70F230B9302210C9100230D930F9310
:1026F0004FF480630E930BA8FFF79AF900B1FEE741
:1027000011B05DF804FB000002680E4B9A4200D045
:10271000704700B583B003F50333DA6942F0020273
:10272000DA61DB6903F002030193019B0022114689
:102730001D20FEF7BDFC1D20FEF7F2FC03B05DF886
:1027400004FB00BF0004004010B50A4C0A4B236094
:1027500041F61F4363600023A3606422E2602361AB
:102760008023A3612046FFF76FFB2046FFF73CFA6A
:1027700010BD00BFB40800200004004000000000AD
:1027800080B586B0FEF74AFCFFF78CFF00F036F903
:102790004B4800F0ADF8FFF7D7FF00F01EFB00F04C
:1027A000BBFC00F027FD474CE5682069FDF734FECF
:1027B00006460F462846FDF72FFE32463B4601F0FF
:1027C000F5FD0022404BFDF77FFE3BA3D3E900233C
:1027D000FDF7A4FFFEF78AF8DFF8F080C8F80400E0
:1027E000D4F80890E0680146FEF7DEF90546206956
:1027F0000146FEF7D9F901462846FEF7CDF8FDF768
:102800000BFE01F0D5FD06460F464846FDF704FED7
:1028100032463B4601F0CAFD00222B4B01F1004736
:102820003946FDF751FE24A3D3E90023FDF776FFD7
:10283000FEF75CF8C8F80000254DB5F904300193A7
:10284000B5F902300093B5F90030B4F90420B4F9B9
:102850000210B4F90000FFF7ABFE1E49D8F80400DF
:10286000FEF7A2F9FEF7F0FA06461A49D8F800007A
:10287000FEF79AF9FEF7E8FA07461749D8F8080074
:10288000FEF792F9FEF7E0FA00B204903FB2039728
:1028900036B20296B5F904300193B5F902300093CF
:1028A000B5F90030B4F90420B4F90210B4F900000D
:1028B000FFF7ABFE73E700BF1F85EB51B81E094061
:1028C000080900206C090020008066408009002073
:1028D0008C0900200000C842000020417047000021
:1028E00008B50248FFF7B8F908BD00BFB4080020DA
:1028F00008B5054B1860054B1868002302221946DD
:10290000806800F025FD08BDFC0800205400002070
:1029100038B50D461446013801280BD84FF6FF7321
:10292000A2B2294605480068FFF7CFFB0028F5D181
:10293000204638BD4FF0FF34FAE700BFFC08002006
:10294000022801D80020704708B500F085FC092353
:1029500003604FF0FF3008BD08B500F07DFC09238F
:1029600003604FF0FF3008BD08B518B9002343B924
:10297000012008BD00F070FC092303604FF0FF3018
:10298000F7E70520F5E708B5022804D84FF400530F
:102990004B60002008BD00F05FFC09230360F8E7EE
:1029A00070477047FEE7FEE7FEE7FEE770477047B7
:1029B000704708B5FEF744FB08BD000008B50346A4
:1029C0000B4A126842B10A4A106803446A469342AD
:1029D00006D8074A136008BD054A06491160F2E7A8
:1029E00000F03AFC0C2303604FF0FF30F3E700BF28
:1029F00000090020E8090020FEE7000008B50F48A4
:102A00000F4B03604FF4E133436000238360C360E6
:102A1000036183610C234361FFF73EFB48B907481C
:102A2000FFF70AFB38B9012206490448FFF757FDB2
:102A300008BDFFF7E1FFFFF7DFFF00BF0809002037
:102A4000003801400409002030B589B01E4B9A6956
:102A500042F004029A619A6902F004020192019A1A
:102A60009A6942F004029A619A6902F004020292A1
:102A7000029A9A6942F480429A619B6903F4804306
:102A80000393039B4FF400730493022305930123E4
:102A90000693032307930D4D04A92846FEF7D2FBA6
:102AA0004FF4806304930024059404A92846FEF79C
:102AB000C9FB224621462520FEF7FAFA2520FEF71B
:102AC0002FFB09B030BD00BF0010024000080140DC
:102AD000704700000268094B9A4200D07047084ACC
:102AE0001378084908780849C8540133DBB21370D9
:102AF0001F2BF3D9134600221A70EFE7003801406C
:102B000005090020040900204C09002010B5054CDF
:102B10002046FFF7C7FB012203492046FFF7DFFCF1
:102B200010BD00BF08090020040900200C480D4911
:102B30000D4A002302E0D458C4500433C4188C4218
:102B4000F9D30A4A0A4C002301E013600432A2427E
:102B5000FBD3FFF7E0FC00F085FBFFF711FE7047A9
:102B600000000020940800200C4B0008940800206E
:102B7000E8090020FEE7F8B506460F4614461D4654
:102B800000F0C8F9700000F0FE0000F065FA00F0F7
:102B900001FA78B9384600F05FFA00F0FBF900F06E
:102BA000B9F9700040F00100C0B200F055FA00F031
:102BB000F1F90AE000F0CEF9012011E0002000F068
:102BC0007DFA2870013CE4B2013534B1012CF5D016
:102BD000012000F073FA2870F4E700F0BBF92046FA
:102BE000F8BD00000000000000B583B001AB022278
:102BF00041216820FFF7BFFF9DF804301B021BB284
:102C00009DF805001843FDF7F5FB00220C4BFDF77E
:102C100085FD09A3D3E90023FDF7A0FAFDF766FEC1
:102C20000849FDF7C1FFFEF70FF900B203B05DF8E8
:102C300004FB00BFAFF30080A4703D0AD7434240BD
:102C4000004075400000C84270B582B006460D468F
:102C500014466B46062243216820FFF78CFFA0B97B
:102C60009DF800209DF8013043EA022333809DF84F
:102C700002209DF8033043EA02232B809DF80420B4
:102C80009DF8053043EA0223238002B070BD70B581
:102C900082B006460D4614466B4606223B2168204C
:102CA000FFF769FFA0B99DF800209DF8013043EAC5
:102CB000022333809DF802209DF8033043EA02236B
:102CC0002B809DF804209DF8053043EA02232380E1
:102CD00002B070BD38B505460C4600F01BF9D02097
:102CE00000F0BAF900F056F978B9284600F0B4F9C6
:102CF00000F050F9204600F0AFF900F04BF904461F
:102D000038B900F027F9204638BD00F023F9012436
:102D1000F9E700F01FF90124F5E708B5C10001F05B
:102D2000F8011B20FFF7D6FF08BD08B5C10001F070
:102D3000F8011C20FFF7CEFF08BD08B5BB2809D855
:102D400061280CD829280CD813280CD809280CD9AC
:102D5000052100E001211A20FFF7BCFF08BD022178
:102D6000F9E70321F7E70421F5E70621F3E710B5BA
:102D7000B0F57A7F04D80446032803D8042401E080
:102D80004FF47A744FF47A7191FBF4F1C9B20139BE
:102D9000C9B21920FFF79EFF6008FFF7CEFF10BDF4
:102DA00010B5044600F0B6F8D02000F055F900F058
:102DB000F1F8204600F050F900F0ECF800F0AAF825
:102DC000D12000F049F900F0E5F8002000F076F994
:102DD000044600F0BFF8204610BD08B500F038F8F2
:102DE00080216B20FFF776FF6420FEF73BF900217E
:102DF0006B20FFF76FFF0320FFF78FFF0020FFF727
:102E000094FF3220FFF7B3FF00213820FFF762FF65
:102E100000216A20FFF75EFF00212320FFF75AFF01
:102E200080213720FFF756FF7520FFF7B9FF68288C
:102E300001D0012008BD01216B20FFF74BFF0021CD
:102E40006C20FFF747FF3220FFF791FF0020F1E7EA
:102E5000F0B587B0154CA36943F00803A361A369DB
:102E600003F008030093009B0125039504950327B5
:102E700005974FF4806302930D4E02A93046FEF78A
:102E8000E1F9A36943F00803A361A36903F0080310
:102E90000193019B0395049505974FF400630293FA
:102EA00002A93046FEF7CEF907B0F0BD001002408F
:102EB000000C014010B584B0094C4FF4006120466D
:102EC000FEF7D2FA012301930293032303934FF4F5
:102ED0000063009369462046FEF7B4F904B010BDC4
:102EE000000C014010B584B0094C4FF4006120463D
:102EF000FEF7BAFA002301930293032303934FF4DE
:102F00000063009369462046FEF79CF904B010BDAB
:102F1000000C014010B5FFF7CDFF0D4C01224FF41E
:102F200000612046FEF727FB01224FF48061204616
:102F3000FEF721FB00224FF400612046FEF71BFB49
:102F400000224FF480612046FEF715FB10BD00BF44
:102F5000000C014010B5FFF7ADFF0D4C00224FF4FF
:102F600080612046FEF707FB00224FF400612046F7
:102F7000FEF701FB01224FF480612046FEF7FBFAC9
:102F800001224FF400612046FEF7F5FA10BD00BFA4
:102F9000000C014010B5FFF7A5FF0E4C01224FF4C5
:102FA00000612046FEF7E7FA01224FF480612046D7
:102FB000FEF7E1FA4FF400610648FEF7D5FA002863
:102FC000F8D100224FF480610248FEF7D4FA0020C5
:102FD00010BD00BF000C014010B50E4C00224FF494
:102FE00080612046FEF7C7FAFFF764FF00224FF426
:102FF00000612046FEF7BFFA01224FF480612046AF
:10300000FEF7B9FA00224FF480612046FEF7B3FACA
:1030100010BD00BF000C014010B50E4C00224FF453
:1030200080612046FEF7A7FAFFF744FF01224FF424
:1030300000612046FEF79FFA01224FF4806120468E
:10304000FEF799FA00224FF480612046FEF793FACA
:1030500010BD00BF000C014070B50446FFF72AFF09
:1030600000224FF480611448FEF785FA002516E02F
:1030700000224FF400611048FEF77DFA6400E4B2CC
:103080000D4E01224FF480613046FEF774FA0022A3
:103090004FF480613046FEF76EFA0135EDB2072D30
:1030A00009D814F0800FE3D001224FF400610248E8
:1030B000FEF761FAE2E770BD000C0140F8B5074683
:1030C000FFF710FF0024254601E00135EDB2072D82
:1030D00018D8104E00224FF480613046FEF74BFAAC
:1030E00001224FF480613046FEF745FA6400E4B2F5
:1030F0004FF400613046FEF737FA0028E5D001347E
:10310000E4B2E2E71FB9FFF787FF2046F8BDFFF7FB
:1031100063FFFAE7000C014038B5284D2A1DA91CB1
:103120002846FFF7B4FD264C221DA11C2046FFF7C0
:103130008BFDFFF759FDB5F90000FDF75BF90022A3
:10314000204BFDF7C1F9FDF7D1FBA860B5F90200EE
:10315000FDF750F900221B4BFDF7B6F9FDF7C6FB52
:10316000E860B5F90400FDF745F90022154BFDF7BD
:10317000ABF9FDF7BBFB2861B4F90000FDF73AF9A4
:103180000022114BFDF7A0F9FDF7B0FBA060B4F9E8
:103190000200FDF72FF900220B4BFDF795F9FDF723
:1031A000A5FBE060B4F90400FDF724F90022064B0A
:1031B000FDF78AF9FDF79AFB206138BD6C09002004
:1031C0008C0900200000103F0040AF3F70B504465E
:1031D00008466568A6682946FDF7DCFB01463046CF
:1031E000FDF7E2FC01462846FDF7D6FB2060606053
:1031F00070BD000010B5104CA1681048FFF7E6FF45
:10320000A060E1680E48FFF7E1FFE06021690D482A
:10321000FFF7DCFF20610C4CA1680C48FFF7D6FFDC
:10322000A060E1680A48FFF7D1FFE0602169094822
:10323000FFF7CCFF206110BD6C0900200C000020BE
:1032400018000020240000208C09002030000020FD
:103250003C00002048000020014B1868704700BF68
:103260005400002070B50D4E0D4D761BB61006D0E3
:10327000002455F8043B01349847A642F9D1094E81
:10328000094D01F0DFFB761BB61006D0002455F87F
:10329000043B01349847A642F9D170BD004B0008A9
:1032A000004B0008084B0008004B0008830730B5AE
:1032B00048D0541E002A3FD00346CAB201E0013C68
:1032C0003AD303F8012B9D07F9D1032C2DD9CDB2A8
:1032D00045EA05250F2C45EA054536D9A4F110022B
:1032E00022F00F0C03F1200EE6444FEA121C03F10A
:1032F000100242E9045542E9025510327245F8D1F4
:103300000CF1010214F00C0F03EB021204F00F0C8D
:1033100013D0ACF1040323F003030433134442F845
:10332000045B9342FBD10CF003042CB1CAB21C44E1
:1033300003F8012B9C42FBD130BD64461346002CA0
:10334000F4D1F9E703461446BFE71A46A446E0E77E
:103350002DE9F043694C0E46D4F800801746044628
:103360001D4683B0B8F1000F03D0D8F83830002BD9
:1033700077D0022F05D0012F00F2AC80002DC0F2D3
:10338000A980636EDA0752D52146404600F05AF90B
:10339000216B41B104F14003994202D0404600F054
:1033A0007DFA002323630023B4F90CC0A3611CF051
:1033B000800F636064D12CF44A6C2CF0030C022F54
:1033C000A4F80CC06AD001AB214640466A4600F022
:1033D00091FBA3891843A081002D2FD0002E2ED061
:1033E000D8F83830002B38D0009BC4E90465AB42D4
:1033F000B4F90C3026601CBF43F40063A381012F95
:1034000004BF43F00103A3819AB213F008032CD048
:10341000D1075DD500216D42A561656EA16015F0F3
:10342000010527D00025284603B0BDE8F083A38915
:103430009B05A9D4A06D00F059FBA5E7009D284687
:1034400000F088FB0646002847D0A38943F080039C
:10345000A381D8F83830002BC6D1404600F026F9B9
:10346000C2E7404600F022F983E7A360656E15F0DD
:103470000105D7D1930524D5284603B0BDE8F083D4
:103480004046216900F00AFAB4F90CC0022F2CF46E
:103490004A6C2CF0030CA4F80CC094D10025002138
:1034A000012204F1430323602361636E4CF0020C9C
:1034B000D807A4F80CC0A1606261DDD41CF4007FC1
:1034C000DAD1A06D00F014FB284603B0BDE8F0830C
:1034D000A560CBE74FF0FF35CEE7DDF80090A945BA
:1034E00004D0484600F036FB064620B94FF0FF35C1
:1034F000B4F90CC0D3E74D46A7E700BF5400002045
:10350000024B13B1024800F005B8704700000000FC
:10351000D1370008002301461A46184600F048BE7D
:10352000B1F90C20F8B50C461107074643D463687F
:1035300042F40062002BA2815BDDA56A002D56D00B
:1035400000233E683B6093B212F4805255D10123B0
:103550003846E169A847421C65D0A389A56A5B0784
:1035600005D56368C01A236B0BB1E36BC01A024622
:10357000E16900233846A847411C40D13B68002B35
:103580003DD01D2B01D0162B54D10022A38923F44A
:103590000063A3812369C4E90032216B3E6031B32B
:1035A00004F14003994202D0384600F077F9002335
:1035B00018462363F8BD2669CEB193B29A0718BFA7
:1035C0000023256808BF63692660AD1BA3600CE07B
:1035D0002B463246D4F824C03846E169E047B0F1C2
:1035E000000CA5EB0C05664416DD002DF0DC002078
:1035F000F8BDE36B002BA0DCF9E7206DAFE70022FC
:10360000B4F90C30626023F400632269A381DB0407
:103610002260C2D52065C0E7A3894FF0FF3043F098
:103620004003A381F8BD3B68002B96D01D2B06D02C
:10363000162B04D0A38943F04003A381F8BD0020DA
:103640003E60F8BD38B505460C4608B1836BA3B1A2
:10365000B4F90C00B8B1636EDB0701D4810515D550
:1036600028462146FFF75CFF636E0546DA0702D461
:10367000A3899B050ED5284638BD00F017F8B4F98C
:103680000C000028E7D10546284638BDA06D00F0A3
:103690002DFAE5E7A06D00F02BFA284638BD00BFF3
:1036A000014900F0FBB900BF614200082DE9F04775
:1036B0008246394800F01AFADAF83840002C66D110
:1036C000042303223549DAF80450CAF83C10DFF825
:1036D000D090DFF8D080344F344E0AF53B71CAE900
:1036E000B921CAF8E0422146EB600822C5E900444E
:1036F000C5E904446C66AC60AC6105F15C00FFF7A1
:10370000D5FDC5E90759C5E90987EE6205F15800FD
:1037100000F0E8F9DAF80850254B2146EB60082262
:10372000C5E90044C5E904446C66AC60AC6105F1D0
:103730005C00FFF7BBFDC5E90759C5E90987EE62E3
:1037400005F1580000F0CEF9DAF80C50194B21467B
:10375000EB600822C5E90044C5E904446C66AC602E
:10376000AC6105F15C00FFF7A1FD05F15800C5E96A
:103770000759C5E90A76C5F8248000F0B3F901239A
:103780000548CAF83830BDE8F04700F0B1B9024842
:10379000BDE8F04700F0ACB9AC090020A136000844
:1037A000F94000081D4100085D4100087D41000806
:1037B0000900010012000200014800F097B900BFA3
:1037C000A8090020014800F093B900BFA809002013
:1037D00038B5084B084D5B1B9C1007D0043B1D44BB
:1037E000013C55F804399847002CF9D1BDE8384020
:1037F00001F02EB90C4B0008084B0008F8B50C4638
:10380000234F064600F05AFCBB685D68C4F57E6332
:1038100025F003050F332B4423F47F6323F00F03BC
:10382000A3F58054B4F5805F07DB0021304600F03B
:1038300051FCBB682B44984204D0304600F044FC55
:103840000020F8BD3046614200F044FC01300DD04C
:10385000104ABB682D1B45F001055D6013683046BA
:103860001B1B136000F030FC0120F8BD0021304626
:1038700000F030FCBA68831A0F2BDEDD43F0010341
:103880005360054B03491B68C01A0860D5E700BFA9
:1038900084040020B00900208C08002000295ED09C
:1038A000F8B50C46064600F009FC54F8042C784F95
:1038B000A4F1080522F001016818D7F808C0436890
:1038C000844523F0030300F08780D207436034D49B
:1038D00054F8082C07F10804AD1A1144AA68A24252
:1038E00068D000EB030CDCF804E0D5F80CC01EF047
:1038F000010FC2F80CC0CCF8082000F0918041F014
:1039000001036B600160B1F5007F31D24A09CB0839
:10391000012191407A6801331143796007EBC302BA
:1039200057F83310083AC5E9021247F83350CD6012
:103930003046BDE8F84000F0C7BBC2185268D20755
:103940000ED4194407F108048368A34270D0C268FA
:10395000DA60936041F001036B606950D3E7704710
:1039600041F00103B1F5007F44F8043C0160CDD380
:10397000B1F5206F4FEA512347D28B0903F139008B
:1039800003F13802C300F818FB580838984258D0A1
:103990005A6822F003028A4202D99B689842F7D102
:1039A000D868C5E9023085603046DD60BDE8F84082
:1039B00000F08ABBC2185268D20763D40B44D0E926
:1039C0000212CA60916043F001026A603046EB5017
:1039D000BDE8F84000F078BB0B44D10707D454F899
:1039E000082CAD1A1344D5E90212CA60916043F065
:1039F00001026A60274ABD6012689A4298D8264B35
:103A000030461968FFF7FAFE92E7142B0AD9542BB7
:103A10001FD80B0B03F16F0003F16E02C300B2E776
:103A2000194491E703F15C0003F15B02C300AAE7CC
:103A300041F00103C7E90455C5E902446B606950D0
:103A400076E70121921001FA02F279680A437A605E
:103A5000A7E7B3F5AA7F06D8CB0B03F1780003F1F3
:103A60007702C3008FE740F25452934206D88B0C82
:103A700003F17D0003F17C02C30084E74FF47E7301
:103A80007E2280E741F001036B60016050E700BFD8
:103A90008404002090080020E00900202DE9F8436C
:103AA0004FF000090746884600F53876D6E90154FC
:103AB000013D10D4A389013D012B08D9B4F90E3082
:103AC000013304D021463846C04749EA00096B1C3F
:103AD00004F16804EED13668002EE7D14846BDE80F
:103AE000F88300BF704700BF704700BF704700BF3A
:103AF000704700BF70B50C46B1F90E10154600298D
:103B00001E4696B014DB6A4600F010FC00280FDB5E
:103B1000019A4FF4806302F47042A2F50052B2FAA7
:103B200082F24FF40060520932602B6016B070BD13
:103B30000023B4F90C10336011F0800004D040224F
:103B400018462A6016B070BD4FF480632B6016B023
:103B500070BD00BF024B0146186800F003B800BFFB
:103B6000540000202DE9F04F01F10B05162D0646FB
:103B700083B025D8102900F2B88000F09FFA1025F4
:103B800018224FF0020CB54F3A445368A2F10801D5
:103B90008B4200F0B7805A68D96822F003021A44B9
:103BA0009C683046E1608C60516803F1080441F084
:103BB0000101516000F088FA204603B0BDE8F08FA3
:103BC00035F0070500F19180A94200F28E8000F0E7
:103BD00075FAB5F5FC7FC0F094816B0A00F08C801B
:103BE000042B00F26A81AB0903F1390C03F13804AC
:103BF0004FEACC00994F384443680838984206D1C0
:103C00000CE0002980F22681DB68984206D05A68D1
:103C100022F00302511B0F29F3DDA4463C69DFF8B3
:103C200040E274457AD0626822F00302531B0F2BE6
:103C300000F37681002BC7E904EE80F26781B2F5CC
:103C4000007F80F019810121D30852090B44914073
:103C50007A6857F833000A4307EBC3010839A060BC
:103C6000E1607A6047F83340C46001214FEAAC0359
:103C70009940914259D8114206D12CF0030C4900C9
:103C800011420CF1040CFAD007EBCC09484664460B
:103C9000D0F80C80404508D11CE1002B80F2218136
:103CA000D8F80C80404500F01581D8F8042022F0A7
:103CB0000302531B0F2BF0DD08EB050145F0010556
:103CC000C8F804503046D8E90264F460A66043F0B6
:103CD0000104C7E904114C60C1E902EE48F8023062
:103CE00000F0F2F908F1080402E00C23002433602C
:103CF000204603B0BDE8F08F4FF400704FF0400C49
:103D00003F2477E7D3689A4208BF0CF1020C7FF496
:103D100042AF3C69DFF848E1744584D101217A68FB
:103D20004FEAAC0399409142A5D9BC68636823F07F
:103D300003094D4503D8A9EB05030F2B7ADCDFF807
:103D400024B1494BDBF800201B6801322B4404EB03
:103D5000090A00F02F8103F580530F3323F47F68A5
:103D600028F00F084146304600F0B4F9411C0246E5
:103D700000F0EF80824500F2EA803C4B1968414434
:103D80000846196000F04981DBF800100193013109
:103D90001BBFA2EB0A0A5044CBF80020186012F0B7
:103DA000070B00F01181CBF108010A44CBF58051DB
:103DB00090440831A1EB0801C1F30B0A514630468B
:103DC000009200F087F9421CDDE9002300F04B81EE
:103DD000801A00EB0A08196848F001005144BC42FF
:103DE000BA601960506000F02481B9F10F0F40F201
:103DF00022814FF0050E6068A9F10C0C2CF0070C25
:103E000000F0010040EA0C006060BCF10F0F04EB11
:103E10000C00C0E901EE00F22E8114465068144BEC
:103E20001A688A4238BF1960124B1A688A4238BF32
:103E3000196090E0621943F0010345F001056560E7
:103E40003046BA600834536000F03EF9204603B0B3
:103E5000BDE8F08FD9681A44A2E600BF84040020B0
:103E60008C0400208C080020E0090020B00900200C
:103E7000D8090020DC090020B2F5206F4FEA522358
:103E80005FD3142B00F2B18003F15C01C9005B33F6
:103E9000781879580838884200F08F804B6823F0F2
:103EA0000303934202D989688842F7D1C8687A68C7
:103EB000C4E902108460CC60D7E6142B59D9542B86
:103EC00000F29B802B0B03F16F0C03F16E044FEAA1
:103ED000CC008FE60134A30700F108007FF4D8AED0
:103EE00053E0444642445368D8F80C1043F00103B1
:103EF000536054F8083F3046D9608B6000F0E4F816
:103F0000F6E64FEAD50C05F108023CE62244536878
:103F1000304643F00103536000F0D6F80834E7E67A
:103F2000611945F00105656043F00105C7E9041119
:103F30003046C1E902EE4D60A35000F0C5F80834E8
:103F4000D6E6930903F13901C9003833A0E7BC4232
:103F50005ED0BC68606820F003084545A8EB050307
:103F600002D80F2B3FF766AF304600F0ADF80024C3
:103F7000BEE603F15C0C03F15B044FEACC0039E6CA
:103F800059F808394B4540F095801CF0030F0CF1AF
:103F9000FF3CF5D17B6823EA01037B60490099422D
:103FA0003FF6C3AE11B9C0E6490004341942FBD054
:103FB000A44669E603F11008D4E601229B109A405A
:103FC0007B681A437A6073E702EB08014942C1F348
:103FD0000B0A51463046009200F07CF8431CDDE9A4
:103FE00000237FF4F5AEDA46F5E6542B26D8130B02
:103FF00003F16F01C9006E334AE7B3F5AA7F26D8F3
:10400000EB0B03F1780C03F177044FEACC00F1E5F8
:10401000294B186840441860B6E6CAF30B0CBCF193
:10402000000F7FF4B1AEBC68C84448F00100606086
:10403000F5E61446F3E60123536095E7B3F5AA7F4E
:1040400024D8D30B03F17801C900773320E740F27D
:104050005452934224D8AB0C03F17D0C03F17C0441
:104060004FEACC00C6E5ABF1080BD8444FF0000A8C
:10407000A8EB0208AFE604F1080130460093FFF711
:104080000DFCBC68009B60681968C8E640F254519A
:104090008B420BD8930C03F17D01C9007C33F7E60A
:1040A0004FF47E704FF07F0C7E24A3E54FF47E71B9
:1040B0007E23EDE67B6871E7B00900200148FFF739
:1040C00015BD00BFA40900200148FFF711BD00BFC6
:1040D000A4090020002238B5064D044608462A608F
:1040E000FEF76CFC431C00D038BD2B68002BFBD0C6
:1040F000236038BDE409002010B50C46B1F90E105C
:1041000000F03EF9002803DB236D0344236510BD56
:10411000A38923F48053A38110BD00BF2DE9F04192
:104120000C46B1F90C101F46CB05054616460BD4BC
:1041300021F48051A1813B4632462846B4F90E1045
:10414000BDE8F04100F01EB8B4F90E1002230022C1
:1041500000F000F9B4F90C10EAE700BF10B50C4606
:10416000B1F90E1000F0F6F8A389421C0EBF23F43B
:10417000805343F480532065A38110BDB1F90E1024
:1041800000F05CB838B50C46114600228446074D55
:1041900020462A601A466446FEF7BAFB431C00D04C
:1041A00038BD2B68002BFBD0236038BDE40900200C
:1041B0002DE9F047DFF87CA00646DAF800009846C3
:1041C0000F469146FFF792FC1B4B1B68D3F8484102
:1041D00024B365681F2D26DC5EB96B1C0235DAF846
:1041E0000000636044F82570FFF782FC0020BDE802
:1041F000F087012304EB8501C1F88890D4F8882169
:10420000AB401A43022EC4F88821C1F80881E4D1DA
:10421000D4F88C211343C4F88C31DEE703F5A6747F
:10422000C3F84841D5E7DAF80000FFF761FC4FF02A
:10423000FF30DCE7800400208C4A0008002238B5FB
:10424000064D044608462A60FEF77AFB431C00D060
:1042500038BD2B68002BFBD0236038BDE40900205B
:1042600070B500294BD006460C4610B1836B002B6D
:1042700048D0636ED80734D5B4F90C30002B3ED04B
:1042800021463046FFF74CF9E36A054633B1304624
:10429000E16998470028B8BF4FF0FF35A3891A0697
:1042A0003BD4216B41B104F14003994202D0304626
:1042B000FFF7F4FA00232363616C21B13046FFF766
:1042C000EDFA00236364FFF777FA0022636EA281A0
:1042D000DB0727D5A06DFFF707FCFFF773FA284629
:1042E00070BDA3899905CBD4A06DFFF7FFFBB4F98E
:1042F0000C30002BC4D1656E15F0010508D00025E7
:10430000284670BDFFF7D2F9636ED807B4D4E8E74A
:10431000A06DFFF7EDFB284670BD30462169FFF721
:10432000BDFABEE7A06DFFF7E3FBD3E770B500264B
:10433000074D0446084611462E60FEF724FB431C39
:1043400000D070BD2B68002BFBD0236070BD00BF78
:10435000E409002038B50C46114600228446074D7A
:1043600020462A601A466446FEF7F6FA431C00D03F
:1043700038BD2B68002BFBD0236038BDE40900203A
:1043800038B50C46114600228446074D20462A6067
:104390001A466446FEF7E8FA431C00D038BD2B6885
:1043A000002BFBD0236038BDE409002000F028B8C2
:1043B000F8B504460D4600F0EDF8224606460F46D5
:1043C0002B4620462946FCF7EDFD30B9204629460C
:1043D00000220023FCF7BEFD10B930463946F8BD77
:1043E000FEF73AFF00220023212101601046194602
:1043F000FCF794F906460F4630463946F8BD00BF33
:104400009C462DE9F84F53425F4C13432CF0004972
:1044100049EAD373A342964607460E463DD8454225
:10442000054321F0004A4AEAD575A54203468B466A
:1044300033D80CF1404505F5801515433DD04FEAC2
:10444000AC7505F002055AEA030345EAD1752CD094
:1044500059EA020335D0A14546D0A24531D0AAEB96
:104460000909B9F1747F4FEA295339DABCF1000F19
:1044700046DA3C3344DA00200021012D58D0022DC9
:1044800049D085B134A3D3E90023FBF765FE34A3FB
:10449000D3E90023FBF760FE05E03A46704661462B
:1044A0003346FBF75BFEBDE8F88F022D10D0032DDD
:1044B000F9D12DA1D1E90001F5E7BDE8F84F00F0F1
:1044C0002FB9BBF1000F07DB29A1D1E90001EAE711
:1044D00023A1D1E90001E6E727A1D1E90001E2E744
:1044E00023A1D1E90001C8E7CA4505F1FF3523D072
:1044F000022D29D8254B03EBC505D5E90001D2E7EC
:104500007246634638463146FCF708F900F096FAE1
:1045100000F006F9B1E710A3D3E90023FBF71CFE76
:1045200002460B460EA1D1E90001FBF715FEBAE7E2
:1045300001F100431946B6E7022D08D8144B03EBEE
:10454000C505D5E90001AEE700200021ABE70CA1CD
:10455000D1E90001A7E700BF075C143326A6A13C00
:10456000182D4454FB210940182D4454FB2109C047
:10457000182D4454FB21F93F182D4454FB21F9BF59
:10458000182D4454FB21E93F0000F07FA84A0008A1
:10459000904A00082DE9F843604E054636EA0102CC
:1045A0000C4600F09E8000290B46844654DD091518
:1045B00062D0C3F31303C807A1F2FF3743F480139B
:1045C00004D45B0003EBDC734FEA4C0C00264FEA8B
:1045D000DC7202EB43034FF0160E4FF40012344628
:1045E0007F104FEA4C0CA118994202DC5B1A8C1820
:1045F00016445B00BEF1010E03EBDC734FEA52027E
:104600004FEA4C0CEFD1754620204FF000420AE0F3
:1046100043D04FEADC71013801EB43034FEA4C0C05
:104620004FEA520242D0A34202EB0E01F0DD002914
:1046300001EB020E0ADBA0461B1B614588BF03F19C
:10464000FF334446ACEB010C1544E2E7BEF1000F2A
:10465000F1DB04F10108EFE721F00042024336D01C
:1046600000294CD14FEADC22134615394FEA4C5C45
:10467000002AF7D0D6024CD400205B00DD020446AD
:1046800000F10100F9D51A4663460CFA00FCC0F1AE
:104690002000C340091B13438BE76145B9D80029AB
:1046A00001EB020ED2DB98460023CAE753EA0C0363
:1046B00011D16808731003F17F5303F50013F2075B
:1046C00048BF40F0004003EB075905464C462846DA
:1046D0002146BDE8F883691C16BF681C01364008F6
:1046E000E8E702460B46FBF7EFFE2A462346FBF7B8
:1046F00035FD05460C4628462146BDE8F8830246AE
:10470000FBF72AFD02460B46FCF708F805460C4667
:10471000DDE7634620204FF0FF34BAE70000F07F6A
:104720002DE9F84FB84F21F00046BE4204460D4631
:104730008A461CDDB54B9E420DDC0AD0B44BB54A0F
:10474000B54CBAF1000FD8BF134620461946BDE854
:10475000F88F0028F2D022462B4620462946FBF748
:10476000FDFC04460B4620461946BDE8F88FAB4BCE
:104770009E4200F3B080A3F1DE739E4240F39D8021
:104780004FF0FF3B22462B4620462946FBF79CFE76
:1047900002460B4680468946FBF796FE82A3D3E984
:1047A000002306460F46FBF78FFE81A3D3E90023C3
:1047B000FBF7D4FC32463B46FBF786FE7EA3D3E9EB
:1047C0000023FBF7CBFC32463B46FBF77DFE7CA388
:1047D000D3E90023FBF7C2FC32463B46FBF774FEED
:1047E00079A3D3E90023FBF7B9FC32463B46FBF73C
:1047F0006BFE77A3D3E90023FBF7B0FC42464B46A0
:10480000FBF762FE74A3D3E9002380468946304655
:104810003946FBF759FE72A3D3E90023FBF79CFC52
:1048200032463B46FBF750FE6FA3D3E90023FBF76C
:1048300093FC32463B46FBF747FE6DA3D3E90023CA
:10484000FBF78AFC32463B46FBF73EFE6AA3D3E900
:104850000023FBF781FC32463B46FBF735FEBBF1FC
:10486000FF3F02460B464046494653D0FBF776FCD5
:104870006B4E22462B46FBF727FE6A4B06EBCB0618
:104880004FEACB0B9B44DBE90023FBF765FC224698
:104890002B46FBF761FC0B460246D6E90001FBF70D
:1048A0005BFCBAF1000F04460B46BFF64EAF01F1B8
:1048B000004320461946BDE8F88F51A3D3E90023F1
:1048C000FBF74CFC0022584BFCF762FB00283FF43E
:1048D00057AF2B4639E700F0B1F8544B04469E42DF
:1048E0000D4629DCA3F550239E4250DC02460B46C0
:1048F000FBF734FC00224C4BFBF72EFC02460B4628
:104900002046294614461D464FF0000B00224FF06A
:10491000804326E0FBF722FC22462B46FBF7D4FD22
:1049200002460B4620462946FBF716FC04460B467A
:1049300020461946BDE8F88F3D4B9E421CDA002206
:104940003C4BFBF709FC02460B4620462946144621
:104950001D460022374B4FF0020BFBF7B5FD00223E
:10496000314BFBF7FBFB02460B4620462946FBF783
:10497000D5FE04460D4605E702460B4600202E49AB
:10498000FBF7CCFE4FF0030B04460D46FAE600227F
:10499000254BFBF7E1FB02460B46204629464FF02C
:1049A000010B14461D46DAE711DA22E33AAD903FD7
:1049B000EB0D76244B7BA93F513DD0A0660DB13F56
:1049C0006E204CC5CD45B73FFF8300922449C23FBE
:1049D0000D5555555555D53F2F6C6A2C44B4A2BF83
:1049E0009AFDDE522DDEAD3F6D9A74AFF2B0B33F4B
:1049F000711623FEC671BC3FC4EB98999999C93FC3
:104A00009C7500883CE4377EFFFF0F440000F07F78
:104A1000FB21F93FFB21F9BF182D4454FFFFDB3F79
:104A2000C04A0008E04A00080000F03FFFFFF23FE4
:104A3000008003400000F83F0000F0BF21F000417B
:104A4000704700BFF8B500BFF8BC08BC9E46704771
:0C4A5000F8B500BFF8BC08BC9E467047DB
:104A600002030405060708090A0B0C0D0E0F1010AF
:104A7000000000000000000000000000010203042C
:104A80000607080900000000010203045800002086
:104A9000182D4454FB21E9BFD221337F7CD9024039
:104AA000D221337F7CD902C00000000000000080CA
:104AB000182D4454FB210940182D4454FB2109C0F2
:104AC0004FBB610567ACDD3F182D4454FB21E93F26
:104AD0009BF681D20B73EF3F182D4454FB21F93F15
:104AE000E2652F227F2B7A3C075C143326A6813C9B
:104AF000BDCBF07A8807703C075C143326A6913C46
:084B0000013500083501000831
:044B0800110100088F
:104B0C0001000000100000000024F4000000000070
:104B1C0000000000CDCCCC3E0000000000000000E6
:104B2C00CDCCCC3E0000000000000000CDCCCC3E33
:104B3C000000000000000000CDCCCC3E00000000C6
:104B4C0000000000CDCCCC3E0000000000000000B6
:104B5C00CDCCCC3E580000200000000044030020C7
:104B6C00AC03002014040020000000000000000032
:104B7C000000000000000000000000000000000029
:104B8C000000000000000000000000000000000019
:104B9C000000000000000000000000000000000009
:104BAC0000000000000000000000000000000000F9
:104BBC0000000000000000000000000000000000E9
:104BCC0000000000000000000000000000000000D9
:104BDC0000000000000000000000000000000000C9
:104BEC0000000000000000000000000000000000B9
:104BFC0000000000000000000000000000000000A9
:104C0C0001000000000000000E33CDAB34126DE645
:104C1C00ECDE05000B0000000000000000000000AE
:104C2C000000000000000000000000000000000078
:104C3C000000000000000000000000000000000068
:104C4C000000000000000000000000000000000058
:104C5C000000000000000000000000000000000048
:104F8C00A0090020000000000000000084040020A4
:104F9C00840400208C0400208C0400209404002045
:104FAC00940400209C0400209C040020A4040020F5
:104FBC00A4040020AC040020AC040020B4040020A5
:104FCC00B4040020BC040020BC040020C404002055
:104FDC00C4040020CC040020CC040020D404002005
:104FEC00D4040020DC040020DC040020E4040020B5
:104FFC00E4040020EC040020EC040020F404002065
:10500C00F4040020FC040020FC0400200405002013
:10501C00040500200C0500200C05002014050020C0
:10502C00140500201C0500201C0500202405002070
:10503C00240500202C0500202C0500203405002020
:10504C00340500203C0500203C05002044050020D0
:10505C00440500204C0500204C0500205405002080
:10506C00540500205C0500205C0500206405002030
:10507C00640500206C0500206C05002074050020E0
:10508C00740500207C0500207C0500208405002090
:10509C00840500208C0500208C0500209405002040
:1050AC00940500209C0500209C050020A4050020F0
:1050BC00A4050020AC050020AC050020B4050020A0
:1050CC00B4050020BC050020BC050020C405002050
:1050DC00C4050020CC050020CC050020D405002000
:1050EC00D4050020DC050020DC050020E4050020B0
:1050FC00E4050020EC050020EC050020F405002060
:10510C00F4050020FC050020FC050020040600200E
:10511C00040600200C0600200C06002014060020BB
:10512C00140600201C0600201C060020240600206B
:10513C00240600202C0600202C060020340600201B
:10514C00340600203C0600203C06002044060020CB
:10515C00440600204C0600204C060020540600207B
:10516C00540600205C0600205C060020640600202B
:10517C00640600206C0600206C06002074060020DB
:10518C00740600207C0600207C060020840600208B
:10519C00840600208C0600208C060020940600203B
:1051AC00940600209C0600209C060020A4060020EB
:1051BC00A4060020AC060020AC060020B40600209B
:1051CC00B4060020BC060020BC060020C40600204B
:1051DC00C4060020CC060020CC060020D4060020FB
:1051EC00D4060020DC060020DC060020E4060020AB
:1051FC00E4060020EC060020EC060020F40600205B
:10520C00F4060020FC060020FC0600200407002009
:10521C00040700200C0700200C07002014070020B6
:10522C00140700201C0700201C0700202407002066
:10523C00240700202C0700202C0700203407002016
:10524C00340700203C0700203C07002044070020C6
:10525C00440700204C0700204C0700205407002076
:10526C00540700205C0700205C0700206407002026
:10527C00640700206C0700206C07002074070020D6
:10528C00740700207C0700207C0700208407002086
:10529C00840700208C0700208C0700209407002036
:1052AC00940700209C0700209C070020A4070020E6
:1052BC00A4070020AC070020AC070020B407002096
:1052CC00B4070020BC070020BC070020C407002046
:1052DC00C4070020CC070020CC070020D4070020F6
:1052EC00D4070020DC070020DC070020E4070020A6
:1052FC00E4070020EC070020EC070020F407002056
:10530C00F4070020FC070020FC0700200408002004
:10531C00040800200C0800200C08002014080020B1
:10532C00140800201C0800201C0800202408002061
:10533C00240800202C0800202C0800203408002011
:10534C00340800203C0800203C08002044080020C1
:10535C00440800204C0800204C0800205408002071
:10536C00540800205C0800205C0800206408002021
:10537C00640800206C0800206C08002074080020D1
:10538C00740800207C0800207C080020FFFFFFFF31
:04539C00000002000B
:0400000508002B2D97
:00000001FF
