:020000040800F2
:10000000FF4F0020ED320008A3310008A5310008A1
:10001000A7310008A9310008AB310008000000003A
:10002000000000000000000000000000AD310008EA
:10003000AF31000800000000B1310008B331000802
:1000400035330008353300083533000835330008F0
:1000500035330008353300083533000835330008E0
:1000600035330008353300083533000835330008D0
:1000700035330008353300083533000835330008C0
:1000800035330008353300083533000835330008B0
:1000900035330008353300083533000835330008A0
:1000A0003533000835330008353300083533000890
:1000B00081310008353300089131000835330008DC
:1000C0003533000835330008353300083533000870
:1000D00035330008CD3200083533000835330008C9
:1000E00035330008353300083533000800000000C0
:1000F0000000000000000000000000000000000000
:0C01000000000000000000005FF808F1A3
:1001100010B5054C237833B9044B13B10448AFF341
:1001200000800123237010BD7C040020000000002B
:10013000706C000808B5034B1BB103490348AFF3CB
:10014000008008BD0000000080040020706C0008E2
:1001500081F0004102E000BF83F0004330B54FEA78
:1001600041044FEA430594EA050F08BF90EA020FE5
:100170001FBF54EA000C55EA020C7FEA645C7FEA78
:10018000655C00F0E2804FEA5454D4EB5555B8BF9B
:100190006D420CDD2C4480EA020281EA030382EA0C
:1001A000000083EA010180EA020281EA0303362D9E
:1001B00088BF30BD11F0004F4FEA01314FF4801C71
:1001C0004CEA113102D0404261EB410113F0004F83
:1001D0004FEA03334CEA133302D0524263EB43033A
:1001E00094EA050F00F0A780A4F10104D5F1200ED8
:1001F0000DDB02FA0EFC22FA05F2801841F1000133
:1002000003FA0EF2801843FA05F359410EE0A5F106
:1002100020050EF1200E012A03FA0EFC28BF4CF037
:10022000020C43FA05F3C01851EBE37101F00045ED
:1002300007D54FF0000EDCF1000C7EEB00006EEBFA
:100240000101B1F5801F1BD3B1F5001F0CD3490884
:100250005FEA30004FEA3C0C04F101044FEA4452DB
:1002600012F5800F80F09A80BCF1004F08BF5FEA62
:10027000500C50F1000041EB045141EA050130BD42
:100280005FEA4C0C404141EB0101013C28BFB1F554
:10029000801FE9D291F0000F04BF01460020B1FA9F
:1002A00081F308BF2033A3F10B03B3F120020CDA72
:1002B0000C3208DD02F1140CC2F10C0201FA0CF050
:1002C00021FA02F10CE002F11402D8BFC2F1200CB5
:1002D00001FA02F120FA0CFCDCBF41EA0C0190406B
:1002E000E41AA2BF01EB0451294330BD6FEA0404B4
:1002F0001F3C1CDA0C340EDC04F11404C4F120029F
:1003000020FA04F001FA02F340EA030021FA04F3B0
:1003100045EA030130BDC4F10C04C4F1200220FA07
:1003200002F001FA04F340EA0300294630BD21FA45
:1003300004F0294630BD94F0000F83F4801306BF0B
:1003400081F480110134013D4EE77FEA645C18BFFF
:100350007FEA655C29D094EA050F08BF90EA020F96
:1003600005D054EA000C04BF1946104630BD91EA8E
:10037000030F1EBF0021002030BD5FEA545C05D191
:100380004000494128BF41F0004130BD14F58004D0
:100390003CBF01F5801130BD01F0004545F0FE4144
:1003A00041F470014FF0000030BD7FEA645C1ABF79
:1003B000194610467FEA655C1CBF0B46024650EAB0
:1003C000013406BF52EA033591EA030F41F40021DC
:1003D00030BD00BF90F0000F04BF0021704730B562
:1003E0004FF4806404F132044FF000054FF0000137
:1003F00050E700BF90F0000F04BF0021704730B5F8
:100400004FF4806404F1320410F0004548BF4042CC
:100410004FF000013EE700BF42004FEAE2014FEA21
:1004200031014FEA02701FBF12F07F4393F07F4FFC
:1004300081F06051704732F07F4208BF704793F0FF
:100440007F4F04BF41F40021704730B54FF4607412
:1004500001F0004521F000411CE700BF50EA010215
:1004600008BF704730B54FF000050AE050EA0102BE
:1004700008BF704730B511F0004502D5404261EB2E
:1004800041014FF4806404F132045FEA915C3FF46F
:10049000D8AE4FF003025FEADC0C18BF03325FEA0C
:1004A000DC0C18BF033202EBDC02C2F1200300FABD
:1004B00003FC20FA02F001FA03FE40EA0E0021FAE2
:1004C00002F11444BDE600BF70B54FF0FF0C4CF4D0
:1004D000E06C1CEA11541DBF1CEA135594EA0C0F82
:1004E00095EA0C0F00F0DEF82C4481EA030621EABD
:1004F0004C5123EA4C5350EA013518BF52EA0335F8
:1005000041F4801143F4801338D0A0FB02CE4FF0A9
:100510000005E1FB02E506F00042E0FB03E54FF0D9
:100520000006E1FB03569CF0000F18BF4EF0010ED1
:10053000A4F1FF04B6F5007F64F5407404D25FEACD
:100540004E0E6D4146EB060642EAC62141EA555180
:100550004FEAC52040EA5E504FEACE2EB4F1FD0CC2
:1005600088BFBCF5E06F1ED8BEF1004F08BF5FEA40
:10057000500E50F1000041EB045170BD06F00046F2
:1005800046EA010140EA020081EA0301B4EB5C049F
:10059000C2BFD4EB0C0541EA045170BD41F4801197
:1005A0004FF0000E013C00F3AB8014F1360FDEBFBC
:1005B000002001F0004170BDC4F10004203C35DA98
:1005C0000C341BDC04F11404C4F1200500FA05F31B
:1005D00020FA04F001FA05F240EA020001F00042BC
:1005E00021F0004110EBD37021FA04F642EB060132
:1005F0005EEA430E08BF20EAD37070BDC4F10C045C
:10060000C4F1200500FA04F320FA05F001FA04F21F
:1006100040EA020001F0004110EBD37041F100010B
:100620005EEA430E08BF20EAD37070BDC4F1200516
:1006300000FA05F24EEA020E20FA04F301FA05F27E
:1006400043EA020321FA04F001F0004121FA04F226
:1006500020EA020000EBD3705EEA430E08BF20EAF6
:10066000D37070BD94F0000F0FD101F00046400030
:1006700041EB010111F4801F08BF013CF7D041EAB2
:10068000060195F0000F18BF704703F000465200B6
:1006900043EB030313F4801F08BF013DF7D043EA87
:1006A0000603704794EA0C0F0CEA135518BF95EA3D
:1006B0000C0F0CD050EA410618BF52EA4306D1D1C4
:1006C00081EA030101F000414FF0000070BD50EAE3
:1006D000410606BF1046194652EA430619D094EA6D
:1006E0000C0F02D150EA013613D195EA0C0F05D157
:1006F00052EA03361CBF104619460AD181EA0301AB
:1007000001F0004141F0FE4141F470014FF0000062
:1007100070BD41F0FE4141F4780170BD70B54FF0FD
:10072000FF0C4CF4E06C1CEA11541DBF1CEA13557D
:1007300094EA0C0F95EA0C0F00F0A7F8A4EB05045F
:1007400081EA030E52EA03354FEA013100F0888056
:100750004FEA03334FF0805545EA131343EA12631F
:100760004FEA022245EA111545EA10654FEA0026D4
:100770000EF000419D4208BF964244F1FD0404F58D
:10078000407402D25B084FEA3202B61A65EB0305E9
:100790005B084FEA32024FF480104FF4002CB6EBA6
:1007A000020E75EB030E22BFB61A754640EA0C0026
:1007B0005B084FEA3202B6EB020E75EB030E22BF66
:1007C000B61A754640EA5C005B084FEA3202B6EBA7
:1007D000020E75EB030E22BFB61A754640EA9C0066
:1007E0005B084FEA3202B6EB020E75EB030E22BF36
:1007F000B61A754640EADC0055EA060E18D04FEAF4
:10080000051545EA16754FEA06164FEAC30343EA93
:1008100052734FEAC2025FEA1C1CC0D111F4801F60
:100820000BD141EA00014FF000004FF0004CB6E759
:1008300011F4801F04BF01430020B4F1FD0C88BFF8
:10084000BCF5E06F3FF6AFAEB5EB030C04BFB6EB03
:10085000020C5FEA500C50F1000041EB045170BDF6
:100860000EF0004E4EEA113114EB5C04C2BFD4EB23
:100870000C0541EA045170BD41F480114FF0000EA7
:10088000013C90E645EA060E8DE60CEA135594EA23
:100890000C0F08BF95EA0C0F3FF43BAF94EA0C0F26
:1008A0000AD150EA01347FF434AF95EA0C0F7FF49B
:1008B00025AF104619462CE795EA0C0F06D152EAEF
:1008C00003353FF4FDAE1046194622E750EA4106D3
:1008D00018BF52EA43067FF4C5AE50EA41047FF4E4
:1008E0000DAF52EA43057FF4EBAE12E74FEA410247
:1008F000B2F1E04324BFB3F5001CDCF1FE5C0DD97E
:1009000001F0004C4FEAC0024CEA5070B2F1004FC7
:1009100040EB830008BF20F00100704711F0804FCA
:1009200021D113F13872BCBF01F00040704741F48F
:1009300080114FEA5252C2F11802C2F1200C10FA93
:100940000CF320FA02F018BF40F001004FEAC12377
:100950004FEAD32303FA0CFC40EA0C0023FA02F31B
:100960004FEA4303CCE77FEA625307D150EA0133F1
:100970001EBF4FF0FE4040F44000704701F00040C1
:1009800040F0FE4040F40000704700BF80F000409F
:1009900002E000BF81F0004142001FBF5FEA410357
:1009A00092EA030F7FEA226C7FEA236C6AD04FEA57
:1009B0001262D2EB1363C1BFD2184140484041409C
:1009C000B8BF5B42192B88BF704710F0004F40F44E
:1009D000000020F07F4018BF404211F0004F41F46A
:1009E000000121F07F4118BF494292EA030F3FD036
:1009F000A2F1010241FA03FC10EB0C00C3F1200349
:100A000001FA03F100F0004302D5494260EB4000D7
:100A1000B0F5000F13D3B0F1807F06D340084FEA42
:100A2000310102F10102FE2A51D2B1F1004F40EB37
:100A3000C25008BF20F0010040EA0300704749009F
:100A400040EB0000013A28BFB0F5000FEDD2B0FA3C
:100A500080FCACF1080CB2EB0C0200FA0CF0AABF5F
:100A600000EBC25052421843BCBFD04018437047FD
:100A700092F0000F81F4000106BF80F40000013203
:100A8000013BB5E74FEA41037FEA226C18BF7FEADA
:100A9000236C21D092EA030F04D092F0000F08BF1C
:100AA0000846704790EA010F1CBF0020704712F003
:100AB0007F4F04D1400028BF40F00040704712F142
:100AC00000723CBF00F50000704700F0004343F0A7
:100AD000FE4040F4000070477FEA226216BF0846DD
:100AE0007FEA23630146420206BF5FEA412390EAA0
:100AF000010F40F4800070474FF0000304E000BF96
:100B000010F0004348BF40425FEA000C08BF704746
:100B100043F0964301464FF000001CE050EA01020A
:100B200008BF70474FF000030AE000BF50EA01021F
:100B300008BF704711F0004302D5404261EB41010C
:100B40005FEA010C02BF84460146002043F0B64331
:100B500008BFA3F18053A3F50003BCFA8CF2083A56
:100B6000A3EBC25310DB01FA02FC634400FA02FC5F
:100B7000C2F12002BCF1004F20FA02F243EB020066
:100B800008BF20F00100704702F1200201FA02FCC8
:100B9000C2F1200250EA4C0021FA02F243EB0200BB
:100BA00008BF20EADC7070474FF0FF0C1CEAD052FF
:100BB0001EBF1CEAD15392EA0C0F93EA0C0F6FD0C0
:100BC0001A4480EA010C400218BF5FEA41211ED09E
:100BD0004FF0006343EA501043EA5111A0FB01318A
:100BE0000CF00040B1F5000F3EBF490041EAD3715F
:100BF0005B0040EA010062F17F02FD2A1DD8B3F1DB
:100C0000004F40EBC25008BF20F00100704790F049
:100C1000000F0CF0004C08BF49024CEA502040EA9B
:100C200051207F3AC2BFD2F1FF0340EAC250704761
:100C300040F400004FF00003013A5DDC12F1190F9F
:100C4000DCBF00F000407047C2F10002410021FA11
:100C500002F1C2F1200200FA02FC5FEA310040F129
:100C6000000053EA4C0308BF20EADC70704792F0A2
:100C7000000F00F0004C02BF400010F4000F013ADA
:100C8000F9D040EA0C0093F0000F01F0004C02BFD5
:100C9000490011F4000F013BF9D041EA0C018FE744
:100CA0000CEAD15392EA0C0F18BF93EA0C0F0AD04A
:100CB00030F0004C18BF31F0004CD8D180EA010070
:100CC00000F00040704790F0000F17BF90F0004F09
:100CD000084691F0000F91F0004F14D092EA0C0FEB
:100CE00001D142020FD193EA0C0F03D14B0218BF7E
:100CF000084608D180EA010000F0004040F0FE40C4
:100D000040F40000704740F0FE4040F4400070475F
:100D10004FF0FF0C1CEAD0521EBF1CEAD15392EADE
:100D20000C0F93EA0C0F69D0A2EB030280EA010CCE
:100D300049024FEA402037D04FF0805343EA111167
:100D400043EA10130CF000408B4238BF5B0042F1C5
:100D50007D024FF4000C8B4224BF5B1A40EA0C006A
:100D6000B3EB510F24BFA3EB510340EA5C00B3EB9C
:100D7000910F24BFA3EB910340EA9C00B3EBD10F8A
:100D800024BFA3EBD10340EADC001B0118BF5FEADC
:100D90001C1CE0D1FD2A3FF650AF8B4240EBC25005
:100DA00008BF20F0010070470CF0004C4CEA5020C6
:100DB0007F32C2BFD2F1FF0340EAC250704740F415
:100DC00000004FF00003013A37E792F0000F00F007
:100DD000004C02BF400010F4000F013AF9D040EA85
:100DE0000C0093F0000F01F0004C02BF490011F419
:100DF000000F013BF9D041EA0C0195E70CEAD15311
:100E000092EA0C0F08D142027FF47DAF93EA0C0FF7
:100E10007FF470AF084676E793EA0C0F04D14B02DB
:100E20003FF44CAF08466EE730F0004C18BF31F08D
:100E3000004CCAD130F000427FF45CAF31F0004387
:100E40007FF43CAF5FE700BF4FF0FF3C06E000BF20
:100E50004FF0010C02E000BF4FF0010C4DF804CD43
:100E60004FEA40024FEA41037FEA226C18BF7FEA53
:100E7000236C11D001B052EA530C18BF90EA010F55
:100E800058BFB2EB030088BFC81738BF6FEAE170E4
:100E900018BF40F0010070477FEA226C02D15FEA80
:100EA000402C05D17FEA236CE4D15FEA412CE1D0EC
:100EB0005DF8040B704700BF844608466146FFE7B3
:100EC0000FB5FFF7C9FF002848BF10F1000F0FBD95
:100ED0004DF808EDFFF7F4FF0CBF012000205DF88E
:100EE00008FB00BF4DF808EDFFF7EAFF34BF012013
:100EF00000205DF808FB00BF4DF808EDFFF7E0FFAC
:100F000094BF012000205DF808FB00BF4DF808EDFC
:100F1000FFF7D2FF94BF012000205DF808FB00BF5F
:100F20004DF808EDFFF7C8FF34BF012000205DF841
:100F300008FB00BF4FEA4002B2F1FE4F0FD34FF063
:100F40009E03B3EB12620DD94FEA002343F0004336
:100F500010F0004F23FA02F018BF404270474FF0E4
:100F60000000704712F1610F01D1420205D110F06B
:100F7000004008BF6FF0004070474FF0000070471E
:100F800042000ED2B2F1FE4F0BD34FF09E03B3EBF3
:100F9000126209D44FEA002343F0004323FA02F01F
:100FA00070474FF00000704712F1610F01D142020B
:100FB00002D14FF0FF3070474FF00000704700BF84
:100FC0007BB972B90029BEBF00204FF0004106E096
:100FD00008BF00281CBF6FF000414FF0FF3000F049
:100FE000A9B9ADF1080C6DE904CE002909DB002B8D
:100FF0001ADB00F035F8DDF804E0DDE9022304B087
:101000007047404261EB4101002B1BDB00F028F8E8
:10101000DDF804E0DDE9022304B0404261EB410168
:10102000524263EB43037047524263EB430300F0C9
:1010300017F8DDF804E0DDE9022304B0404261EB7B
:1010400041017047524263EB430300F009F8DDF8B9
:1010500004E0DDE9022304B0524263EB430370472E
:101060002DE9F047089E0D4604468846002B4DD1D9
:101070008A42944668D9B2FA82F252B101FA02F376
:10108000C2F1200120FA01F10CFA02FC41EA030846
:1010900094404FEA1C41B8FBF1F71FFA8CFE01FBAC
:1010A000178807FB0EF0230C43EA084398420AD93D
:1010B0001CEB030307F1FF3580F01E81984240F2DC
:1010C0001B81023F63441B1AB3FBF1F001FB103399
:1010D00000FB0EFEA4B244EA0344A6450AD91CEB69
:1010E000040400F1FF3380F00981A64540F2068137
:1010F000644402380021A4EB0E0440EA07401EB10C
:101100000023D440C6E90043BDE8F0878B4208D9EC
:10111000002E00F0EE800021C6E900050846BDE87B
:10112000F087B3FA83F100294AD1AB4202D382425D
:1011300000F2FC80841A65EB030301209846002E20
:10114000E2D0C6E90048DFE702B9FFDEB2FA82F278
:10115000002A40F09180A1EB0C0001214FEA1C47CE
:101160001FFA8CFEB0FBF7F307FB1300250C45EAD2
:1011700000450EFB03F0A84208D91CEB050503F15E
:10118000FF3802D2A84200F2CE8043462D1AB5FBAA
:10119000F7F007FB10550EFB00FEA4B244EA05442D
:1011A000A64508D91CEB040400F1FF3502D2A64580
:1011B00000F2B6802846A4EB0E0440EA03409EE706
:1011C000C1F120078B4022FA07FC4CEA030C25FAF8
:1011D00007FA4FEA1C49BAFBF9F820FA07F309FBB2
:1011E00018AA8D401FFA8CFE1D4300FA01F308FB7C
:1011F0000EF02C0C44EA0A44A04202FA01F20BD988
:101200001CEB040408F1FF3A80F08880A04240F211
:101210008580A8F102086444241AB4FBF9F009FBA4
:10122000104400FB0EFEADB245EA0444A64508D9C1
:101230001CEB040400F1FF356CD2A6456AD90238D4
:10124000644440EA0840A0FB0295A4EB0E04AC42C3
:10125000C846AE4656D353D0002E69D0B3EB080231
:1012600064EB0E0422FA01F304FA07F71F43CC40A3
:10127000C6E90074002147E70CFA02FCC2F1200124
:1012800025FA01F34FEA1C4720FA01F195400D437E
:10129000B3FBF7F107FB11331FFA8CFE280C40EA71
:1012A000034001FB0EF3834204FA02F408D91CEB5D
:1012B000000001F1FF382FD283422DD9023960445A
:1012C000C01AB0FBF7F307FB1300ADB245EA0045C7
:1012D00003FB0EF0A84208D91CEB050503F1FF380B
:1012E00016D2A84214D9023B6544281A43EA0141A8
:1012F00038E73146304607E72F46E4E61846F9E678
:101300004B45A9D2B9EB020865EB0C0E0138A3E7F7
:101310004346EAE7284694E74146D1E7D0467BE7D3
:101320006444023847E7023B65442FE7084606E776
:101330003146E9E6704700BF4FF0FF3C06E000BFD2
:101340004FF0010C02E000BF4FF0010C4DF804CD4E
:101350004FEA410C7FEA6C5C4FEA430C18BF7FEA0E
:101360006C5C1BD001B050EA410C0CBF52EA430C3C
:1013700091EA030F02BF90EA020F0020704710F1BC
:10138000000F91EA030F58BF994208BF90422CBF4B
:10139000D8176FEAE37040F0010070474FEA410C44
:1013A0007FEA6C5C02D150EA013C07D14FEA430C62
:1013B0007FEA6C5CD6D152EA033CD3D05DF8040BD3
:1013C000704700BF8446104662468C461946634605
:1013D00000E000BF01B5FFF7B7FF002848BF10F1DC
:1013E000000F01BD4DF808EDFFF7F4FF0CBF012021
:1013F00000205DF808FB00BF4DF808EDFFF7EAFF9D
:1014000034BF012000205DF808FB00BF4DF808ED57
:10141000FFF7E0FF94BF012000205DF808FB00BF4C
:101420004DF808EDFFF7CEFF94BF012000205DF8D6
:1014300008FB00BF4DF808EDFFF7C4FF34BF0120E3
:1014400000205DF808FB00BF4FEA410C7FEA6C5CAE
:1014500002D150EA013C0AD14FEA430C7FEA6C5CAE
:1014600002D152EA033C02D14FF0000070474FF026
:101470000100704710B504460E4B18784FF47A738C
:10148000B3FBF0F30C4A1068B0FBF3F000F0A8F8DF
:1014900068B90F2C01D901200AE0002221464FF043
:1014A000FF3000F057F8054B1C60002000E00120E1
:1014B00010BD00BF00000020080000200400002034
:1014C00008B5074A136843F010031360032000F0C7
:1014D0002FF80F20FFF7CEFF01F062FE002008BDBD
:1014E00000200240034A1168034B1B780B44136031
:1014F000704700BF9804002000000020014B1868CE
:10150000704700BF9804002038B50446FFF7F6FF87
:101510000546B4F1FF3F02D0044B1B781C44FFF793
:10152000EDFF401BA042FAD338BD00BF00000020F1
:10153000074AD36823F4E0631B041B0C000200F489
:10154000E060034343F0BF6343F40033D36070476C
:1015500000ED00E000B5194BDB68C3F30223C3F1D3
:10156000070CBCF1040F28BF4FF0040C03F1040E6C
:10157000BEF1060F18D9033B4FF0FF3E0EFA0CFCEC
:1015800021EA0C0199400EFA03F322EA03031943FE
:1015900000280BDB0901C9B200F1604000F5614091
:1015A00080F800135DF804FB0023E5E700F00F006E
:1015B0000901C9B2024B1954F4E700BF00ED00E085
:1015C00014ED00E0002807DB00F01F0240090123B2
:1015D0009340024A42F82030704700BF00E100E02B
:1015E0000138B0F1807F0BD24FF0E0235861054AFB
:1015F000F02182F823100020986107221A617047B9
:101600000120704700ED00E090F82130DBB2022BA2
:1016100006D004238363002380F820300120704724
:101620000268136823F00E0313600268136823F046
:1016300001031360036CC16B012202FA03F34B60D8
:1016400080F82120002380F82030184670470000E1
:1016500008B590F82130DBB2022B03D0042383635A
:10166000012008BD0268136823F00E0313600268AE
:10167000136823F0010313600368194A934214D0DE
:10168000143293421FD0143293421ED0143293422C
:101690001ED0143293421ED01432934202D04FF027
:1016A000807203E04FF4801200E001220D4B5A607B
:1016B000012380F82130002380F82030436B6BB188
:1016C00098470020CDE71022F0E74FF48072EDE755
:1016D0004FF48052EAE74FF48032E7E70020C0E79A
:1016E000080002400000024070B582B00024A44609
:1016F000A6E0804DAA4210D007D97F4DAA420CD057
:1017000005F58035AA4208D013E0A5F58015AA4258
:1017100003D005F57025AA4207D18A68002A58D05F
:10172000012A51D04361082403E0A5F58015AA429F
:10173000F3D0BEF1FF0F4ED80646BEF1FF0F4CD8D6
:101740004FEA8C0233680F25954023EA050304FA1B
:1017500002F2134333604B6813F0805F6ED0674B27
:101760009A6942F001029A619B6903F001030193B7
:10177000019B4FEA9C02951C614B53F825600CF0CD
:1017800003039D000F23AB4026EA03065D4B9842FE
:1017900029D003F58063984200F08E8003F58063C2
:1017A000984200F08B8003F58063984219D004239F
:1017B0001AE0CC68BDE7CC680434BAE7CC680834DA
:1017C000B7E7CC680C34B4E703610824B1E7002420
:1017D000AFE70424ADE7061DAFE7ACF108029200C5
:1017E000B0E7032300E00023AB4033430232444D13
:1017F00045F822304B6813F4803F61D0424A1368A9
:1018000043EA0E0313604B6813F4003F5ED03E4A78
:10181000536843EA0E0353604B6813F4801F5BD098
:10182000394A936843EA0E0393604B6813F4001F30
:1018300058D0354AD36843EA0E03D3600CF1010C4B
:101840000A6832FA0CF353D0012303FA0CF302EACC
:10185000030E33EA0202F1D14A68122A3FF649AF79
:10186000122A3FF666AF01A555F822F01B170008B3
:10187000B3170008BD170008CF170008331700087A
:101880003317000833170008331700083317000810
:101890003317000833170008331700083317000800
:1018A00033170008331700083317000833170008F0
:1018B000B7170008C3170008012395E7022393E731
:1018C000114A136823EA0E0313609CE70E4A53681B
:1018D00023EA0E0353609FE70B4A936823EA0E0343
:1018E0009360A2E7084AD36823EA0E03D360A5E712
:1018F00002B070BD00002210000031100010024044
:1019000000000140000801400004014000226DE099
:10191000032500E0002505FA04F4644542D0FF2BBE
:101920005BD80646FF2B5AD8950034684FF00F0E4F
:101930000EFA05FE24EA0E044FF0040C0CFA05FC26
:1019400044EA0C043460C46824EA0303C36001322F
:1019500031FA02F348D0012393400B40F7D04FEA0D
:10196000920E0EF10205264C54F8255002F00304A5
:10197000A4000F26A64006EA050C224DA842C9D0B5
:1019800005F58065A84209D005F58065A84207D015
:1019900005F58065A842BBD00425BCE70125BAE760
:1019A0000225B8E7164F0EF1020457F8245025EA35
:1019B000060647F82460144C256825EA03052560CF
:1019C000656825EA03056560A56825EA0305A56045
:1019D000E56825EA0305E560A1E7061DA2E7A2F197
:1019E000080C4FEA8C05A0E7F0BD013231FA02F392
:1019F00005D0012393400B40F7D0F0B5AFE7704717
:101A000000000140000801400004014083681942C1
:101A100001D001207047002070470AB10161704772
:101A2000090401617047000082B0084B1B68084A36
:101A3000A2FB03235B0A00FB03F3019300BF019B9E
:101A40005A1E0192002BF9D102B070470800002005
:101A5000D34D6210002800F0F18170B582B00446C9
:101A6000036813F0010F2CD0994B5B6803F00C0353
:101A7000042B1DD0964B5B6803F00C03082B12D08F
:101A80006368B3F5803F41D0002B55D103F180430B
:101A900003F504331A6822F480321A601A6822F4BB
:101AA00080221A6037E08A4B5B6813F4803FE7D0EE
:101AB000874B1B6813F4003F03D06368002B00F0D2
:101AC000BF81236813F0020F75D0814B5B6813F060
:101AD0000C0F5FD07E4B5B6803F00C03082B54D0D7
:101AE0002369002B00F08A807A4B01221A60FFF7ED
:101AF00005FD0546764B1B6813F0020F75D1FFF705
:101B0000FDFC401B0228F5D903209EE1704A1368B2
:101B100043F480331360636843B3FFF7EFFC05467B
:101B20006B4B1B6813F4003FCBD1FFF7E7FC401B66
:101B30006428F5D9032088E1B3F5A02F09D0644BC0
:101B40001A6822F480321A601A6822F480221A601D
:101B5000E1E703F18043A3F53C331A6842F48022A5
:101B60001A601A6842F480321A60D4E7FFF7C6FCA4
:101B70000546574B1B6813F4003FA2D0FFF7BEFC8D
:101B8000401B6428F5D903205FE1514B5B6813F4D7
:101B9000803FA5D14E4B1B6813F0020F03D0236981
:101BA000012B40F04F814A4A136823F0F803616922
:101BB00043EAC1031360236813F0080F33D0A3690D
:101BC000002B5CD0434B0122C3F88024FFF796FC26
:101BD00005463F4B5B6A13F0020F21D1FFF78EFCE5
:101BE000401B0228F5D903202FE1394A136823F05E
:101BF000F803616943EAC1031360DCE7354B002257
:101C00001A60FFF77BFC0546314B1B6813F0020F8F
:101C1000D1D0FFF773FC401B0228F5D9032014E153
:101C20000120FFF701FF236813F0040F00F09680F6
:101C3000274BDB6913F0805F34D1254BDA6942F022
:101C40008052DA61DB6903F080530193019B012527
:101C5000214B1B6813F4807F26D0E368012B3DD015
:101C6000002B53D103F1804303F504331A6A22F0A9
:101C700001021A621A6A22F004021A6233E0154B5A
:101C80000022C3F88024FFF739FC0546104B5B6A3D
:101C900013F0020FC7D0FFF731FC401B0228F5D923
:101CA0000320D2E00025D3E70B4A136843F4807386
:101CB0001360FFF723FC0646074B1B6813F4807F75
:101CC000CBD1FFF71BFC801B6428F5D90320BCE0B7
:101CD0000010024000004242007000405F4A136A58
:101CE00043F001031362E36833B3FFF707FC0646D2
:101CF0005A4B1B6A13F0020F2FD1FFF7FFFB801B1B
:101D000041F288339842F3D903209EE0052B09D095
:101D1000524B1A6A22F001021A621A6A22F0040275
:101D20001A62E0E74D4B1A6A42F004021A621A6A1C
:101D300042F001021A62D6E7FFF7E0FB0646474B86
:101D40001B6A13F0020F08D0FFF7D8FB801B41F28B
:101D500088339842F3D9032077E0E5B9E369002B93
:101D600072D03E4A526802F00C02082A56D0022B6A
:101D700017D03B4B00221A66FFF7C0FB0446374BD7
:101D80001B6813F0007F47D0FFF7B8FB001B022849
:101D9000F5D9032059E0314AD36923F08053D36148
:101DA000DCE72F4B00221A66FFF7A8FB05462B4BFA
:101DB0001B6813F0007F06D0FFF7A0FB401B022832
:101DC000F5D9032041E0236AB3F5803F1AD02349B7
:101DD0004B6823F47413226A606A024313434B6016
:101DE0001F4B01221A66FFF789FB04461B4B1B6839
:101DF00013F0007F0ED1FFF781FB001B0228F5D9FD
:101E0000032022E0154A536823F40033A1680B43F2
:101E10005360DCE7002018E0002016E0012B16D00C
:101E20000E4B5B6803F48031226A914211D103F4B6
:101E30007013626A93420ED1002006E001207047C1
:101E4000012002E0012000E0002002B070BD01206E
:101E5000FBE70120F9E70120F7E700BF001002408F
:101E60000000424286B0174B0FCB0DF1180C0CE965
:101E70000F0040F20123ADF80430134B5B6803F010
:101E80000C02082A02D0114806B07047C3F38342FF
:101E900018326A4412F8100C13F4803F0DD00A4B2C
:101EA0005B68C3F3404318336B4413F8143C074A90
:101EB00002FB00F0B0FBF3F0E6E7054B03FB00F09C
:101EC000E2E700BF886C00080010024000127A00B0
:101ED00000093D00002800F0A08070B50D460446C2
:101EE000524B1B6803F007038B420BD24F4A136817
:101EF00023F007030B431360136803F007038B42BF
:101F000040F08D80236813F0020F17D013F0040FF8
:101F100004D0474A536843F4E0635360236813F0E6
:101F2000080F04D0424A536843F460535360404A58
:101F3000536823F0F003A1680B435360236813F048
:101F4000010F31D06368012B20D0022B25D0384AF5
:101F5000126812F0020F64D035494A6822F0030279
:101F600013434B60FFF7CAFA0646314B5B6803F038
:101F70000C036268B3EB820F16D0FFF7BFFA801B29
:101F800041F288339842F0D9032045E0284A12688C
:101F900012F4003FE0D101203EE0254A126812F021
:101FA000007FD9D1012037E0204B1B6803F00703E5
:101FB000AB420AD91D4A136823F007032B43136071
:101FC000136803F00703AB422DD1236813F0040F0D
:101FD00006D0174A536823F4E063E1680B4353606B
:101FE000236813F0080F07D0114A536823F4605395
:101FF000216943EAC1035360FFF734FF0C4B5B6870
:10200000C3F303130B4AD35CD8400B4B18600B4B44
:102010001868FFF72FFA002070BD012070470120DB
:10202000FAE70120F8E70120F6E700BF00200240B0
:10203000001002409C6C00080800002004000020F2
:10204000014B1868704700BF0800002008B5FFF773
:10205000F7FF044B5B68C3F30223034AD35CD84009
:1020600008BD00BF00100240AC6C000808B5FFF7C7
:10207000E7FF044B5B68C3F3C223034AD35CD84039
:1020800008BD00BF00100240AC6C000870B4036AC9
:1020900023F001030362036A4668826922F0730237
:1020A0000C6844EA020523F002028B6813430D4CCE
:1020B000A04209D00B4CA0420DD0466085614A6811
:1020C0004263036270BC704723F00803CA6813437D
:1020D00023F00403EEE726F440764A6932438E6922
:1020E0001643EAE7002C014030B4036A23F48073FE
:1020F0000362036A4568C26922F073020C682243D6
:1021000023F400738C6843EA04230F4CA04209D0E7
:102110000D4CA0420ED04560C2614A68C2630362A2
:1021200030BC704723F40063CC6843EA042323F4F3
:102130008063EDE725F440554C6945EA04158C6948
:1021400045EA0415E7E700BF002C014030B4036AFC
:1021500023F480530362036A4468C26922F4E642AE
:102160000D6842EA052223F400538D6843EA0533E3
:10217000074DA84206D04460C2614A680264036207
:1021800030BC704724F480444D6944EA8514F2E77A
:10219000002C014070477047704710B50446036833
:1021A0001A6912F0020F11D0DA6812F0020F0DD086
:1021B0006FF002021A610123037703689B6913F031
:1021C000030F70D0FFF7E6FF0023237723681A6917
:1021D00012F0040F12D0DA6812F0040F0ED06FF074
:1021E00004021A610223237723689B6913F4407F5A
:1021F0005FD02046FFF7CEFF0023237723681A69BC
:1022000012F0080F12D0DA6812F0080F0ED06FF03B
:1022100008021A61042323772368DB6913F0030F94
:102220004ED02046FFF7B6FF0023237723681A69B4
:1022300012F0100F12D0DA6812F0100F0ED06FF0FB
:1022400010021A61082323772368DB6913F4407FA7
:102250003DD02046FFF79EFF0023237723681A69AD
:1022600012F0010F03D0DA6812F0010F36D12368A3
:102270001A6912F0800F03D0DA6812F0800F34D19F
:1022800023681A6912F0400F03D0DA6812F0400F89
:1022900032D123681A6912F0200F03D0DA6812F0E5
:1022A000200F30D110BD00F027FF2046FFF773FF4D
:1022B0008AE7204600F020FF2046FFF76CFF9BE7EF
:1022C000204600F019FF2046FFF765FFACE72046E7
:1022D00000F012FF2046FFF75EFFBDE76FF001023E
:1022E0001A61204600F006FFC1E76FF080021A6114
:1022F000204600F070F9C3E76FF040021A612046F3
:10230000FFF74AFFC5E76FF020021A61204600F090
:1023100061F9C7E703681B4A90420AD0B0F1804FC9
:1023200007D0A2F59432904203D002F58062904229
:1023300003D123F070034A681343124A90420AD033
:10234000B0F1804F07D0A2F59432904203D002F54D
:102350008062904203D123F44073CA68134323F090
:1023600080034A69134303608B68C3620B6883620E
:10237000044B984202D00123436170470B69036309
:10238000F9E700BF002C014040B310B5044690F8B7
:102390003D30F3B1022384F83D30214651F8040B5F
:1023A000FFF7B8FF012384F8463084F83E3084F804
:1023B0003F3084F8403084F8413084F8423084F86B
:1023C000433084F8443084F8453084F83D300020B0
:1023D00010BD80F83C3000F055FEDBE7012070476F
:1023E00030B4036A23F010030362036A446882690D
:1023F00022F4E6420D6842EA052223F020038D68AC
:1024000043EA05130E4DA84209D00D4DA8420ED047
:10241000446082614A688263036230BC704723F083
:102420008003CD6843EA051323F04003EDE724F46D
:1024300040644D6944EA85048D6944EA8504E7E710
:10244000002C014090F83C30012B22D010B50446FE
:10245000012380F83C300C2A0BD8DFE802F0070A91
:102460000A0A0E0A0A0A120A0A0A16000068FFF788
:102470000DFE002084F83C0010BD0068FFF7B0FF9F
:10248000F7E70068FFF730FEF3E70068FFF75EFE4E
:10249000EFE70220704701F01F01012303FA01FC5E
:1024A000036A23EA0C030362036A02FA01F10B4395
:1024B0000362704710B504460846B1B994F83E303F
:1024C000DBB2013B18BF0123002B7CD130BB0223C0
:1024D00084F83E300C2836D8DFE800F0303535354A
:1024E00053353535593535355F00042908D008296D
:1024F0000DD094F84130DBB2013B18BF0123E3E774
:1025000094F83F30DBB2013B18BF0123DCE794F8BD
:102510004030DBB2013B18BF0123D5E7042805D0CA
:10252000082807D0022384F84130D3E7022384F837
:102530003F30CFE7022384F84030CBE72268D368EE
:1025400043F00203D360012201462068FFF7A3FF96
:1025500023681F4A934226D023681D4A934227D0FE
:10256000B3F1804F24D0A2F59432934220D002F5EB
:10257000806293421CD01A6842F001021A60002067
:1025800022E02268D36843F00403D360DBE72268CB
:10259000D36843F00803D360D5E72268D36843F0DB
:1025A0001003D360CFE75A6C42F400425A64D3E779
:1025B0009A6802F00702062A07D01A6842F0010260
:1025C0001A60002000E0012010BD0020FCE700BFE1
:1025D000002C0140704770470268D36823F4907361
:1025E000D3600268536923F001035361036B012B2D
:1025F00005D0202380F83E30002303637047026833
:10260000D36823F01003D360F3E790F83D30DBB2DA
:10261000212B01D0022070478368B3F5805F17D06B
:10262000036A5A1C02621A7803685A60C38C9BB210
:10263000013B9BB2C3844BB90268D36823F080038B
:10264000D3600268D36843F04003D3600020704732
:102650000369002BE4D1036A1B880268C3F30803F3
:102660005360036A02330362E0E7000010B50446DA
:102670000268136923F44053C1680B4313618368F4
:102680000269134342691A430168CB6823F4B053CB
:1026900023F00C031343CB600268536923F44073A7
:1026A00081690B4353610268134B9A4220D0FFF7B4
:1026B000CDFC024602EB820202EB820263689B00C1
:1026C000B2FBF3F20D48A0FB02314909642303FB7E
:1026D00011231B013233A0FB03235B0903F0F0023B
:1026E00002EB011203F00F03216813448B6010BD4D
:1026F000FFF7BCFC0246DDE7003801401F85EB51C7
:102700002DE9F84305460F4616469946DDF8208028
:102710002C68246837EA04030CBF4FF0010C4FF01B
:10272000000CB4451FD1B8F1FF3FF1D0B8F1000F54
:1027300005D0FEF7E3FEA0EB09004045E8D92A6882
:10274000D36823F4D073D3602A68536923F001035C
:102750005361202385F83D3085F83E30002385F80D
:102760003C30032000E00020BDE8F88358B310B5EA
:10277000044690F83D300BB3242384F83D302268A2
:10278000D36823F40053D3602046FFF76FFF22681D
:10279000136923F4904313612268536923F02A03D9
:1027A00053612268D36843F40053D360002020644F
:1027B000202384F83D3084F83E3010BD80F83C3052
:1027C00000F022FDD8E7012070477047A8B110B58E
:1027D0000446242380F83D300268D36823F4005374
:1027E000D360FFF7F2FF0020206484F83D0084F8F6
:1027F0003E00206384F83C0010BD012070472DE9A5
:10280000F04182B01E4690F83D30DBB2202B54D10F
:1028100004460D469046002953D0002A53D090F824
:102820003C30012B51D0012380F83C30002303645D
:10283000212380F83D30FEF761FE0746A4F824808E
:10284000A4F82680A368B3F5805F05D04FF0000898
:10285000002384F83C3012E0236913B14FF00008E4
:10286000F6E7A8460025F3E738F8023B2268C3F3F1
:1028700008035360E28C92B2013A92B2E284E38C94
:102880009BB273B100963B46002280212046FFF7A1
:1028900037FFE0B9002DE7D015F8012B23685A6007
:1028A000E8E700963B46002240212046FFF728FF3C
:1028B00078B9202384F83D3000E0022002B0BDE862
:1028C000F0810120FAE70120F8E70220F6E7032073
:1028D000F4E70320F2E708B50168CA6822F0400275
:1028E000CA60202280F83D2000F0D2FC002008BD04
:1028F000704708B5406A0023C385C384FFF7F8FF1B
:1029000008BD704790F83E30DBB2222B60D183685F
:10291000B3F5805F46D0826AB3F5805F04D0002BA8
:102920004DD10369002B4AD103685B681370836A39
:1029300001338362C38D9BB2013B9BB2C385002BE5
:1029400048D100B583B00268D36823F02003D36078
:102950000268D36823F48073D3600268536923F05C
:1029600001035361202380F83E30036B012B2CD1EF
:10297000002303630268D36823F01003D360036865
:102980001A6812F0100F06D0002201921A68019204
:102990005B680193019B818DFFF7B3FF002003B0BB
:1029A0005DF804FB0269002AB5D1826A03685B689E
:1029B000C3F308031380836A02338362BAE70368B0
:1029C0005B6803F07F031370B1E700F063FCE5E799
:1029D000022070470020704730B583B0044602687B
:1029E0001368D068516913F00F0505D113F0200F5B
:1029F00002D010F0200F19D12DB111F0010119D121
:102A000010F4907F16D1216B012975D013F0800F3F
:102A100003D010F0800F40F0D78013F0400F03D0A8
:102A200010F0400F40F0D48003B030BD2046FFF7D7
:102A300069FFF9E713F0010F06D010F4807F03D08F
:102A4000226C42F00102226413F0040F04D019B189
:102A5000226C42F00202226413F0020F04D019B17A
:102A6000226C42F00402226413F0080F07D010F029
:102A7000200F00D119B1226C42F008022264226CAE
:102A8000002AD1D013F0200F02D010F0200F21D156
:102A900023685B6903F04003226C12F0080F00D139
:102AA00023B32046FFF798FD23685A6912F0400FC0
:102AB00018D05A6922F040025A61A36B73B1464A9A
:102AC0005A63A06BFEF7C4FD0028ADD0A06B436B2A
:102AD0009847A9E72046FFF715FFD9E72046FFF7FB
:102AE00007FFA1E72046FFF703FF9DE72046FFF71A
:102AF000FFFE0023236497E713F0100F86D010F039
:102B0000100F83D00023019313680193536801933E
:102B1000019B536913F0400F32D0A16B0B685B68C7
:102B20009BB2002B80D0A08D98427FF67DAFE385CD
:102B30008B69202B08D1A18DE38D9BB2C91A89B274
:102B40002046FFF7DEFE6FE7D36823F48073D3607F
:102B50002268536923F0010353612268536923F00B
:102B600040035361202384F83E300023236322680E
:102B7000D36823F01003D360A06BFEF745FDDAE7BE
:102B8000A18DE38D9BB2C91A89B2E38D9BB2002B54
:102B90003FF44AAF00293FF447AFD36823F4907362
:102BA000D3602268536923F001035361202384F822
:102BB0003E30002323632268D36823F01003D360E0
:102BC0002046FFF79EFE2FE72046FFF71EFD2BE76E
:102BD0002046FFF780FE27E7F328000803468162BE
:102BE0008285C28500201864222283F83E2083F863
:102BF0003C001968CA6842F48072CA6019684A6960
:102C000042F001024A611A68D36843F02003D3609E
:102C1000704708B590F83E30DBB2202B0DD171B172
:102C20007AB190F83C30012B0DD0012380F83C3074
:102C300000230363FFF7D2FF00E0022008BD01205C
:102C4000FCE70120FAE70220F8E77047FEE7000002
:102C5000F0B587B0174CA36943F00403A361A369DF
:102C600003F004030093009B002302930393049357
:102C700005930225029503950127049703260596DF
:102C800002A90D48FEF730FDA36943F00803A361D4
:102C9000A36903F008030193019B4FF400730293AF
:102CA00003950497059602A90448FEF71DFD07B099
:102CB000F0BD00BF0010024000080140000C0140C0
:102CC00000B587B00F4B9A6942F008029A619B6980
:102CD00003F008030193019B0023029303930493E1
:102CE00005934FF40073029302230393012304938B
:102CF0000323059302A90448FEF7F6FC07B05DF82C
:102D000004FB00BF00100240000C01401C2A46D802
:102D100070B588B0D61C06F120030DEB0304002328
:102D200004F8203C88248DF80040AA248DF8014046
:102D30008DF801008DF8022007E0CC5C03F1230040
:102D4000684400F8204C0133DBB29342F5D30023F2
:102D50000FE006F120010DEB010010F8201C03F13B
:102D600020046C4414F8204C214400F8201C01334A
:102D7000DBB2911C9942ECDA00250BE04FF6FF73B1
:102D800001220DEB04010648FFF739FD0028F5D1BB
:102D90000135EDB22C46AE42F0DA08B070BD704796
:102DA0003005002010B584B0BDF918E0BDF91CC095
:102DB00004128DF804408DF8050008128DF8060005
:102DC0008DF8071011128DF808108DF809201A12CD
:102DD0008DF80A208DF80B309DF919308DF80C30E4
:102DE0008DF80DE09DF91D308DF80E308DF80FC077
:102DF0000C2201A9A120FFF789FF04B010BDF0B596
:102E000089B0BDF93870BDF93C60BDF94050BDF9DD
:102E100044E0BDF948C00024019402940394049452
:102E200005940694079404128DF804408DF805006B
:102E300008128DF806008DF8071011128DF8081091
:102E40008DF809201A128DF80A208DF80B309DF9A3
:102E500039308DF80C308DF80D709DF93D308DF8BE
:102E60000E308DF80F609DF941308DF816308DF8D9
:102E700017509DF945308DF818308DF819E09DF9FF
:102E800049308DF81A308DF81BC01C2201A9AF20E3
:102E9000FFF73CFF09B0F0BD00B591B000210B91E8
:102EA0000C910D910E910F91282201A803F08AF840
:102EB000012201924FF48033029305921022069270
:102EC0000222089209934FF4E0130A9301A8FEF737
:102ED000C1FD00B1FEE70F230B9302210C910023EB
:102EE0000D930F934FF480630E930BA8FEF7F2FF40
:102EF00000B1FEE711B05DF804FB000030B59BB0F7
:102F0000FEF7DEFAFFF7C8FF00F077FB02F0D4F817
:102F10000028FBD100F052F9002310931193129373
:102F200013930E930F930793089309930A930B93AC
:102F30000C930D934E484FF08042026040F2CF2236
:102F4000426083604FF6FF72C26003618361FFF7E6
:102F50001BFA08B1FFF77AFE30230793002308938A
:102F600009930B93042207A94148FFF76BFA08B1B4
:102F7000FFF76CFEFFF76CFE04213D48FFF79AFA5D
:102F80003C483D4B036040F2CF2343600023836005
:102F90004FF6FF72C26003618361FFF7F5F908B174
:102FA000FFF754FE302307930023089309930B93F4
:102FB0000C2207A92F48FFF745FA08B1FFF746FE94
:102FC000FFF77EFE0C212B48FFF774FA0DF1620229
:102FD00019A90DF1660000F06AFA17AA0DF15E0159
:102FE00018A800F041FA00F00FFA14AA15A916A8C3
:102FF00002F0B6F80028E9D1BDF95C300193BDF9C3
:103000005E300093BDF96030BDF96220BDF96410F7
:10301000BDF96600FFF7C6FE18491598FDF7C4FD17
:10302000FDF788FF044615491698FDF7BDFDFDF72D
:1030300081FF054612491498FDF7B6FDFDF77AFFAA
:1030400000B204902DB2039524B20294BDF95C3015
:103050000193BDF95E300093BDF96030BDF9622087
:10306000BDF96410BDF96600FFF7C9FEAEE700BF09
:103070009C040020E4040020000800400000C84236
:103080000000204100B583B00368B3F1804F05D044
:10309000164A934216D003B05DF804FB03F50433DF
:1030A000DA6942F00102DA61DB6903F0010300939F
:1030B000009B002211461C20FEF74CFA1C20FEF754
:1030C00081FAE8E70A4BDA6942F00402DA61DB6967
:1030D00003F004030193019B002211461E20FEF71A
:1030E00039FA1E20FEF76EFAD5E700BF000800404F
:1030F000001002407047000082B01D4B984204D07F
:103100001C4B98421AD002B070470023ADF804302F
:1031100001684B6A9BB2ADF80430BDF8042092B24E
:10312000154B1B889BB21A44144B83FB02031344B8
:10313000DB13C3EB0343D31A8B63E4E70023ADF83F
:10314000063001684B6A9BB2ADF80630BDF8062028
:1031500092B2094B1B889BB21A44084B83FB0203B3
:103160001344DB13C3EB0343D31A0B64CBE700BF59
:103170009C040020E40400200C000020018000805A
:1031800008B50248FFF709F808BD00BF9C040020FD
:1031900008B50248FFF701F808BD00BFE4040020AD
:1031A00070477047FEE7FEE7FEE7FEE770477047AF
:1031B000704708B5FEF796F908BDFEE708B50F4859
:1031C0000F4B03604FF4E133436000238360C3601F
:1031D000036183610C234361FFF7F8FA48B907489C
:1031E000FFF7C4FA38B9012206490448FFF711FD78
:1031F00008BDFFF7E2FFFFF7E0FF00BF300500204A
:10320000003801402C05002030B589B01E4B9A696A
:1032100042F004029A619A6902F004020192019A52
:103220009A6942F004029A619A6902F004020292D9
:10323000029A9A6942F480429A619B6903F480433E
:103240000393039B4FF4007304930223059301231C
:103250000693032307930D4D04A92846FEF744FA6D
:103260004FF4806304930024059404A92846FEF7D4
:103270003BFA224621462520FEF76CF92520FEF771
:10328000A1F909B030BD00BF0010024000080140A4
:10329000704700000268094B9A4200D07047084A04
:1032A0001378084908780849C8540133DBB2137011
:1032B0001F2BF3D9134600221A70EFE700380140A4
:1032C0002D0500202C0500207405002010B5054CAC
:1032D0002046FFF781FB012203492046FFF799FCB6
:1032E00010BD00BF300500202C0500200C480D4902
:1032F0000D4A002302E0D458C4500433C4188C4251
:10330000F9D30A4A0A4C002301E013600432A242B6
:10331000FBD3FFF79AFC02F0FDFDFFF7EFFD7047CE
:10332000000000207C040020BC7900087C04002000
:10333000A8050020FEE72DE9F04104460F4615469A
:103340001E4600F0F7F9600000F0FE0000F094FA6D
:1033500000F030FA88B98046384600F08DFA00F067
:1033600029FA4446AC4214D2305D00F085FA00F0F0
:1033700021FA48B90134E4B2F4E700F0FBF94FF068
:1033800001084046BDE8F08100F0F4F94FF0010873
:10339000F7E700F0EFF9F4E7F8B506460F461446F4
:1033A0001D4600F0C7F9700000F0FE0000F064FA5E
:1033B00000F000FA78B9384600F05EFA00F0FAF949
:1033C00000F0B8F9700040F00100C0B200F054FA0B
:1033D00000F0F0F90AE000F0CDF9012011E0002042
:1033E00000F07CFA2870013CE4B2013534B1012CC4
:1033F000F5D0012000F072FA2870F4E700F0BAF975
:103400002046F8BD0000000000B583B001AB0222E9
:1034100041216820FFF7C0FF9DF804301B021BB25A
:103420009DF805001843FCF7E5FF00220C4BFDF763
:1034300075F909A3D3E90023FCF790FEFDF756FACE
:103440000849FDF7B1FBFDF775FD00B203B05DF86B
:1034500004FB00BFAFF30080A4703D0AD743424095
:10346000004075400000C84270B582B006460D4667
:1034700014466B46062243216820FFF78DFFA0B952
:103480009DF800209DF8013043EA022333809DF827
:1034900002209DF8033043EA02232B809DF804208C
:1034A0009DF8053043EA0223238002B070BD70B559
:1034B00082B006460D4614466B4606223B21682024
:1034C000FFF76AFFA0B99DF800209DF8013043EA9C
:1034D000022333809DF802209DF8033043EA022343
:1034E0002B809DF804209DF8053043EA02232380B9
:1034F00002B070BD38B505460C4600F01BF9D0206F
:1035000000F0BAF900F056F978B9284600F0B4F99D
:1035100000F050F9204600F0AFF900F04BF90446F6
:1035200038B900F027F9204638BD00F023F901240E
:10353000F9E700F01FF90124F5E708B5C10001F033
:10354000F8011B20FFF7D6FF08BD08B5C10001F048
:10355000F8011C20FFF7CEFF08BD08B5BB2809D82D
:1035600061280CD829280CD813280CD809280CD984
:10357000052100E001211A20FFF7BCFF08BD022150
:10358000F9E70321F7E70421F5E70621F3E710B592
:10359000B0F57A7F04D80446032803D8042401E058
:1035A0004FF47A744FF47A7191FBF4F1C9B2013996
:1035B000C9B21920FFF79EFF6008FFF7CEFF10BDCC
:1035C00010B5044600F0B6F8D02000F055F900F030
:1035D000F1F8204600F050F900F0ECF800F0AAF8FD
:1035E000D12000F049F900F0E5F8002000F076F96C
:1035F000044600F0BFF8204610BD08B500F038F8CA
:1036000080216B20FFF776FF6420FDF77DFF00210E
:103610006B20FFF76FFF0320FFF78FFF0020FFF7FE
:1036200094FF3220FFF7B3FF00213820FFF762FF3D
:1036300000216A20FFF75EFF00212320FFF75AFFD9
:1036400080213720FFF756FF7520FFF7B9FF682864
:1036500001D0012008BD01216B20FFF74BFF0021A5
:103660006C20FFF747FF3220FFF791FF0020F1E7C2
:10367000F0B587B0154CA36943F00803A361A369B3
:1036800003F008030093009B01250395049503278D
:1036900005974FF4806302930D4E02A93046FEF762
:1036A00023F8A36943F00803A361A36903F00803A7
:1036B0000193019B0395049505974FF400630293D2
:1036C00002A93046FEF710F807B0F0BD0010024026
:1036D000000C014010B584B0094C4FF40061204645
:1036E000FEF714F9012301930293032303934FF48C
:1036F0000063009369462046FDF7F6FF04B010BD55
:10370000000C014010B584B0094C4FF40061204614
:10371000FEF7FCF8002301930293032303934FF475
:103720000063009369462046FDF7DEFF04B010BD3C
:10373000000C014010B5FFF7CDFF0D4C01224FF4F6
:1037400000612046FEF769F901224FF480612046AE
:10375000FEF763F900224FF400612046FEF75DF9A1
:1037600000224FF480612046FEF757F910BD00BFDC
:10377000000C014010B5FFF7ADFF0D4C00224FF4D7
:1037800080612046FEF749F900224FF4006120468F
:10379000FEF743F901224FF480612046FEF73DF920
:1037A00001224FF400612046FEF737F910BD00BF3B
:1037B000000C014010B5FFF7A5FF0E4C01224FF49D
:1037C00000612046FEF729F901224FF4806120466E
:1037D000FEF723F94FF400610648FEF717F90028B9
:1037E000F8D100224FF480610248FEF716F900205C
:1037F00010BD00BF000C014010B50E4C00224FF46C
:1038000080612046FEF709F9FFF764FF00224FF4BC
:1038100000612046FEF701F901224FF48061204645
:10382000FEF7FBF800224FF480612046FEF7F5F822
:1038300010BD00BF000C014010B50E4C00224FF42B
:1038400080612046FEF7E9F8FFF744FF01224FF4BC
:1038500000612046FEF7E1F801224FF48061204626
:10386000FEF7DBF800224FF480612046FEF7D5F822
:1038700010BD00BF000C014070B50446FFF72AFFE1
:1038800000224FF480611448FEF7C7F8002516E0C7
:1038900000224FF400611048FEF7BFF86400E4B264
:1038A0000D4E01224FF480613046FEF7B6F800223B
:1038B0004FF480613046FEF7B0F80135EDB2072DC8
:1038C00009D814F0800FE3D001224FF400610248C0
:1038D000FEF7A3F8E2E770BD000C0140F8B507461B
:1038E000FFF710FF0024254601E00135EDB2072D5A
:1038F00018D8104E00224FF480613046FEF78DF844
:1039000001224FF480613046FEF787F86400E4B28C
:103910004FF400613046FEF779F80028E5D0013415
:10392000E4B2E2E71FB9FFF787FF2046F8BDFFF7D3
:1039300063FFFAE7000C0140F0B583B007462C4B5B
:10394000586801AB04220D210078FFF725FD0028FF
:103950004BD104469DF80420D21002F01C029DF8C1
:103960000710C1F301131A438DF800209DF80520BC
:10397000D21002F01C02C1F381031A438DF801201A
:103980009DF80630DB1003F01C0301F003010B432C
:103990008DF8023018E007EB8405164B47F8243009
:1039A00004E015492868FDF7FFF8286006F10803D0
:1039B0000DEB030212F8083C013BDBB202F8083CB5
:1039C000002BEED10134E4B2022C0BD8264604F1D0
:1039D00008036B4413F8083C002BDCD1002347F8A4
:1039E0002430EFE7002003B0F0BD0720FBE700BF65
:1039F0001C0000207B14AE3E1D5A843F2DE9F0438D
:103A000085B08146884601A8FFF796FF00273C460F
:103A10000DE021493046FDF765FA20B91F493046CF
:103A2000FDF77EFA10B10123A3401F430134022C9D
:103A30002EDCA50059F8240058F82430C01A0028BC
:103A4000B8BF4042FDF75CF84FF05E51FDF7ACF8AF
:103A5000064605F110030DEB030555F80C5C00213B
:103A60002846FDF735FA0028D3D129463046FDF720
:103A70004FF94FF07E51FCF78DFF20F000400849D0
:103A8000FDF74EFA0028D1D00123A3401F43CDE714
:103A9000384605B0BDE8F0839A99993E3333733FB9
:103AA000295C0F3E2DE9F04182B007468846374B2E
:103AB000586801AB03220D210078FFF76DFC002848
:103AC0005FD19DF8043003F01F038DF804309DF89A
:103AD000053003F01F038DF805309DF8063003F024
:103AE0001F038DF806300026344626E02849FDF7EE
:103AF0005BF804F108030DEB030212F8043C013BF0
:103B0000DBB202F8043C002BF0D101462846FDF759
:103B1000FFF84FF07E51FCF73DFF20F000401D49BB
:103B2000FDF7FEF940B10123A3401E4304E01A480B
:103B3000DFE70123A3401E430134022C22DC57F8A7
:103B4000240058F82430C01A0028B8BF4042FCF7BF
:103B5000D7FF4FF05E51FDF727F8054604F1080343
:103B60006B4413F8043C002BE1D10C49FDF7BAF982
:103B70000028DED10A492846FDF7D2F90028DBD01B
:103B8000D7E70726304602B0BDE8F0811C000020D0
:103B900054E3853F295C0F3E0000C84100002041EE
:103BA0000000D24200B583B0234B93F82430CBB150
:103BB000A0B102238DF807301F4B586819680DF12A
:103BC00007030122C97B0078FFF7B5FB48BB9DF8CE
:103BD0000720194B5A7403B05DF804FB00238DF8DD
:103BE0000730E9E7144B9B7AF3B110B1124B5B7CC1
:103BF000EBB990B101238DF807300F4B5868196865
:103C00000DF107030122C97B0078FFF794FB80B90F
:103C10009DF80720084B5A74DDE700238DF8073024
:103C2000EBE74FF0FF30D6E74FF0FF30D3E700204F
:103C3000D1E74FF0FF30CEE71C000020F0B589B08F
:103C400005460C46164601238DF8143000238DF8E6
:103C50001530854B5868196805AB0222897C0078BD
:103C6000FFF769FB002840F0CE81C820FDF74CFC2F
:103C700000238DF814307C4B5868196805AB01227D
:103C8000C97B0078FFF757FB002840F0BF81764BD7
:103C90005868196805AB012249790078FFF74BFB9A
:103CA000002840F0B681704B5868196805AB0122B6
:103CB000897C0078FFF73FFB002840F0AD816A4B1C
:103CC0005868196805AB0122C97D0078FFF733FBFE
:103CD000002840F0A481644B5868196805AB0122A4
:103CE00009790078FFF727FB002840F09B810C231F
:103CF0008DF814305C4B5868196805AB01220979BE
:103D00000078FFF718FB002840F08F810F20FDF7A7
:103D1000FBFB554B9A6A527A8DF814205868196843
:103D200005AB012289780078FFF705FB002840F0F9
:103D30007F814D4B9A6A127A8DF814205868196861
:103D400005AB012249780078FFF7F5FA002840F02A
:103D50007281002E79D0444B9B6A9B7A63F01F03DB
:103D60008DF81430404B5868196805AB01228979E9
:103D70000078FFF7E0FA002840F06081002E6AD05A
:103D8000394B9B6ADB7A63F01F038DF81430364B96
:103D90005868196805AB0122C9790078FFF7CBFA9A
:103DA000002840F04E81002E59D140238DF8143068
:103DB0002D4B5868196805AB012209790078FFF787
:103DC000BAFA002840F0408178238DF81430264B51
:103DD0005868196805AB012249790078FFF7ABFAFA
:103DE000002840F034813220FDF78EFB00238DF84F
:103DF00014301D4B5868196805AB012249790078C9
:103E0000FFF799FA002840F02581174B5868196888
:103E100005AB0222897A0078FFF7BEFA0646002831
:103E200040F01B819DF814309DF8157047EA032778
:103E30000E4BA3FB0737C7F3C7070023AB606B60CC
:103E40002B60A360636023605CE0074B9B6A9B7AF6
:103E50008DF8143086E718238DF8143097E7C820C2
:103E6000FDF752FBA1E700BF1C000020ABAAAAAAE5
:103E70009DF814309DF8151041EA032109B2ADF800
:103E800004109DF816309DF8172042EA032212B262
:103E9000ADF806209DF818009DF8193043EA00237C
:103EA0001BB2ADF8083020680144216061680A4403
:103EB0006260A2681344A3609DF81A309DF81B103D
:103EC00041EA032109B2ADF80C109DF81C309DF8B1
:103ED0001D2042EA032212B2ADF80E209DF81E000A
:103EE0009DF81F3043EA00231BB2ADF8103028685C
:103EF0000144296069680A446A60AA681344AB6097
:103F00000136F6B2BE420ED2554B5868196805AB61
:103F10000C22C97A0078FFF73FFA0028A8D04FF0AA
:103F2000FF3009B0F0BD296883220023080409147A
:103F3000FDF746F800263A463346FDF741F828607B
:103F400069688322002308040914FDF739F83A460A
:103F50003346FDF735F86860A9688322002308041A
:103F60000914FDF72DF83A463346FDF729F8A86005
:103F70002068031400041946B3422DDBC00A3A46F8
:103F8000334640EA4150C912FDF71AF820606068D4
:103F9000031400041946002B24DBC00A3A463346BA
:103FA00040EA4150C912FDF70BF86060A0680314A5
:103FB00000041946002B1BDBC00A3A46334640EA90
:103FC0004150C912FCF7FCFFA060002816DDA0F5E7
:103FD0008030A0600020A4E740F2FF72801843F117
:103FE0000001CBE740F2FF72801843F10001D4E7F3
:103FF00040F2FF72801843F10001DDE700F58030E8
:10400000A06000208DE74FF0FF308AE74FF0FF30CF
:1040100087E74FF0FF3084E74FF0FF3081E74FF044
:10402000FF307EE74FF0FF307BE74FF0FF3078E75F
:104030004FF0FF3075E74FF0FF3072E74FF0FF3081
:104040006FE74FF0FF306CE74FF0FF3069E74FF05C
:10405000FF3066E74FF0FF3063E74FF0FF3060E777
:104060001C0000207C4B9B7A002B00F0D48000B514
:1040700083B000238DF80730774B586819680DF12D
:1040800007030122C97B0078FFF755F9002840F0AB
:10409000C580714B586819680DF1070301224979F1
:1040A0000078FFF748F9002840F0BB806A4B586859
:1040B00019680DF10703012209790078FFF73BF930
:1040C000002840F0B180644B93F82430002B52D08C
:1040D0000C238DF80730604B586819680DF1070301
:1040E000012209790078FFF726F9002840F09F8027
:1040F0003220FDF709FAC0238DF80730564B9B7A22
:1041000013F0010F02D0E0238DF80730524B5868AE
:1041100019680DF10703012209790078FFF70BF9FF
:10412000002840F087804C4B5B7C03B302238DF862
:104130000730494B586819680DF107030122C97B04
:104140000078FFF7F8F8002877D100238DF80730C2
:10415000414B586819680DF107030122497900782D
:10416000FFF7E9F800286BD103B05DF804FB0023EA
:104170008DF80730DDE704238DF80730364B58689B
:1041800019680DF10703012209790078FFF7D3F8C8
:10419000002858D1304B9B7C23B92F4B9B7A13F0CE
:1041A000010F30D140238DF807302B4B5868196828
:1041B0000DF10703012209790078FFF7BCF8002808
:1041C00044D13220FDF7A0F9234B5B7CFBB10123E6
:1041D0008DF80730204B586819680DF1070301224C
:1041E000C97B0078FFF7A7F898BB1B4B586853F8BA
:1041F000101B012249790078FFF79DF80028B3D001
:104200004FF0FF30B0E760238DF80730CDE7002393
:104210008DF80730DEE74FF0FF3070474FF0FF308A
:10422000A2E74FF0FF309FE74FF0FF309CE74FF0E1
:10423000FF3099E74FF0FF3096E74FF0FF3093E7FC
:104240004FF0FF3090E74FF0FF308DE74FF0FF3039
:104250008AE74FF0FF3087E71C0000200D4B1B7AE8
:10426000032B13D8DFE803F002060A0EFA230380BB
:10427000002070474FF4FA730380F9E74FF47A7324
:104280000380F5E74FF4FA630380F1E7002303802E
:10429000EEE700BF1C000020244B9B7A002B3CD093
:1042A00000B583B0B0F57A7F33D00BD8FA2813D09D
:1042B000B0F5FA7F03D108238DF807300FE04FF0F7
:1042C000FF3023E0B0F5FA6F03D118238DF80730E3
:1042D00005E04FF0FF3019E000238DF80730134B55
:1042E0001B7A9DF80720B3EBD20F19D00F4B5868FB
:1042F00019680DF10703012289790078FFF71BF88F
:1043000080B99DF80730DB08084A137203B05DF8E6
:1043100004FB10238DF80730E1E74FF0FF307047C2
:104320000020F3E74FF0FF30F0E700BF1C00002053
:104330000F4B5B7A032B16D8DFE803F0020C0F1249
:10434000022303700A4BDB7C83B103785B000370AC
:104350000020704704230370F4E708230370F1E79B
:1043600010230370EEE74FF0FF30704700207047D6
:104370001C000020234B9B7A002B35D000B583B066
:1043800002380E2833D8DFE800F008322332323208
:1043900027323232323232322B0000238DF807308E
:1043A000184B5B7A9DF80720B3EBD20F24D0154B46
:1043B000586819680DF107030122C9790078FEF7E2
:1043C000BAFFD8B99DF80730DB080E4A537210E0E7
:1043D00008238DF80730E3E710238DF80730DFE777
:1043E00018238DF80730DBE74FF0FF3070474FF0B0
:1043F000FF3003B05DF804FB0020FAE74FF0FF3018
:10440000F7E700BF1C0000200F4BDB7A013B052BB8
:1044100017D8DFE803F003070A0D1013BC2303804D
:104420000020704762230380FAE72A230380F7E71E
:1044300014230380F4E70A230380F1E705230380B4
:10444000EEE700230380EBE71C000020234B9B7A60
:10445000002B3AD000B583B0BB281AD901238DF8C0
:1044600007301E4BDA7A9DF807309A4230D01B4B4A
:10447000586819680DF10703012289780078FEF762
:104480005AFF38BB9DF80720144BDA7203B05DF871
:1044900004FB612803D902238DF80730E1E72928BE
:1044A00003D903238DF80730DBE7132803D904234E
:1044B0008DF80730D5E7092803D905238DF8073093
:1044C000CFE706238DF80730CBE74FF0FF3070477A
:1044D0000020DBE74FF0FF30D8E700BF1C000020D2
:1044E000054B93F8243023B9034BDB89038000206C
:1044F00070474FF0FF3070471C0000200D4B1B7AB7
:10450000032B13D8DFE803F002060A0E0A4B036000
:1045100000207047094B036000207047084B036080
:1045200000207047074B0360002070474FF0FF30BA
:10453000704700BF1C0000200000034300008342BE
:104540003333034233338341114B5B7A032B1AD845
:10455000DFE803F0020D11154FF4804303800C4B8C
:10456000DB7C9BB103885B0803800020704741F629
:104570009C730380F3E74FF480530380EFE74FF41D
:1045800000630380EBE74FF0FF3070470020704777
:104590001C000020024B1B7C03700020704700BFF2
:1045A0001C00002070B5174B93F824302BBB00F093
:1045B000FE04144B9B7A13B3124A167C23401374E7
:1045C000A3420BD04FF0FF3514B90E4B1B7D3BB10E
:1045D0000120FFF7E7FA3CB9284670BD0025F3E754
:1045E0000020FFF7DFFAF6E7FFF73CFD0028F3D0E5
:1045F000044B1E744FF0FF35EEE70025ECE74FF05B
:10460000FF35E9E71C0000202E4B93F82430002BE7
:1046100049D0F0B583B005460F461646294B9B7A24
:10462000002B43D0274B5868196801AB0222897AC6
:104630000078FEF7B1FE00283BD19DF804009DF8FC
:10464000054044EA0024AC4223D31E4B58684388FB
:10465000B4EB530F0DD91B4B196801AB0122497CF8
:104660000078FEF799FE38BB9DF8043013F0100F68
:1046700014D1144B586819683B46EAB2C97A0078DD
:10468000FEF78AFED8B9B4FBF5F4013C347003B0F0
:10469000F0BD002333704FF0FF30F8E7FFF7E2FC86
:1046A0006FF00100F3E74FF0FF3070474FF0FF303D
:1046B000EDE74FF0FF30EAE74FF0FF30E7E74FF06C
:1046C000FF30E4E71C000020584B9B7C834200F045
:1046D0009C8010B582B00446002844D0534B5868E3
:1046E00019680DF10703012209790078FEF754FEDD
:1046F000002840F08C809DF8073023F020038DF8CF
:1047000007304A4B586819680DF1070301220979EF
:104710000078FEF710FE00287CD10320FCF7F4FEA1
:1047200002238DF80730414B93F8223013B18223D6
:104730008DF807303D4B93F823302BB19DF80730AF
:1047400043F030038DF80730384B586819680DF185
:1047500007030122097D0078FEF7EDFD002844D013
:104760004FF0FF3044E0314B586819680DF10703F2
:10477000012209790078FEF70FFE00284DD12B4B5E
:104780009B7A13F0010F35D09DF8073043F02003DA
:104790008DF80730254B586819680DF10703012281
:1047A00009790078FEF7C7FD002839D10320FCF70E
:1047B000ABFE1E4B93F822301BB380238DF80730DD
:1047C0001A4B93F823302BB19DF8073043F0300398
:1047D0008DF80730154B586819680DF10703012251
:1047E000097D0078FEF7A7FDE8B9104B9C74002006
:1047F00002B010BD9DF8073023F020038DF807307C
:10480000C8E700238DF80730DAE7002070474FF043
:10481000FF30EDE74FF0FF30EAE74FF0FF30E7E71A
:104820004FF0FF30E4E74FF0FF30E1E71C000020DD
:104830001B4B93F8233083422DD010B582B0044631
:1048400028B330238DF80730154B9B7C2BB19DF896
:10485000073043F002038DF80730114B93F82230F4
:104860002BB19DF8073063F07F038DF807300C4BB8
:10487000586819680DF107030122097D0078FEF7D9
:104880005AFD50B9064B83F8234002B010BD0023F7
:104890008DF80730D8E7002070474FF0FF30F4E77D
:1048A0001C00002028285FD810B582B00446B8B993
:1048B0000020FFF7BDFF00238DF8043007238DF89B
:1048C00005302E4B5868196801AB0222897C0078AC
:1048D000FEF731FD00284AD1284B187502B010BDF3
:1048E0000120FFF7A5FF20238DF80430012C26D0EE
:1048F000052C2BD9142C30D802238DF805300A2032
:10490000FFF7A4FD9DF805309B0143F007038DF8E8
:1049100005301A4B5868196801AB0222897C00786F
:10492000FEF709FD30BB154B08229A7200241C7358
:1049300001221A752046FFF735FE2046CEE70023F8
:104940008DF805300520FFF781FDDBE701238DF8A9
:1049500005300520FFF77AFDD4E703238DF80530F5
:104960001420FFF773FDCDE74FF0FF3070474FF095
:10497000FF30B3E74FF0FF30B0E700BF1C0000206E
:10498000264B9B7A002B40D010B582B00446234BB7
:1049900093F82430002B3BD1204B1B7D33B1431EB9
:1049A0009BB2272B0AD90020FFF77CFF032C0AD9E2
:1049B000B4F57A7F08D94FF47A7405E0C0B2FFF7F6
:1049C00071FF00201FE004244FF47A7090FBF4F490
:1049D000013C8DF80740114B586819680DF1070329
:1049E000012249780078FEF7A6FCA0B99DF80700DF
:1049F000431C4FF47A7090FBF3F0084BD8814008C9
:104A0000FFF724FD002002B010BD4FF0FF307047CB
:104A10004FF0FF30F7E74FF0FF30F4E71C000020C5
:104A200010B582B0044610F0700F50D001238DF8FD
:104A30000730334B586819680DF107030122897C50
:104A40000078FEF778FC00284AD19DF8073003F083
:104A5000BF032B4A137300238DF8073014F0400F67
:104A600002D104238DF8073014F0200F05D19DF8F2
:104A7000073043F002038DF8073014F0100F05D112
:104A80009DF8073043F001038DF8073014F0080F4C
:104A900005D19DF8073043F038038DF80730184BE7
:104AA000586819680DF107030122C97C0078FEF7E8
:104AB00042FCD8B90CB1082C1ED1114B9C720024B9
:104AC0001C753220FCF720FD204602B010BD18B145
:104AD00000238DF80730ACE740238DF80730A8E7B6
:104AE000074B00229A724FF0FF30EEE7044B002292
:104AF0009A724FF0FF30E8E70020FFF799FEDCE7FD
:104B00001C00002010B582B080238DF80030624B6D
:104B1000586819686B460122897C0078FEF70BFC07
:104B2000002840F094806420FCF7EEFC00238DF810
:104B30000030594B586819686B460122897C00780F
:104B4000FEF7F9FB002840F08580534B5868196840
:104B50006B460622897D0078FEF71EFC00287CD17A
:104B60009DF805309B0003F004039DF803205200DC
:104B700002F0020213439DF9012002F001021343E7
:104B80004CD0012B46D0022B6AD1434B0022DA7461
:104B9000414BFF229A721A725A72DA724FF6FF7103
:104BA000D9811A749A7401221A7383F82220002280
:104BB00083F823205A751A75C3F81620C3F81A20F3
:104BC000C3F81E2083F8242083F82520DA844FF4CC
:104BD000FA60FFF761FB00284BD10220FFF7CAFB08
:104BE000002849D12A20FFF731FC002847D1322084
:104BF000FFF7C6FE002845D1FFF7D4FC002844D1BA
:104C0000FFF762FD0446002842D1FFF709FF204666
:104C100002B010BD204B0122DA74B9E71E4B586870
:104C200019686B460122C9780078FEF7B5FBD0B948
:104C30009DF8003013F00F0318D0042B03D0164B4F
:104C40000022DA74A4E7144B0122DA74A0E74FF0D3
:104C5000FF34DCE74FF0FF34D9E74FF0FF34D6E7FD
:104C60004FF0FF34D3E74FF0FF34D0E74FF0FF347D
:104C7000CDE74FF0FF34CAE74FF0FF34C7E74FF0FE
:104C8000FF34C4E74FF0FF34C1E74FF0FF34BEE715
:104C90004FF0FF34BBE700BF1C0000203AB370B5F3
:104CA00082B00C461646194B9B7A1BB3030A8DF84B
:104CB0000430C0B28DF805000844144B5D686B8960
:104CC00098421ADC114B196801AB0222097E287840
:104CD000FEF731FBA0B90D4B586819683346E2B2B4
:104CE000497D0078FEF727FB68B902B070BD4FF030
:104CF000FF3070474FF0FF30F7E74FF0FF30F4E739
:104D00004FF0FF30F1E74FF0FF30EEE71C000020DE
:104D10003AB370B582B00C461646194B9B7A1BB35A
:104D2000030A8DF80430C0B28DF805000844144B16
:104D30005D686B8998421ADC114B196801AB02223D
:104D4000097E2878FEF7F7FAA0B90D4B5868196864
:104D50003346E2B2497D0078FEF71EFB68B902B027
:104D600070BD4FF0FF3070474FF0FF30F7E74FF066
:104D7000FF30F4E74FF0FF30F1E74FF0FF30EEE7A0
:104D80001C0000202DE9F04F87B09A46294B93F87C
:104D90002530002B3CD107468846914600293AD061
:104DA0000024BC421BD23E1B102EA8BF1026B5B259
:104DB00008EB040B5A4629462046FFF76FFF68BBF5
:104DC00002AA29462046FFF7A3FF50BB2A4602A9A4
:104DD000584601F0C3F838BB2C44A4B2E1E74FEACF
:104DE00019238DF804308DF80590124B5868196816
:104DF00001AB0222897E0078FEF79DFAB8B90D4B0F
:104E0000012283F82520A3F826A007B0BDE8F08F83
:104E10004FF0FF30F9E74FF0FF30F6E74FF0FF308B
:104E2000F3E74FF0FF30F0E76FF00100EDE74FF0F0
:104E3000FF30EAE71C000020234B93F82430834224
:104E40003CD030B583B018B31F4B93F82530002BFE
:104E500036D00020FEF7A6FE0020FFF735FC1A4DE5
:104E6000E88CFFF78DFD00248DF8074068680DF190
:104E70000703012223210078FEF75DFA012085F85F
:104E80002400FEF78FFEFFF7EDF8204603B030BD9B
:104E90000020FEF787FE0C4D2B7C8DF807306868EC
:104EA0000DF10703012223210078FEF744FA0024C4
:104EB00085F82440FFF7D6F82046E7E70020704742
:104EC0004FF0FF30E2E700BF1C0000202DE9F04169
:104ED00088B005460E463D4B93F82470FFB901A8F3
:104EE000FFF7BCF90DF10700FFF722FA6846FFF75C
:104EF0008BFA0DF10200FFF7F3FA344B93F80A80B6
:104F00000DF10600FFF746FB0024012C0CDC00220B
:104F100031462846FEF792FE30B10134F5E7002015
:104F2000FFF78AFF0127DAE7022C1FD00024012CAB
:104F300007DC012202A905A8FEF780FE08B10134B2
:104F4000F5E7022C14D002A93046FEF757FDC6B291
:104F500005A92846FEF7A6FD10F0FF0F04D0002497
:104F60003EB944F0020404E00124F9E7002400E023
:104F70000024164BFF221A725A72DA724FF6FF7132
:104F8000D9819A721A7401221A73BDF80400FFF7CE
:104F900083F99DF80700FFF7EDF9BDF80000FFF772
:104FA00055FABDF80200FFF7EBFC4046FFF738FD6D
:104FB0009DF80600FFF7F6FA1FB9204608B0BDE8D5
:104FC000F0810120FFF738FFF7E700BF1C00002049
:104FD00010B588B002A905A8FFF778FF032802D012
:104FE000012008B010BD01A8FFF788FA019C0598C0
:104FF000FBF786FD2146FBF7D7FDFBF79BFF0590EE
:105000000698FBF77DFD2146FBF7CEFDFBF792FFEF
:1050100006900798FBF774FD2146FBF7C5FDFBF7EB
:1050200089FF079005A800F04FFA0DF10200FFF785
:105030008BFABDF80220029B02FB03F30293039B51
:1050400002FB03F30393049B02FB03F3049302A804
:1050500000F0C2FA0020C4E790F90030002B01DD17
:10506000002070470FDB90F90130002B01DD01209B
:1050700070470ADB90F90230002B08DC01DB0720C7
:1050800070470620704704207047052070470220B3
:10509000704738B50546FFF7DFFF0446E81CFFF709
:1050A000DBFF44EAC00424B2A81DFFF7D5FF44EAA1
:1050B000801080B238BD704708B5FEF7D9FAFFF707
:1050C00021FD08B1002008BD7820FFF7A9FC10F0F1
:1050D000FF0F01D00120F6E77820FFF763FA10F008
:1050E000FF0F2AD16420FFF74BFC10F0FF0F26D1F1
:1050F00000F038F910F0FF0F23D11748FFF7C9FF70
:1051000000F03CF910F0FF0F1DD140F2731000F0D9
:10511000FBFC10F0FF0F18D1642000F0D7FA10F05C
:10512000FF0F14D1FFF754FF98B90120FFF784FE59
:1051300010F0FF00C7D00920C5E70220C3E7032015
:10514000C1E70420BFE70520BDE70620BBE7072035
:10515000B9E70820B7E700BF1000002000000000FA
:105160002DE9F04F8FB00646029193460DF12103D1
:1051700001930DF1220300930DAB04AA09A90BA81A
:1051800000F0CEFD002840F0C780BDF8223013F4B7
:10519000807F00F0C3800498FBF7B2FC4FF04251CF
:1051A000FBF702FD82460598FBF7AAFC4FF042513F
:1051B000FBF7FAFC05460698FBF7A2FC4FF04251BC
:1051C000FBF7F2FC04460798FBF79AFC4FF04251BC
:1051D000FBF7EAFC07464FF040412846FBF7E4FCAA
:1051E00081463946FBF7E0FC804651465046FBF7C6
:1051F000D3FB03902146FBF7D7FC01464046FBF763
:10520000CBFBFBF709F900F0A5FF45A3D3E9002389
:10521000FBF75AF9FBF76AFB306021462046FBF7A3
:10522000BBFB80463946FBF7BFFC06462946039880
:10523000FBF7BAFC01463046FBF7AEFB06462946B3
:105240004846FBF7B1FC814621464046FBF7ACFCE3
:1052500001464846FBF79EFB4FF07E51FBF79CFB57
:10526000FBF7DAF8804689463046FBF7D5F8424628
:105270004B4600F097FF2AA3D3E90023FBF724F95C
:10528000FBF734FB029B186021462846FBF78CFC99
:10529000064639465046FBF787FC01463046FBF789
:1052A0007BFB0146FBF778FB064651465046FBF771
:1052B0007BFC804629462846FBF776FC01464046A3
:1052C000FBF76AFB054621462046FBF76DFC0146CD
:1052D0002846FBF75FFB044639463846FBF764FC7B
:1052E00001462046FBF756FBFBF796F804460D46B1
:1052F0003046FBF791F822462B4600F053FF08A3F7
:10530000D3E90023FBF7E0F8FBF7F0FACBF8000055
:1053100000200FB0BDE8F08F0120FAE70220F8E787
:105320006666666666A64C4038B50446C57843781E
:1053300013F0010F09D005F03F00C00805F0070188
:105340000131074B1B6803B19847637813F0080FCE
:1053500004D0034B5B680BB1A8099847002038BD07
:105360009405002008B5C8234FF48062024940F636
:10537000F630FFF707FD08BD3C6D000810B586B09C
:1053800004464C4B1B68ADF80C301B0C8DF80E30EE
:10539000494B1B68ADF808301B0C8DF80A30474BA1
:1053A0001B68ADF804301B0C8DF80630444B1B68AD
:1053B000ADF800301B0C8DF8023000F0030101F154
:1053C00018030DEB030111F80C3C8DF81430C0F3F9
:1053D000C10202F118030DEB030212F80C3C8DF828
:1053E0001530C0F3811318336B4413F80C0C8DF88F
:1053F000160011F8101C8DF8101012F8102C8DF8F2
:10540000112013F8103C8DF8123005AA032140F248
:105410002640FFF743FC002840D104AA032140F2B4
:105420002A40FFF73BFC00283BD1019BADF814302C
:105430001B0C8DF81630009BADF810301B0C8DF84E
:10544000123014F0040F05D037238DF814302723C1
:105450008DF8103014F0200F05D057238DF815303B
:1054600047238DF8113014F4807F05D077238DF811
:10547000163067238DF8123005AA03214FF4886097
:10548000FFF70CFC80B904AA032140F23140FFF77A
:1054900005FC60B90B4B1C8106B010BD4FF0FF300E
:1054A000FAE74FF0FF30F7E74FF0FF30F4E74FF047
:1054B000FF30F1E7046D0008086D00080C6D00086E
:1054C000106D00089405002030B585B0404B1B8955
:1054D00003F0030250F82220019213F0040F01D0D0
:1054E00052420192C3F3C10250F82220029213F0FB
:1054F000200F01D052420292C3F3811250F82220B1
:10550000039213F4807F01D052420392019BD8177B
:10551000304AA3FB023102FB00119B0F43EA8103D7
:1055200001930299C817A1FB021502FB0055890FD0
:1055300041EA85050295039CE017A4FB024102FBAA
:105540000012A40F44EA820403941A0E8DF800207E
:10555000C3F307428DF80120C3F307228DF8022020
:105560008DF803306A4604214FF47470FFF796FB00
:1055700040BB2B0E8DF80030C5F307438DF801308A
:10558000C5F307238DF802308DF803506A460421D5
:105590004FF47570FFF782FBB8B9230E8DF8003019
:1055A000C4F307438DF80130C4F307238DF80230AC
:1055B0008DF803406A4604214FF47670FFF76EFBC6
:1055C00005B030BD4FF0FF30FAE74FF0FF30F7E79E
:1055D0009405002009E3CA0210B588B004460DF115
:1055E0000600FEF7B1FFBDF806C04FEACC3C364BD3
:1055F0001A8902F0030354F82330059312F0040FC4
:1056000001D05B420593C2F3C10354F823300693E3
:1056100012F0200F01D05B420693C2F3811354F8BD
:105620002330079312F4807F01D05B4207930599E2
:10563000CA17A1FB0C130CFB0233890F41EA83014B
:105640000591069AD017A2FB0C230CFB0033920F96
:1056500042EA83020692079BDC17A3FB0C300CFB8B
:10566000040C9B0F43EA8C030793080E8DF8080087
:10567000C1F307408DF80900C1F307208DF80A0037
:105680008DF80B10110E8DF80C10C2F307418DF838
:105690000D10C2F307218DF80E108DF80F201A0E91
:1056A0008DF81020C3F307428DF81120C3F30722B1
:1056B0008DF812208DF8133002AA0C214FF42570BA
:1056C000FFF7ECFA08B010BD9405002010B586B0C5
:1056D0000446164B93E8070006AB03E90700C82C05
:1056E0001AD8C82393FBF4F3013B1A0E8DF804205B
:1056F0008DF8053001AA022140F21620FFF7CEFAFC
:1057000068B903AA0C2140F6C120FFF7C7FA48B9CF
:10571000074B9C8106B010BD4FF0FF30FAE74FF009
:10572000FF30F7E74FF0FF30F4E700BF146D0008DB
:105730009405002070B582B0044610F0070F00F009
:10574000AC800846B1F5C86F00F2AA80FBF7D4F927
:105750005B49FBF7DDFA05460DF10300FEF7E8FDB6
:105760009DF80330023B0E2B00F29D80DFE803F032
:10577000089B2C9B9B9B3C9B9B9B9B9B9B9B4C00C4
:105780004FF08D412846FBF70FFAFBF7F9FB86B285
:105790004C492846FBF708FAFBF7F2FB80B2330AC4
:1057A0008DF804308DF80560030A8DF806308DF809
:1057B000070014F0010F37D114F0020F48D114F094
:1057C000040F58D1002070E04FF08C412846FBF7C1
:1057D000EBF9FBF7D5FB86B23B492846FBF7E4F92A
:1057E000FBF7CEFB80B2DAE74FF08B412846FBF7A0
:1057F000DBF9FBF7C5FB86B234492846FBF7D4F941
:10580000FBF7BEFB80B2CAE74FF08A412846FBF7A0
:10581000CBF9FBF7B5FB86B22D492846FBF7C4F957
:10582000FBF7AEFB80B2BAE701AA02214FF4EA709F
:10583000FFF734FA00283AD10DF1060202214FF4A5
:105840009270FFF72BFA0028B6D04FF0FF302CE013
:1058500001AA02214FF4EC70FFF720FA50BB0DF1C2
:10586000060202214FF49470FFF718FA0028A6D020
:105870004FF0FF3019E001AA02214FF4EE70FFF75C
:105880000DFAD0B90DF1060202214FF49670FFF720
:1058900005FA50B14FF0FF3007E04FF0FF3004E061
:1058A0004FF0FF3001E04FF0FF3002B070BD4FF01D
:1058B000FF30FAE74FF0FF30F7E74FF0FF30F4E743
:1058C00000004843000040460000C045000040453D
:1058D0000000C04400B583B000238DF8073010F0FD
:1058E000010F02D030238DF8073010F0020F05D0E1
:1058F0009DF8073043F00C038DF8073010F0040FCB
:1059000005D09DF8073043F003038DF807300DF103
:10591000070201214FF4A470FFF7C0F903B05DF84E
:1059200004FB00B583B020B10346042802D9042348
:1059300000E00123013B8DF807300DF10702012142
:1059400040F24F10FFF7AAF903B05DF804FB000026
:1059500000B583B0094BA3FB0030830A8DF80430F7
:10596000C0F387008DF8050001AA02214FF4EF7003
:10597000FFF794F903B05DF804FB00BFCDCCCCCCAD
:1059800000B583B0094BA3FB0030830A8DF80430C7
:10599000C0F387008DF8050001AA02214FF4ED70D5
:1059A000FFF77CF903B05DF804FB00BFCDCCCCCC95
:1059B00000B583B00E4B83FB0023C017C0EBA310D0
:1059C00000FB01F10B0E8DF80430C1F307438DF895
:1059D0000530C1F307238DF806308DF8071001AAB2
:1059E00004214FF4AE70FFF759F903B05DF804FBE2
:1059F000D34D621000B583B0084BA3FB0030830881
:105A0000800A8DF804008DF8053001AA02214FF4B8
:105A1000AD70FFF743F903B05DF804FBCDCCCCCCFF
:105A200000B583B0084BA3FB00308308800A8DF8D3
:105A300004008DF8053001AA02214FF4AC70FFF785
:105A40002DF903B05DF804FBCDCCCCCC00B585B00E
:105A500068B10D4A01AB07CA03C31A7001AA092134
:105A60004FF49760FFF71AF905B05DF804FB074A99
:105A700001AB07CA03C31A7001AA09214FF497604A
:105A8000FFF70CF9F0E700BF246D0008306D000847
:105A900000B583B0B0B1C0238DF80430C2238DF8B7
:105AA0000530C4238DF80630C6238DF8073001AACF
:105AB000042140F69820FFF7F1F8FEF7D3FA03B07F
:105AC0005DF804FB4FF08B330193F0E700B583B032
:105AD000B0B120238DF8043028238DF80530302311
