:020000040800F2
:10000000FF4F002085310008CB2E0008CD2E0008C0
:10001000CF2E0008D12E0008D32E000800000000CB
:10002000000000000000000000000000D52E0008C5
:10003000D72E000800000000D92E0008DB2E000893
:10004000CD310008CD310008CD310008CD31000898
:10005000CD310008CD310008CD310008CD31000888
:10006000CD310008CD310008CD310008CD31000878
:10007000CD310008CD310008CD310008CD31000868
:10008000CD310008CD310008CD310008CD31000858
:10009000CD310008CD310008CD310008CD31000848
:1000A000CD310008CD310008CD310008CD31000838
:1000B000C93F0008F12D00081D400008CD3100089F
:1000C000CD310008CD310008CD310008CD31000818
:1000D000CD31000819310008CD310008CD310008BC
:1000E000CD310008CD310008CD31000800000000FE
:1000F0000000000000000000000000000000000000
:0C01000000000000000000005FF808F1A3
:1001100010B5054C237833B9044B13B10448AFF341
:1001200000800123237010BD000B002000000000A0
:10013000C4AB000808B5034B1BB103490348AFF338
:10014000008008BD00000000040B0020C4AB0008C4
:1001500081F0004102E000BF83F0004330B54FEA78
:1001600041044FEA430594EA050F08BF90EA020FE5
:100170001FBF54EA000C55EA020C7FEA645C7FEA78
:10018000655C00F0E2804FEA5454D4EB5555B8BF9B
:100190006D420CDD2C4480EA020281EA030382EA0C
:1001A000000083EA010180EA020281EA0303362D9E
:1001B00088BF30BD11F0004F4FEA01314FF4801C71
:1001C0004CEA113102D0404261EB410113F0004F83
:1001D0004FEA03334CEA133302D0524263EB43033A
:1001E00094EA050F00F0A780A4F10104D5F1200ED8
:1001F0000DDB02FA0EFC22FA05F2801841F1000133
:1002000003FA0EF2801843FA05F359410EE0A5F106
:1002100020050EF1200E012A03FA0EFC28BF4CF037
:10022000020C43FA05F3C01851EBE37101F00045ED
:1002300007D54FF0000EDCF1000C7EEB00006EEBFA
:100240000101B1F5801F1BD3B1F5001F0CD3490884
:100250005FEA30004FEA3C0C04F101044FEA4452DB
:1002600012F5800F80F09A80BCF1004F08BF5FEA62
:10027000500C50F1000041EB045141EA050130BD42
:100280005FEA4C0C404141EB0101013C28BFB1F554
:10029000801FE9D291F0000F04BF01460020B1FA9F
:1002A00081F308BF2033A3F10B03B3F120020CDA72
:1002B0000C3208DD02F1140CC2F10C0201FA0CF050
:1002C00021FA02F10CE002F11402D8BFC2F1200CB5
:1002D00001FA02F120FA0CFCDCBF41EA0C0190406B
:1002E000E41AA2BF01EB0451294330BD6FEA0404B4
:1002F0001F3C1CDA0C340EDC04F11404C4F120029F
:1003000020FA04F001FA02F340EA030021FA04F3B0
:1003100045EA030130BDC4F10C04C4F1200220FA07
:1003200002F001FA04F340EA0300294630BD21FA45
:1003300004F0294630BD94F0000F83F4801306BF0B
:1003400081F480110134013D4EE77FEA645C18BFFF
:100350007FEA655C29D094EA050F08BF90EA020F96
:1003600005D054EA000C04BF1946104630BD91EA8E
:10037000030F1EBF0021002030BD5FEA545C05D191
:100380004000494128BF41F0004130BD14F58004D0
:100390003CBF01F5801130BD01F0004545F0FE4144
:1003A00041F470014FF0000030BD7FEA645C1ABF79
:1003B000194610467FEA655C1CBF0B46024650EAB0
:1003C000013406BF52EA033591EA030F41F40021DC
:1003D00030BD00BF90F0000F04BF0021704730B562
:1003E0004FF4806404F132044FF000054FF0000137
:1003F00050E700BF90F0000F04BF0021704730B5F8
:100400004FF4806404F1320410F0004548BF4042CC
:100410004FF000013EE700BF42004FEAE2014FEA21
:1004200031014FEA02701FBF12F07F4393F07F4FFC
:1004300081F06051704732F07F4208BF704793F0FF
:100440007F4F04BF41F40021704730B54FF4607412
:1004500001F0004521F000411CE700BF50EA010215
:1004600008BF704730B54FF000050AE050EA0102BE
:1004700008BF704730B511F0004502D5404261EB2E
:1004800041014FF4806404F132045FEA915C3FF46F
:10049000D8AE4FF003025FEADC0C18BF03325FEA0C
:1004A000DC0C18BF033202EBDC02C2F1200300FABD
:1004B00003FC20FA02F001FA03FE40EA0E0021FAE2
:1004C00002F11444BDE600BF70B54FF0FF0C4CF4D0
:1004D000E06C1CEA11541DBF1CEA135594EA0C0F82
:1004E00095EA0C0F00F0DEF82C4481EA030621EABD
:1004F0004C5123EA4C5350EA013518BF52EA0335F8
:1005000041F4801143F4801338D0A0FB02CE4FF0A9
:100510000005E1FB02E506F00042E0FB03E54FF0D9
:100520000006E1FB03569CF0000F18BF4EF0010ED1
:10053000A4F1FF04B6F5007F64F5407404D25FEACD
:100540004E0E6D4146EB060642EAC62141EA555180
:100550004FEAC52040EA5E504FEACE2EB4F1FD0CC2
:1005600088BFBCF5E06F1ED8BEF1004F08BF5FEA40
:10057000500E50F1000041EB045170BD06F00046F2
:1005800046EA010140EA020081EA0301B4EB5C049F
:10059000C2BFD4EB0C0541EA045170BD41F4801197
:1005A0004FF0000E013C00F3AB8014F1360FDEBFBC
:1005B000002001F0004170BDC4F10004203C35DA98
:1005C0000C341BDC04F11404C4F1200500FA05F31B
:1005D00020FA04F001FA05F240EA020001F00042BC
:1005E00021F0004110EBD37021FA04F642EB060132
:1005F0005EEA430E08BF20EAD37070BDC4F10C045C
:10060000C4F1200500FA04F320FA05F001FA04F21F
:1006100040EA020001F0004110EBD37041F100010B
:100620005EEA430E08BF20EAD37070BDC4F1200516
:1006300000FA05F24EEA020E20FA04F301FA05F27E
:1006400043EA020321FA04F001F0004121FA04F226
:1006500020EA020000EBD3705EEA430E08BF20EAF6
:10066000D37070BD94F0000F0FD101F00046400030
:1006700041EB010111F4801F08BF013CF7D041EAB2
:10068000060195F0000F18BF704703F000465200B6
:1006900043EB030313F4801F08BF013DF7D043EA87
:1006A0000603704794EA0C0F0CEA135518BF95EA3D
:1006B0000C0F0CD050EA410618BF52EA4306D1D1C4
:1006C00081EA030101F000414FF0000070BD50EAE3
:1006D000410606BF1046194652EA430619D094EA6D
:1006E0000C0F02D150EA013613D195EA0C0F05D157
:1006F00052EA03361CBF104619460AD181EA0301AB
:1007000001F0004141F0FE4141F470014FF0000062
:1007100070BD41F0FE4141F4780170BD70B54FF0FD
:10072000FF0C4CF4E06C1CEA11541DBF1CEA13557D
:1007300094EA0C0F95EA0C0F00F0A7F8A4EB05045F
:1007400081EA030E52EA03354FEA013100F0888056
:100750004FEA03334FF0805545EA131343EA12631F
:100760004FEA022245EA111545EA10654FEA0026D4
:100770000EF000419D4208BF964244F1FD0404F58D
:10078000407402D25B084FEA3202B61A65EB0305E9
:100790005B084FEA32024FF480104FF4002CB6EBA6
:1007A000020E75EB030E22BFB61A754640EA0C0026
:1007B0005B084FEA3202B6EB020E75EB030E22BF66
:1007C000B61A754640EA5C005B084FEA3202B6EBA7
:1007D000020E75EB030E22BFB61A754640EA9C0066
:1007E0005B084FEA3202B6EB020E75EB030E22BF36
:1007F000B61A754640EADC0055EA060E18D04FEAF4
:10080000051545EA16754FEA06164FEAC30343EA93
:1008100052734FEAC2025FEA1C1CC0D111F4801F60
:100820000BD141EA00014FF000004FF0004CB6E759
:1008300011F4801F04BF01430020B4F1FD0C88BFF8
:10084000BCF5E06F3FF6AFAEB5EB030C04BFB6EB03
:10085000020C5FEA500C50F1000041EB045170BDF6
:100860000EF0004E4EEA113114EB5C04C2BFD4EB23
:100870000C0541EA045170BD41F480114FF0000EA7
:10088000013C90E645EA060E8DE60CEA135594EA23
:100890000C0F08BF95EA0C0F3FF43BAF94EA0C0F26
:1008A0000AD150EA01347FF434AF95EA0C0F7FF49B
:1008B00025AF104619462CE795EA0C0F06D152EAEF
:1008C00003353FF4FDAE1046194622E750EA4106D3
:1008D00018BF52EA43067FF4C5AE50EA41047FF4E4
:1008E0000DAF52EA43057FF4EBAE12E74FEA410247
:1008F00012F5001215D211D56FF47873B3EB625272
:1009000012D94FEAC12343F0004343EA505311F098
:10091000004F23FA02F018BF404270474FF000002A
:10092000704750EA013005D111F0004008BF6FF068
:10093000004070474FF00000704700BF4FEA41028F
:10094000B2F1E04324BFB3F5001CDCF1FE5C0DD92D
:1009500001F0004C4FEAC0024CEA5070B2F1004F77
:1009600040EB830008BF20F00100704711F0804F7A
:1009700021D113F13872BCBF01F00040704741F43F
:1009800080114FEA5252C2F11802C2F1200C10FA43
:100990000CF320FA02F018BF40F001004FEAC12327
:1009A0004FEAD32303FA0CFC40EA0C0023FA02F3CB
:1009B0004FEA4303CCE77FEA625307D150EA0133A1
:1009C0001EBF4FF0FE4040F44000704701F0004071
:1009D00040F0FE4040F40000704700BF80F000404F
:1009E00002E000BF81F0004142001FBF5FEA410307
:1009F00092EA030F7FEA226C7FEA236C6AD04FEA07
:100A00001262D2EB1363C1BFD2184140484041404B
:100A1000B8BF5B42192B88BF704710F0004F40F4FD
:100A2000000020F07F4018BF404211F0004F41F419
:100A3000000121F07F4118BF494292EA030F3FD0E5
:100A4000A2F1010241FA03FC10EB0C00C3F12003F8
:100A500001FA03F100F0004302D5494260EB400087
:100A6000B0F5000F13D3B0F1807F06D340084FEAF2
:100A7000310102F10102FE2A51D2B1F1004F40EBE7
:100A8000C25008BF20F0010040EA0300704749004F
:100A900040EB0000013A28BFB0F5000FEDD2B0FAEC
:100AA00080FCACF1080CB2EB0C0200FA0CF0AABF0F
:100AB00000EBC25052421843BCBFD04018437047AD
:100AC00092F0000F81F4000106BF80F400000132B3
:100AD000013BB5E74FEA41037FEA226C18BF7FEA8A
:100AE000236C21D092EA030F04D092F0000F08BFCC
:100AF0000846704790EA010F1CBF0020704712F0B3
:100B00007F4F04D1400028BF40F00040704712F1F1
:100B100000723CBF00F50000704700F0004343F056
:100B2000FE4040F4000070477FEA226216BF08468C
:100B30007FEA23630146420206BF5FEA412390EA4F
:100B4000010F40F4800070474FF0000304E000BF45
:100B500010F0004348BF40425FEA000C08BF7047F6
:100B600043F0964301464FF000001CE050EA0102BA
:100B700008BF70474FF000030AE000BF50EA0102CF
:100B800008BF704711F0004302D5404261EB4101BC
:100B90005FEA010C02BF84460146002043F0B643E1
:100BA00008BFA3F18053A3F50003BCFA8CF2083A06
:100BB000A3EBC25310DB01FA02FC634400FA02FC0F
:100BC000C2F12002BCF1004F20FA02F243EB020016
:100BD00008BF20F00100704702F1200201FA02FC78
:100BE000C2F1200250EA4C0021FA02F243EB02006B
:100BF00008BF20EADC7070474FF0FF0C1CEAD052AF
:100C00001EBF1CEAD15392EA0C0F93EA0C0F6FD06F
:100C10001A4480EA010C400218BF5FEA41211ED04D
:100C20004FF0006343EA501043EA5111A0FB013139
:100C30000CF00040B1F5000F3EBF490041EAD3710E
:100C40005B0040EA010062F17F02FD2A1DD8B3F18A
:100C5000004F40EBC25008BF20F00100704790F0F9
:100C6000000F0CF0004C08BF49024CEA502040EA4B
:100C700051207F3AC2BFD2F1FF0340EAC250704711
:100C800040F400004FF00003013A5DDC12F1190F4F
:100C9000DCBF00F000407047C2F10002410021FAC1
:100CA00002F1C2F1200200FA02FC5FEA310040F1D9
:100CB000000053EA4C0308BF20EADC70704792F052
:100CC000000F00F0004C02BF400010F4000F013A8A
:100CD000F9D040EA0C0093F0000F01F0004C02BF85
:100CE000490011F4000F013BF9D041EA0C018FE7F4
:100CF0000CEAD15392EA0C0F18BF93EA0C0F0AD0FA
:100D000030F0004C18BF31F0004CD8D180EA01001F
:100D100000F00040704790F0000F17BF90F0004FB8
:100D2000084691F0000F91F0004F14D092EA0C0F9A
:100D300001D142020FD193EA0C0F03D14B0218BF2D
:100D4000084608D180EA010000F0004040F0FE4073
:100D500040F40000704740F0FE4040F4400070470F
:100D60004FF0FF0C1CEAD0521EBF1CEAD15392EA8E
:100D70000C0F93EA0C0F69D0A2EB030280EA010C7E
:100D800049024FEA402037D04FF0805343EA111117
:100D900043EA10130CF000408B4238BF5B0042F175
:100DA0007D024FF4000C8B4224BF5B1A40EA0C001A
:100DB000B3EB510F24BFA3EB510340EA5C00B3EB4C
:100DC000910F24BFA3EB910340EA9C00B3EBD10F3A
:100DD00024BFA3EBD10340EADC001B0118BF5FEA8C
:100DE0001C1CE0D1FD2A3FF650AF8B4240EBC250B5
:100DF00008BF20F0010070470CF0004C4CEA502076
:100E00007F32C2BFD2F1FF0340EAC250704740F4C4
:100E100000004FF00003013A37E792F0000F00F0B6
:100E2000004C02BF400010F4000F013AF9D040EA34
:100E30000C0093F0000F01F0004C02BF490011F4C8
:100E4000000F013BF9D041EA0C0195E70CEAD153C0
:100E500092EA0C0F08D142027FF47DAF93EA0C0FA7
:100E60007FF470AF084676E793EA0C0F04D14B028B
:100E70003FF44CAF08466EE730F0004C18BF31F03D
:100E8000004CCAD130F000427FF45CAF31F0004337
:100E90007FF43CAF5FE700BF4FEA4002B2F1FE4F84
:100EA0000FD34FF09E03B3EB12620DD94FEA00232C
:100EB00043F0004310F0004F23FA02F018BF404205
:100EC00070474FF00000704712F1610F01D14202EC
:100ED00005D110F0004008BF6FF0004070474FF0A0
:100EE00000007047844641EA000313F0030349D130
:100EF000403A23D30B6803604B6843608B68836080
:100F0000CB68C3600B6903614B6943618B69836183
:100F1000CB69C3610B6A03624B6A43628B6A83626B
:100F2000CB6AC3620B6B03634B6B43638B6B836353
:100F3000CB6BC36340304031403ADBD230320BD30D
:100F40000B6803604B6843608B688360CB68C36049
:100F500010301031103AF3D20C3205D351F8043B63
:100F600040F8043B043AF9D2043208D0D2071CBF3F
:100F700011F8013B00F8013B01D30B880380604668
:100F8000704700BF082A13D38B07B1D010F00303BA
:100F9000AED0C3F10403D21ADB071CBF11F8013B2A
:100FA00000F8013BA4D331F8023B20F8023B9FE755
:100FB000043AD9D3013A11F8013B00F8013BF9D2C8
:100FC0000B7803704B7843708B7883706046704762
:100FD0004FF0FF3C06E000BF4FF0010C02E000BF05
:100FE0004FF0010C4DF804CD4FEA410C7FEA6C5CE8
:100FF0004FEA430C18BF7FEA6C5C1BD001B050EA8B
:10100000410C0CBF52EA430C91EA030F02BF90EA75
:10101000020F0020704710F1000F91EA030F58BF34
:10102000994208BF90422CBFD8176FEAE37040F096
:10103000010070474FEA410C7FEA6C5C02D150EA34
:10104000013C07D14FEA430C7FEA6C5CD6D152EAEF
:10105000033CD3D05DF8040B704700BF84461046B4
:1010600062468C461946634600E000BF01B5FFF7B3
:10107000B7FF002848BF10F1000F01BD4DF808ED83
:10108000FFF7F4FF0CBF012000205DF808FB00BF54
:101090004DF808EDFFF7EAFF34BF012000205DF8AE
:1010A00008FB00BF4DF808EDFFF7E0FF94BF0120FB
:1010B00000205DF808FB00BF4DF808EDFFF7CEFFFC
:1010C00094BF012000205DF808FB00BF4DF808ED3B
:1010D000FFF7C4FF34BF012000205DF808FB00BF0C
:1010E0004FEA410C7FEA6C5C02D150EA013C0AD124
:1010F0004FEA430C7FEA6C5C02D152EA033C02D116
:101100004FF0000070474FF00100704753B94AB9E3
:10111000002908BF00281CBF4FF0FF314FF0FF30FF
:1011200000F076B9ADF1080C6DE904CE00F006F8D8
:10113000DDF804E0DDE9022304B070472DE9F04753
:10114000089E0D4604468846002B4DD18A4294469F
:1011500068D9B2FA82F252B101FA02F3C2F1200167
:1011600020FA01F10CFA02FC41EA030894404FEA2C
:101170001C41B8FBF1F71FFA8CFE01FB178807FB37
:101180000EF0230C43EA084398420AD91CEB0303F0
:1011900007F1FF3580F01E81984240F21B81023F2B
:1011A00063441B1AB3FBF1F001FB103300FB0EFE8E
:1011B000A4B244EA0344A6450AD91CEB040400F196
:1011C000FF3380F00981A64540F20681644402386D
:1011D0000021A4EB0E0440EA07401EB10023D440D6
:1011E000C6E90043BDE8F0878B4208D9002E00F025
:1011F000EE800021C6E900050846BDE8F087B3FA95
:1012000083F100294AD1AB4202D3824200F2FC8032
:10121000841A65EB030301209846002EE2D0C6E94C
:101220000048DFE702B9FFDEB2FA82F2002A40F09E
:101230009180A1EB0C0001214FEA1C471FFA8CFEA4
:10124000B0FBF7F307FB1300250C45EA00450EFB46
:1012500003F0A84208D91CEB050503F1FF3802D2C0
:10126000A84200F2CE8043462D1AB5FBF7F007FBEB
:1012700010550EFB00FEA4B244EA0544A64508D969
:101280001CEB040400F1FF3502D2A64500F2B68043
:101290002846A4EB0E0440EA03409EE7C1F1200774
:1012A0008B4022FA07FC4CEA030C25FA07FA4FEAB6
:1012B0001C49BAFBF9F820FA07F309FB18AA8D407C
:1012C0001FFA8CFE1D4300FA01F308FB0EF02C0CF4
:1012D00044EA0A44A04202FA01F20BD91CEB0404CE
:1012E00008F1FF3A80F08880A04240F28580A8F1A2
:1012F00002086444241AB4FBF9F009FB104400FB13
:101300000EFEADB245EA0444A64508D91CEB040420
:1013100000F1FF356CD2A6456AD90238644440EA30
:101320000840A0FB0295A4EB0E04AC42C846AE46B2
:1013300056D353D0002E69D0B3EB080264EB0E04F1
:1013400022FA01F304FA07F71F43CC40C6E9007400
:10135000002147E70CFA02FCC2F1200125FA01F353
:101360004FEA1C4720FA01F195400D43B3FBF7F11A
:1013700007FB11331FFA8CFE280C40EA034001FBE7
:101380000EF3834204FA02F408D91CEB000001F1C9
:10139000FF382FD283422DD902396044C01AB0FBE6
:1013A000F7F307FB1300ADB245EA004503FB0EF06F
:1013B000A84208D91CEB050503F1FF3816D2A84254
:1013C00014D9023B6544281A43EA014138E7314603
:1013D000304607E72F46E4E61846F9E64B45A9D222
:1013E000B9EB020865EB0C0E0138A3E74346EAE7C8
:1013F000284694E74146D1E7D0467BE7644402386B
:1014000047E7023B65442FE7084606E73146E9E631
:10141000704700BF10B504460E4B18784FF47A732E
:10142000B3FBF0F30C4A1068B0FBF3F000F0A8F83F
:1014300068B90F2C01D901200AE0002221464FF0A3
:10144000FF3000F057F8054B1C60002000E0012041
:1014500010BD00BF00000020080000200400002094
:1014600008B5074A136843F010031360032000F027
:101470002FF80F20FFF7CEFF01F026FD002008BD5A
:1014800000200240034A1168034B1B780B44136091
:10149000704700BF1C0B002000000020014B1868A3
:1014A000704700BF1C0B002038B50446FFF7F6FF5D
:1014B0000546B4F1FF3F02D0044B1B781C44FFF7F4
:1014C000EDFF401BA042FAD338BD00BF0000002052
:1014D000074AD36823F4E0631B041B0C000200F4EA
:1014E000E060034343F0BF6343F40033D3607047CD
:1014F00000ED00E000B5194BDB68C3F30223C3F134
:10150000070CBCF1040F28BF4FF0040C03F1040ECC
:10151000BEF1060F18D9033B4FF0FF3E0EFA0CFC4C
:1015200021EA0C0199400EFA03F322EA030319435E
:1015300000280BDB0901C9B200F1604000F56140F1
:1015400080F800135DF804FB0023E5E700F00F00CE
:101550000901C9B2024B1954F4E700BF00ED00E0E5
:1015600014ED00E0002807DB00F01F024009012312
:101570009340024A42F82030704700BF00E100E08B
:101580000138B0F1807F0BD24FF0E0235861054A5B
:10159000F02182F823100020986107221A61704719
:1015A0000120704700ED00E090F82130DBB2022B03
:1015B00006D004238363002380F820300120704785
:1015C0000268136823F00E0313600268136823F0A7
:1015D00001031360036CC16B012202FA03F34B6039
:1015E00080F82120002380F8203018467047000042
:1015F00008B590F82130DBB2022B03D004238363BB
:10160000012008BD0268136823F00E03136002680E
:10161000136823F0010313600368194A934214D03E
:10162000143293421FD0143293421ED0143293428C
:101630001ED0143293421ED01432934202D04FF087
:10164000807203E04FF4801200E001220D4B5A60DB
:10165000012380F82130002380F82030436B6BB1E8
:1016600098470020CDE71022F0E74FF48072EDE7B5
:101670004FF48052EAE74FF48032E7E70020C0E7FA
:10168000080002400000024070B582B00024A44669
:10169000A6E0804DAA4210D007D97F4DAA420CD0B7
:1016A00005F58035AA4208D013E0A5F58015AA42B9
:1016B00003D005F57025AA4207D18A68002A58D0C0
:1016C000012A51D04361082403E0A5F58015AA4200
:1016D000F3D0BEF1FF0F4ED80646BEF1FF0F4CD837
:1016E0004FEA8C0233680F25954023EA050304FA7C
:1016F00002F2134333604B6813F0805F6ED0674B88
:101700009A6942F001029A619B6903F00103019317
:10171000019B4FEA9C02951C614B53F825600CF02D
:1017200003039D000F23AB4026EA03065D4B98425E
:1017300029D003F58063984200F08E8003F5806322
:10174000984200F08B8003F58063984219D00423FF
:101750001AE0CC68BDE7CC680434BAE7CC6808343A
:10176000B7E7CC680C34B4E703610824B1E7002480
:10177000AFE70424ADE7061DAFE7ACF10802920025
:10178000B0E7032300E00023AB4033430232444D73
:1017900045F822304B6813F4803F61D0424A136809
:1017A00043EA0E0313604B6813F4003F5ED03E4AD9
:1017B000536843EA0E0353604B6813F4801F5BD0F9
:1017C000394A936843EA0E0393604B6813F4001F91
:1017D00058D0354AD36843EA0E03D3600CF1010CAC
:1017E0000A6832FA0CF353D0012303FA0CF302EA2D
:1017F000030E33EA0202F1D14A68122A3FF649AFDA
:10180000122A3FF666AF01A555F822F0BB16000874
:10181000531700085D1700086F170008D31600085B
:10182000D3160008D3160008D3160008D3160008F4
:10183000D3160008D3160008D3160008D3160008E4
:10184000D3160008D3160008D3160008D3160008D4
:101850005717000863170008012395E7022393E751
:10186000114A136823EA0E0313609CE70E4A53687B
:1018700023EA0E0353609FE70B4A936823EA0E03A3
:101880009360A2E7084AD36823EA0E03D360A5E772
:1018900002B070BD000022100000311000100240A4
:1018A00000000140000801400004014000226DE0FA
:1018B000032500E0002505FA04F4644542D0FF2B1F
:1018C0005BD80646FF2B5AD8950034684FF00F0EB0
:1018D0000EFA05FE24EA0E044FF0040C0CFA05FC87
:1018E00044EA0C043460C46824EA0303C360013290
:1018F00031FA02F348D0012393400B40F7D04FEA6E
:10190000920E0EF10205264C54F8255002F0030405
:10191000A4000F26A64006EA050C224DA842C9D015
:1019200005F58065A84209D005F58065A84207D075
:1019300005F58065A842BBD00425BCE70125BAE7C0
:101940000225B8E7164F0EF1020457F8245025EA95
:10195000060647F82460144C256825EA030525602F
:10196000656825EA03056560A56825EA0305A560A5
:10197000E56825EA0305E560A1E7061DA2E7A2F1F7
:10198000080C4FEA8C05A0E7F0BD013231FA02F3F2
:1019900005D0012393400B40F7D0F0B5AFE7704777
:1019A0000000014000080140000401408368194222
:1019B00001D001207047002070470AB101617047D3
:1019C000090401617047000082B0084B1B68084A97
:1019D000A2FB03235B0A00FB03F3019300BF019BFF
:1019E0005A1E0192002BF9D102B070470800002066
:1019F000D34D6210002800F0F18170B582B004462A
:101A0000036813F0010F2CD0994B5B6803F00C03B3
:101A1000042B1DD0964B5B6803F00C03082B12D0EF
:101A20006368B3F5803F41D0002B55D103F180436B
:101A300003F504331A6822F480321A601A6822F41B
:101A400080221A6037E08A4B5B6813F4803FE7D04E
:101A5000874B1B6813F4003F03D06368002B00F032
:101A6000BF81236813F0020F75D0814B5B6813F0C0
:101A70000C0F5FD07E4B5B6803F00C03082B54D037
:101A80002369002B00F08A807A4B01221A60FFF74D
:101A900005FD0546764B1B6813F0020F75D1FFF765
:101AA000FDFC401B0228F5D903209EE1704A136813
:101AB00043F480331360636843B3FFF7EFFC0546DC
:101AC0006B4B1B6813F4003FCBD1FFF7E7FC401BC7
:101AD0006428F5D9032088E1B3F5A02F09D0644B21
:101AE0001A6822F480321A601A6822F480221A607E
:101AF000E1E703F18043A3F53C331A6842F4802206
:101B00001A601A6842F480321A60D4E7FFF7C6FC04
:101B10000546574B1B6813F4003FA2D0FFF7BEFCED
:101B2000401B6428F5D903205FE1514B5B6813F437
:101B3000803FA5D14E4B1B6813F0020F03D02369E1
:101B4000012B40F04F814A4A136823F0F803616982
:101B500043EAC1031360236813F0080F33D0A3696D
:101B6000002B5CD0434B0122C3F88024FFF796FC86
:101B700005463F4B5B6A13F0020F21D1FFF78EFC45
:101B8000401B0228F5D903202FE1394A136823F0BE
:101B9000F803616943EAC1031360DCE7354B0022B7
:101BA0001A60FFF77BFC0546314B1B6813F0020FF0
:101BB000D1D0FFF773FC401B0228F5D9032014E1B4
:101BC0000120FFF701FF236813F0040F00F0968057
:101BD000274BDB6913F0805F34D1254BDA6942F083
:101BE0008052DA61DB6903F080530193019B012588
:101BF000214B1B6813F4807F26D0E368012B3DD076
:101C0000002B53D103F1804303F504331A6A22F009
:101C100001021A621A6A22F004021A6233E0154BBA
:101C20000022C3F88024FFF739FC0546104B5B6A9D
:101C300013F0020FC7D0FFF731FC401B0228F5D983
:101C40000320D2E00025D3E70B4A136843F48073E6
:101C50001360FFF723FC0646074B1B6813F4807FD5
:101C6000CBD1FFF71BFC801B6428F5D90320BCE017
:101C70000010024000004242007000405F4A136AB8
:101C800043F001031362E36833B3FFF707FC064632
:101C90005A4B1B6A13F0020F2FD1FFF7FFFB801B7B
:101CA00041F288339842F3D903209EE0052B09D0F6
:101CB000524B1A6A22F001021A621A6A22F00402D6
:101CC0001A62E0E74D4B1A6A42F004021A621A6A7D
:101CD00042F001021A62D6E7FFF7E0FB0646474BE7
:101CE0001B6A13F0020F08D0FFF7D8FB801B41F2EC
:101CF00088339842F3D9032077E0E5B9E369002BF4
:101D000072D03E4A526802F00C02082A56D0022BCA
:101D100017D03B4B00221A66FFF7C0FB0446374B37
:101D20001B6813F0007F47D0FFF7B8FB001B0228A9
:101D3000F5D9032059E0314AD36923F08053D361A8
:101D4000DCE72F4B00221A66FFF7A8FB05462B4B5A
:101D50001B6813F0007F06D0FFF7A0FB401B022892
:101D6000F5D9032041E0236AB3F5803F1AD0234917
:101D70004B6823F47413226A606A024313434B6076
:101D80001F4B01221A66FFF789FB04461B4B1B6899
:101D900013F0007F0ED1FFF781FB001B0228F5D95D
:101DA000032022E0154A536823F40033A1680B4353
:101DB0005360DCE7002018E0002016E0012B16D06D
:101DC0000E4B5B6803F48031226A914211D103F417
:101DD0007013626A93420ED1002006E00120704722
:101DE000012002E0012000E0002002B070BD0120CF
:101DF000FBE70120F9E70120F7E700BF00100240F0
:101E00000000424286B0174B0FCB0DF1180C0CE9C5
:101E10000F0040F20123ADF80430134B5B6803F070
:101E20000C02082A02D0114806B07047C3F383425F
:101E300018326A4412F8100C13F4803F0DD00A4B8C
:101E40005B68C3F3404318336B4413F8143C074AF0
:101E500002FB00F0B0FBF3F0E6E7054B03FB00F0FC
:101E6000E2E700BFE0AB00080010024000127A0079
:101E700000093D00002800F0A08070B50D46044622
:101E8000524B1B6803F007038B420BD24F4A136877
:101E900023F007030B431360136803F007038B421F
:101EA00040F08D80236813F0020F17D013F0040F59
:101EB00004D0474A536843F4E0635360236813F047
:101EC000080F04D0424A536843F460535360404AB9
:101ED000536823F0F003A1680B435360236813F0A9
:101EE000010F31D06368012B20D0022B25D0384A56
:101EF000126812F0020F64D035494A6822F00302DA
:101F000013434B60FFF7CAFA0646314B5B6803F098
:101F10000C036268B3EB820F16D0FFF7BFFA801B89
:101F200041F288339842F0D9032045E0284A1268EC
:101F300012F4003FE0D101203EE0254A126812F081
:101F4000007FD9D1012037E0204B1B6803F0070345
:101F5000AB420AD91D4A136823F007032B431360D1
:101F6000136803F00703AB422DD1236813F0040F6D
:101F700006D0174A536823F4E063E1680B435360CB
:101F8000236813F0080F07D0114A536823F46053F5
:101F9000216943EAC1035360FFF734FF0C4B5B68D0
:101FA000C3F303130B4AD35CD8400B4B18600B4BA5
:101FB0001868FFF72FFA002070BD0120704701203C
:101FC000FAE70120F8E70120F6E700BF0020024011
:101FD00000100240F4AB00080800002004000020BC
:101FE000014B1868704700BF0800002008B5FFF7D4
:101FF000F7FF044B5B68C3F30223034AD35CD8406A
:1020000008BD00BF0010024004AC000808B5FFF78F
:10201000E7FF044B5B68C3F3C223034AD35CD84099
:1020200008BD00BF0010024004AC000870B4036A91
:1020300023F001030362036A4668826922F0730297
:102040000C6844EA020523F002028B6813430D4C2E
:10205000A04209D00B4CA0420DD0466085614A6871
:102060004263036270BC704723F00803CA681343DD
:1020700023F00403EEE726F440764A6932438E6982
:102080001643EAE7002C014030B4036A23F480735E
:102090000362036A4568C26922F073020C68224336
:1020A00023F400738C6843EA04230F4CA04209D048
:1020B0000D4CA0420ED04560C2614A68C263036203
:1020C00030BC704723F40063CC6843EA042323F454
:1020D0008063EDE725F440554C6945EA04158C69A9
:1020E00045EA0415E7E700BF002C014030B4036A5D
:1020F00023F480530362036A4468C26922F4E6420F
:102100000D6842EA052223F400538D6843EA053343
:10211000074DA84206D04460C2614A680264036267
:1021200030BC704724F480444D6944EA8514F2E7DA
:10213000002C014090F83D30DBB2012B27D1022367
:1021400080F83D300268D36843F00103D360036830
:10215000114A934210D0B3F1804F0DD0A2F59432C2
:10216000934209D002F58062934205D01A6842F08A
:1021700001021A60002070479A6802F00702062ADE
:1021800007D01A6842F001021A600020704701204F
:1021900070470020704700BF002C01407047704717
:1021A0007047704710B5044603681A6912F0020FB1
:1021B00011D0DA6812F0020F0DD06FF002021A612E
:1021C0000123037703689B6913F0030F70D0FFF7B7
:1021D000E6FF0023237723681A6912F0040F12D058
:1021E000DA6812F0040F0ED06FF004021A610223B5
:1021F000237723689B6913F4407F5FD02046FFF765
:10220000CEFF0023237723681A6912F0080F12D03B
:10221000DA6812F0080F0ED06FF008021A6104237A
:1022200023772368DB6913F0030F4ED02046FFF7B6
:10223000B6FF0023237723681A6912F0100F12D01B
:10224000DA6812F0100F0ED06FF010021A61082336
:1022500023772368DB6913F4407F3DD02046FFF7E6
:102260009EFF0023237723681A6912F0010F03D021
:10227000DA6812F0010F36D123681A6912F0800F64
:1022800003D0DA6812F0800F34D123681A6912F093
:10229000400F03D0DA6812F0400F32D123681A6978
:1022A00012F0200F03D0DA6812F0200F30D110BDE9
:1022B000FFF774FF2046FFF773FF8AE72046FFF71A
:1022C0006DFF2046FFF76CFF9BE72046FFF766FF98
:1022D0002046FFF765FFACE72046FFF75FFF20468B
:1022E000FFF75EFFBDE76FF001021A61204600F0C4
:1022F0006FFDC1E76FF080021A61204600F071F9AE
:10230000C3E76FF040021A612046FFF74AFFC5E7B6
:102310006FF020021A61204600F062F9C7E7000062
:1023200003681B4A90420AD0B0F1804F07D0A2F553
:102330009432904203D002F58062904203D123F0A0
:1023400070034A681343124A90420AD0B0F1804F9A
:1023500007D0A2F59432904203D002F580629042F9
:1023600003D123F44073CA68134323F080034A69FE
:10237000134303608B68C3620B688362044B98420B
:1023800002D00123436170470B690363F9E700BF83
:10239000002C014040B310B5044690F83D30F3B135
:1023A000022384F83D30214651F8040BFFF7B8FFB3
:1023B000012384F8463084F83E3084F83F3084F8B6
:1023C000403084F8413084F8423084F8433084F857
:1023D000443084F8453084F83D30002010BD80F84A
:1023E0003C3000F095FCDBE70120704730B4036A15
:1023F00023F010030362036A4468826922F4E64210
:102400000D6842EA052223F020038D6843EA051394
:102410000E4DA84209D00D4DA8420ED044608261F5
:102420004A688263036230BC704723F08003CD6842
:1024300043EA051323F04003EDE724F440644D69BB
:1024400044EA85048D6944EA8504E7E7002C0140ED
:1024500090F83C30012B22D010B50446012380F8BF
:102460003C300C2A0BD8DFE802F0070A0A0A0E0AF1
:102470000A0A120A0A0A16000068FFF7D7FD0020B0
:1024800084F83C0010BD0068FFF7B0FFF7E7006874
:10249000FFF7FAFDF3E70068FFF728FEEFE70220F9
:1024A000704701F01F01012303FA01FC036A23EACC
:1024B0000C030362036A02FA01F10B4303627047E3
:1024C00010B504460846B1B994F83E30DBB2013B82
:1024D00018BF0123002B7CD130BB022384F83E308F
:1024E0000C2836D8DFE800F0303535355335353532
:1024F000593535355F00042908D008290DD094F8E6
:102500004130DBB2013B18BF0123E3E794F83F30D1
:10251000DBB2013B18BF0123DCE794F84030DBB2AB
:10252000013B18BF0123D5E7042805D0082807D0B0
:10253000022384F84130D3E7022384F83F30CFE709
:10254000022384F84030CBE72268D36843F00203CB
:10255000D360012201462068FFF7A3FF23681F4ACA
:10256000934226D023681D4A934227D0B3F1804F6F
:1025700024D0A2F59432934220D002F58062934297
:102580001CD01A6842F001021A60002022E0226882
:10259000D36843F00403D360DBE72268D36843F0D9
:1025A0000803D360D5E72268D36843F01003D360F3
:1025B000CFE75A6C42F400425A64D3E79A6802F0BB
:1025C0000702062A07D01A6842F001021A600020AA
:1025D00000E0012010BD0020FCE700BF002C0140FE
:1025E000704770470268D36823F49073D360026821
:1025F000536923F001035361036B012B05D02023A2
:1026000080F83E300023036370470268D36823F0EC
:102610001003D360F3E790F83D30DBB2212B01D0FB
:10262000022070478368B3F5805F17D0036A5A1C95
:1026300002621A7803685A60C38C9BB2013B9BB25A
:10264000C3844BB90268D36823F08003D360026867
:10265000D36843F04003D360002070470369002B28
:10266000E4D1036A1B880268C3F308035360036A5A
:1026700002330362E0E7000010B504460268136904
:1026800023F44053C1680B43136183680269134309
:1026900042691A430168CB6823F4B05323F00C035A
:1026A0001343CB600268536923F4407381690B4381
:1026B00053610268134B9A4220D0FFF797FC024601
:1026C00002EB820202EB820263689B00B2FBF3F230
:1026D0000D48A0FB02314909642303FB11231B01B0
:1026E0003233A0FB03235B0903F0F00202EB01127B
:1026F00003F00F03216813448B6010BDFFF786FCC5
:102700000246DDE7003801401F85EB512DE9F84313
:1027100005460F4616469946DDF820802C68246849
:1027200037EA04030CBF4FF0010C4FF0000CB44526
:102730001FD1B8F1FF3FF1D0B8F1000F05D0FEF77F
:10274000ADFEA0EB09004045E8D92A68D36823F420
:10275000D073D3602A68536923F0010353612023A7
:1027600085F83D3085F83E30002385F83C30032065
:1027700000E00020BDE8F88358B310B5044690F897
:102780003D300BB3242384F83D302268D36823F412
:102790000053D3602046FFF76FFF2268136923F4CC
:1027A000904313612268536923F02A03536122681E
:1027B000D36843F40053D36000202064202384F8BE
:1027C0003D3084F83E3010BD80F83C3000F042FCD3
:1027D000D8E7012070477047A8B110B504462423FC
:1027E00080F83D300268D36823F40053D360FFF7CC
:1027F000F2FF0020206484F83D0084F83E0020634E
:1028000084F83C0010BD012070472DE9F04182B0F2
:102810001E4690F83D30DBB2202B54D104460D46C5
:102820009046002953D0002A53D090F83C30012B19
:1028300051D0012380F83C3000230364212380F829
:102840003D30FEF72BFE0746A4F82480A4F826802E
:10285000A368B3F5805F05D04FF00008002384F82B
:102860003C3012E0236913B14FF00008F6E7A846A8
:102870000025F3E738F8023B2268C3F308035360EE
:10288000E28C92B2013A92B2E284E38C9BB273B1D1
:1028900000963B46002280212046FFF737FFE0B933
:1028A000002DE7D015F8012B23685A60E8E7009661
:1028B0003B46002240212046FFF728FF78B920231D
:1028C00084F83D3000E0022002B0BDE8F081012034
:1028D000FAE70120F8E70220F6E70320F4E70320F7
:1028E000F2E708B50168CA6822F04002CA602022F7
:1028F00080F83D2000F0F2FB002008BD704708B5CD
:10290000406A0023C385C384FFF7F8FF08BD704702
:1029100090F83E30DBB2222B60D18368B3F5805F44
:1029200046D0826AB3F5805F04D0002B4DD1036995
:10293000002B4AD103685B681370836A013383629A
:10294000C38D9BB2013B9BB2C385002B48D100B520
:1029500083B00268D36823F02003D3600268D36891
:1029600023F48073D3600268536923F00103536139
:10297000202380F83E30036B012B2CD1002303630E
:102980000268D36823F01003D36003681A6812F05A
:10299000100F06D0002201921A6801925B68019321
:1029A000019B818DFFF7B3FF002003B05DF804FBAE
:1029B0000269002AB5D1826A03685B68C3F3080321
:1029C0001380836A02338362BAE703685B6803F0AB
:1029D0007F031370B1E700F083FBE5E70220704747
:1029E0000020704730B583B0044602681368D06891
:1029F000516913F00F0505D113F0200F02D010F02C
:102A0000200F19D12DB111F0010119D110F4907FCF
:102A100016D1216B012975D013F0800F03D010F06F
:102A2000800F40F0D78013F0400F03D010F0400F1C
:102A300040F0D48003B030BD2046FFF769FFF9E7CE
:102A400013F0010F06D010F4807F03D0226C42F007
:102A50000102226413F0040F04D019B1226C42F079
:102A60000202226413F0020F04D019B1226C42F06A
:102A70000402226413F0080F07D010F0200F00D1D9
:102A800019B1226C42F008022264226C002AD1D0D3
:102A900013F0200F02D010F0200F21D123685B69C2
:102AA00003F04003226C12F0080F00D123B320463C
:102AB000FFF798FD23685A6912F0400F18D05A6941
:102AC00022F040025A61A36B73B1464A5A63A06B6D
:102AD000FEF78EFD0028ADD0A06B436B9847A9E7A9
:102AE0002046FFF715FFD9E72046FFF707FFA1E7CC
:102AF0002046FFF703FF9DE72046FFF7FFFE002378
:102B0000236497E713F0100F86D010F0100F83D0D6
:102B1000002301931368019353680193019B536948
:102B200013F0400F32D0A16B0B685B689BB2002B97
:102B300080D0A08D98427FF67DAFE3858B69202BF6
:102B400008D1A18DE38D9BB2C91A89B22046FFF747
:102B5000DEFE6FE7D36823F48073D3602268536985
:102B600023F0010353612268536923F0400353614A
:102B7000202384F83E30002323632268D36823F0A7
:102B80001003D360A06BFEF70FFDDAE7A18DE38D94
:102B90009BB2C91A89B2E38D9BB2002B3FF44AAFB6
:102BA00000293FF447AFD36823F49073D3602268C1
:102BB000536923F001035361202384F83E3000233E
:102BC00023632268D36823F01003D3602046FFF705
:102BD0009EFE2FE72046FFF71EFD2BE72046FFF75E
:102BE00080FE27E7FF280008034681628285C285B0
:102BF00000201864222283F83E2083F83C001968E4
:102C0000CA6842F48072CA6019684A6942F00102D7
:102C10004A611A68D36843F02003D360704708B54F
:102C200090F83E30DBB2202B0DD171B17AB190F823
:102C30003C30012B0DD0012380F83C30002303638E
:102C4000FFF7D2FF00E0022008BD0120FCE70120D1
:102C5000FAE70220F8E7704738B5094D284600F03A
:102C60000FFE084C2146284600F03CFE064D294642
:102C7000204600F099FE2146284600F0ADFF38BD01
:102C8000680C0020500C0020400C002008B5054BBB
:102C9000DA68054B5968002001F032FA014601F06C
:102CA0008BFA08BD500C0020400C002000B591B0FC
:102CB00000210B910C910D910E910F91282201A8EA
:102CC00001F008FB012201924FF480330293059238
:102CD000102206920222089209934FF4E0130A93FD
:102CE00001A8FEF787FE00B1FEE70F230B93022138
:102CF0000C9100230D930F934FF480630E930BA858
:102D0000FFF7B8F800B1FEE711B05DF804FB000072
:102D100002680E4B9A4200D0704700B583B003F5AD
:102D20000333DA6942F00202DA61DB6903F002037D
:102D30000193019B002211461D20FEF7DBFB1D20A5
:102D4000FEF710FC03B05DF804FB00BF0004004078
:102D500010B50A4C0A4B236041F61F436360002301
:102D6000A3603222E26023618023A3612046FFF743
:102D700011FB2046FFF7DEF910BD00BF200B00203D
:102D80000004004008B5FFF791FFFEF769FB00F073
:102D90003BF90C4800F034F8FFF7DAFF01F068F96E
:102DA00000F047FB002000F0F7FC01221146064826
:102DB00000F0C6F801221146044800F0C1F800F006
:102DC000DDF8FCE7DC0B0020592C00088D2C0008F6
:102DD00008B5054B834200D008BD044A136801338F
:102DE000136000F0F1F8F7E7200B0020080D002039
:102DF00008B50248FFF7D6F908BD00BF200B002038
:102E000008B5054B1860054B1868002302221946C7
:102E1000806801F0B1FA08BD680B00205001002065
:102E2000022801D80120704708B501F029FA0923CA
:102E30000360002008BD000038B50D461446013877
:102E400001280BD84FF6FF73A2B229460548006847
:102E5000FFF7DBFC0028F5D1204638BD4FF0FF34EA
:102E6000FAE700BF680B0020022801D80020704755
:102E700008B501F005FA092303604FF0FF3008BDE3
:102E800008B501F0FDF9092303604FF0FF3008BDDC
:102E900008B518B9002343B9012008BD01F0F0F9C5
:102EA000092303604FF0FF30F7E70520F5E708B589
:102EB000022804D84FF400534B60002008BD01F0F5
:102EC000DFF909230360F8E770477047FEE7FEE784
:102ED000FEE7FEE770477047704708B5FEF7D2FA85
:102EE00008BD0120704708B501F0CAF91623036038
:102EF0004FF0FF3008BD08B54FF0FF31FFF7F3FF8B
:102F0000FEE7000008B503460B4A126842B10A4AC0
:102F1000106803446A46934206D8074A136008BD06
:102F2000054A06491160F2E701F0AAF90C23036093
:102F30004FF0FF30F3E700BF6C0B0020680D00205E
:102F400010B5002300E0013303EB430C0A4C54F8A6
:102F50002C400CB1072BF6D9072B00D95AB1064CDF
:102F600003EB430C04EB8C0E44F82C000131CEF83B
:102F70000410CEF8082010BD740B002010B50024FA
:102F800000E00134072C19D804EB440293000C4AEA
:102F9000D258002AF5D004EB44039900084B0B44A7
:102FA0005B68002BEDD1074B1C60904704EB44039A
:102FB0009A00034B13449A685A60E2E710BD00BFC1
:102FC000740B0020700B00200C4A1368013313604F
:102FD000002300E00133072B0FD803EB43029100DD
:102FE000074A0A445268002AF4D003EB43018800E0
:102FF00003490144013A4A60ECE77047D40B0020D2
:10300000740B0020FEE7000008B50F480F4B03606B
:103010004FF4E133436000238360C3600361836145
:103020000C234361FFF7D8FB48B90748FFF7A4FB1F
:1030300038B9012206490448FFF7F1FD08BDFFF742
:10304000E1FFFFF7DFFF00BFDC0B0020003801408D
:10305000D80B002030B589B01E4B9A6942F00402AB
:103060009A619A6902F004020192019A9A6942F007
:1030700004029A619A6902F004020292029A9A6921
:1030800042F480429A619B6903F480430393039B5B
:103090004FF4007304930223059301230693032343
:1030A00007930D4D04A92846FEF7EEFA4FF480630E
:1030B00004930024059404A92846FEF7E5FA224665
:1030C00021462520FEF716FA2520FEF74BFA09B017
:1030D00030BD00BF001002400008014070470000F2
:1030E0000268094B9A4200D07047084A1378084991
:1030F00008780849C8540133DBB213701F2BF3D989
:10310000134600221A70EFE700380140D90B002067
:10311000D80B0020200C002010B5054C2046FFF7EE
:1031200061FC012203492046FFF779FD10BD00BF75
:10313000DC0B0020D80B002038B50546002400E049
:1031400001342B5D002BFBD14FF6FF73A2B2294651
:103150000248FFF75AFB0028F6D138BDDC0B0020EF
:103160000FB400B5A3B024AA52F8041B019202A820
:1031700002F06EFF02A8FFF7DFFF23B05DF804EB5B
:1031800004B070470C480D490D4A002302E0D458A2
:10319000C4500433C4188C42F9D30A4A0A4C0023A1
:1031A00001E013600432A242FBD3FFF754FD01F0AB
:1031B0006DF8FFF7E7FD704700000020000B0020CE
:1031C000A4B10008000B0020640D0020FEE7F8B554
:1031D00006460F4614461D4600F0C8F9700000F080
:1031E000FE0000F065FA00F001FA78B9384600F008
:1031F0005FFA00F0FBF900F0B9F9700040F001004F
:10320000C0B200F055FA00F0F1F90AE000F0CEF992
:10321000012011E0002000F07DFA2870013CE4B2AA
:10322000013534B1012CF5D0012000F073FA28707B
:10323000F4E700F0BBF92046F8BD000000000000F4
:1032400000B583B001AB022241216820FFF7BFFF28
:103250009DF804301B021BB29DF805001843FDF7D2
:10326000C9F800220C4BFDF759FA09A3D3E9002352
:10327000FCF774FFFDF762FB0849FDF7BDFCFDF7A5
:103280000BFE00B203B05DF804FB00BFAFF300809B
:10329000A4703D0AD7434240004075400000C84238
:1032A00070B582B006460D4614466B460622432191
:1032B0006820FFF78CFFA0B99DF800209DF8013031
:1032C00043EA022333809DF802209DF8033043EA4D
:1032D00002232B809DF804209DF8053043EA022349
:1032E000238002B070BD70B582B006460D4614460C
:1032F0006B4606223B216820FFF769FFA0B99DF8C5
:1033000000209DF8013043EA022333809DF802201B
:103310009DF8033043EA02232B809DF804209DF89A
:10332000053043EA0223238002B070BD38B505465C
:103330000C4600F01BF9D02000F0BAF900F056F965
:1033400078B9284600F0B4F900F050F9204600F0B2
:10335000AFF900F04BF9044638B900F027F92046E0
:1033600038BD00F023F90124F9E700F01FF901242A
:10337000F5E708B5C10001F0F8011B20FFF7D6FF03
:1033800008BD08B5C10001F0F8011C20FFF7CEFF11
:1033900008BD08B5BB2809D861280CD829280CD845
:1033A00013280CD809280CD9052100E001211A2086
:1033B000FFF7BCFF08BD0221F9E70321F7E704216D
:1033C000F5E70621F3E710B5B0F57A7F04D8044697
:1033D000032803D8042401E04FF47A744FF47A717F
:1033E00091FBF4F1C9B20139C9B21920FFF79EFF70
:1033F0006008FFF7CEFF10BD10B5044600F0B6F828
:10340000D02000F055F900F0F1F8204600F050F916
:1034100000F0ECF800F0AAF8D12000F049F900F033
:10342000E5F8002000F076F9044600F0BFF82046E9
:1034300010BD08B500F038F880216B20FFF776FF4B
:103440006420FEF731F800216B20FFF76FFF0320A7
:10345000FFF78FFF0020FFF794FF3220FFF7B3FF45
:1034600000213820FFF762FF00216A20FFF75EFF8E
:1034700000212320FFF75AFF80213720FFF756FF56
:103480007520FFF7B9FF682801D0012008BD012190
:103490006B20FFF74BFF00216C20FFF747FF322026
:1034A000FFF791FF0020F1E7F0B587B0154CA36955
:1034B00043F00803A361A36903F008030093009B92
:1034C000012503950495032705974FF48063029324
:1034D0000D4E02A93046FEF7D7F8A36943F0080362
:1034E000A361A36903F008030193019B039504956D
:1034F00005974FF40063029302A93046FEF7C4F823
:1035000007B0F0BD00100240000C014010B584B0BF
:10351000094C4FF400612046FEF7C8F901230193DE
:103520000293032303934FF40063009369462046FC
:10353000FEF7AAF804B010BD000C014010B584B02D
:10354000094C4FF400612046FEF7B0F900230193C7
:103550000293032303934FF40063009369462046CC
:10356000FEF792F804B010BD000C014010B5FFF753
:10357000CDFF0D4C01224FF400612046FEF71DFAED
:1035800001224FF480612046FEF717FA00224FF423
:1035900000612046FEF711FA00224FF480612046B8
:1035A000FEF70BFA10BD00BF000C014010B5FFF78D
:1035B000ADFF0D4C00224FF480612046FEF7FDF96F
:1035C00000224FF400612046FEF7F7F901224FF484
:1035D00080612046FEF7F1F901224FF40061204698
:1035E000FEF7EBF910BD00BF000C014010B5FFF76E
:1035F000A5FF0E4C01224FF400612046FEF7DDF9D5
:1036000001224FF480612046FEF7D7F94FF40061A4
:103610000648FEF7CBF90028F8D100224FF480616C
:103620000248FEF7CAF9002010BD00BF000C01409F
:1036300010B50E4C00224FF480612046FEF7BDF914
:10364000FFF764FF00224FF400612046FEF7B5F952
:1036500001224FF480612046FEF7AFF900224FF4BB
:1036600080612046FEF7A9F910BD00BF000C0140A3
:1036700010B50E4C00224FF480612046FEF79DF9F4
:10368000FFF744FF01224FF400612046FEF795F951
:1036900001224FF480612046FEF78FF900224FF49B
:1036A00080612046FEF789F910BD00BF000C014083
:1036B00070B50446FFF72AFF00224FF480611448DA
:1036C000FEF77BF9002516E000224FF40061104858
:1036D000FEF773F96400E4B20D4E01224FF48061ED
:1036E0003046FEF76AF900224FF480613046FEF75B
:1036F00064F90135EDB2072D09D814F0800FE3D03D
:1037000001224FF400610248FEF757F9E2E770BD6D
:10371000000C0140F8B50746FFF710FF00242546CE
:1037200001E00135EDB2072D18D8104E00224FF4FC
:1037300080613046FEF741F901224FF48061304646
:10374000FEF73BF96400E4B24FF400613046FEF747
:103750002DF90028E5D00134E4B2E2E71FB9FFF704
:1037600087FF2046F8BDFFF763FFFAE7000C014032
:1037700070B5044608466568A6682946FDF732F923
:1037800001463046FDF738FA01462846FDF72CF988
:103790002060606070BD000010B586B00023049307
:1037A000ADF8143001930293039308B906B010BD2D
:1037B0001C222F492F48FFF7D3FC002419E005AA4B
:1037C0000DF1120104A8FFF76BFDBDF91020019B5C
:1037D00013440193BDF91220029B13440293BDF9D7
:1037E0001420039B13440393322000F03FFD013467
:1037F000E4B2FF2CE3D10198FCF7FCFD1AA3D3E956
:103800000023FCF78BFF00221B4BFCF7A7FCFDF706
:103810006DF8ADF810000298FCF7ECFD12A3D3E9A7
:103820000023FCF77BFF0022134BFCF797FCFDF70E
:103830005DF8ADF812000398FCF7DCFD0AA3D3E9AC
:103840000023FCF76BFF00220B4BFCF787FCFDF716
:103850004DF8ADF814002C2205490848FFF780FC0C
:10386000A4E700BFAFF300800000000000E06F405D
:1038700068AC00080CAC00080000E03F48AC000851
:1038800010B584B004460023009301930293ADF871
:103890000C3001AA0DF102016846FFF724FD0DF17D
:1038A0000A0202A90DF10600FFF7FAFCFFF7C8FCB7
:1038B000ADF80C00BDF900302380BDF90230638003
:1038C000BDF90430A380BDF806300833E380BDF8AD
:1038D000083006332381BDF80A300333638104B016
:1038E00010BD000070B505460C46B0F90000FCF7AD
:1038F00081FD0022264BFCF7E7FDFDF71FF8064689
:103900002060B5F90200FCF775FD0022204BFCF7A2
:10391000DBFDFDF713F86060B5F90400FCF76AFD04
:1039200000221B4BFCF7D0FDFDF708F8A060B5F9AD
:103930000600FCF75FFD0022164BFCF7C5FDFCF707
:10394000FDFFE060B5F90800FCF754FD0022114BC3
:10395000FCF7BAFDFCF7F2FF2061B5F90A00FCF7AD
:1039600049FD00220B4BFCF7AFFDFCF7E7FF606160
:1039700031460948FFF7FCFE206061680748FFF701
:10398000F7FE6060A1680648FFF7F2FEA06070BD18
:103990000000103F0040AF3F0C0000201800002046
:1039A00024000020000000002DE9F04104460D46EF
:1039B000D0F804808068FCF72FFD06460F4640468D
:1039C000FCF72AFD32463B4606F0B0FD00221E4BB6
:1039D000FCF77AFD1AA3D3E90023FCF79FFEFCF75E
:1039E000ADFF6860D4F8008060680146FDF704F917
:1039F0000646A0680146FDF7FFF801463046FCF791
:103A0000F3FFFCF709FD06F093FD06460F4640461E
:103A1000FCF702FD32463B4606F088FD00220A4BC9
:103A200001F100473946FCF74FFD05A3D3E9002318
:103A3000FCF774FEFCF782FF2860BDE8F08100BF50
:103A400000000020FF210940008066402DE9F04F72
:103A500089B004460F460593C16B0391049210464A
:103A6000FCF7C0FF25682946FDF7C6F86168FCF73A
:103A7000BBFF01906060D4F810B05946E06AFCF7D3
:103A8000B1FFD4F814A05146FCF7ACFF0146E06149
:103A9000D4F8188008F1004626626662D4F83090A7
:103AA000C4F828902846FDF7A7F8E168FCF79CFFCA
:103AB0000290E06031462846FDF79EF80646014632
:103AC0005846FCF791FF8346206131465046FCF78B
:103AD0008BFF8246606149462846FDF78DF8014616
:103AE0004046FCF781FF0690A06101993846FCF73B
:103AF00079FF81462064D4F8388041460298FDF76A
:103B00007BF80546606441465046FDF775F807901E
:103B1000A064666B29464046FDF76EF801463046C4
:103B2000FCF762FF0746E06401462846FDF718F9F6
:103B30000646206539460798FDF712F90746606585
:103B4000A56541465846FDF757F88046E065314681
:103B50002846FDF751F801460298FCF743FFE06064
:103B600041463046FDF748F801465846FCF73AFF13
:103B7000206139462846FDF73FF801465046FCF7DC
:103B800031FF606141463846FDF736F80146069838
:103B9000FCF728FFA06131464846FDF72DF80146A5
:103BA0000198FCF721FF0546606039464846FDF75D
:103BB00023F801460398FCF717FF0146E0630498D9
:103BC000FCF710FFA060059B1D60A268129B1A60A5
:103BD00009B0BDE8F08F000070B582B005460C4614
:103BE000154B1B68154A10681360181AFCF7F2FB96
:103BF0000022134BFCF768FC0022124BFCF78EFDF1
:103C0000FCF79CFE034610480360104E3360104AD8
:103C10001360234653F80C2F00932B1D6968FFF7A0
:103C200015FF54F8102F00942B4629683046FFF7F3
:103C30000DFF02B070BD00BF080D00204C0C00202D
:103C40000000144000408F40900000203000002011
:103C5000F0000020FEE7000000B587B00E4B9A6927
:103C600042F004029A619B6903F004030193019BF3
:103C70000023029303930493059302230293039377
:103C8000012304930323059302A90448FDF7FCFCD8
:103C900007B05DF804FB00BF0010024000080140BF
:103CA00000B587B00F4B9A6942F008029A619B6990
:103CB00003F008030193019B0023029303930493F1
:103CC00005934FF40073029302230393012304939B
:103CD0000323059302A90448FDF7D6FC07B05DF85D
:103CE00004FB00BF00100240000C01402DE9F04F22
:103CF0008DB00026089609960A960B965E4CA3692D
:103D000043F00803A361A36903F008030093009B39
:103D10004FF40073089301250A9503270B97DFF8EA
:103D20005C8108A94046FDF7AFFCA36943F010038E
:103D3000A361A36903F010030193019B402308933F
:103D400009960A950B9708A94D48FDF79DFCA369B4
:103D500043F00803A361A36903F008030293029BE5
:103D6000089509960A950B9708A94046FDF78CFC23
:103D7000A36943F00803A361A36903F00803039355
:103D8000039B4FF40043089309960A950B9708A9E3
:103D90004046FDF779FCA36943F00403A361A369DE
:103DA00003F004030493049B4FF0020ACDF820A013
:103DB00009960A950B97DFF8CC9008A94846FDF7BD
:103DC00063FCA36943F00403A361A36903F0040344
:103DD0000593059B2023089309960A950B970DEBF5
:103DE00003014846FDF750FCA36943F00403A361B7
:103DF000A36903F004030693069B4FF0100BCDF864
:103E000020B009960A950B9708A94846FDF73CFC97
:103E1000A36943F00803A361A36903F008030793B0
:103E2000079BCDF820A009960A950B9708A9404654
:103E3000FDF72AFC2A4640211148FDF7BEFD2A461F
:103E400029464046FDF7B9FD2A464FF40041404659
:103E5000FDF7B3FD2A4620214846FDF7AEFD2A4670
:103E600059464846FDF7A9FD324651464046FDF702
:103E7000A4FD0DB0BDE8F08F00100240000C014021
:103E8000001001400008014000B58FB0244BDA69F2
:103E900042F00102DA61DB6903F001030093009B49
:103EA000002211461C20FDF725FB1C20FDF75AFBC4
:103EB00000230A930B930C930D930893099301939A
:103EC00002930393049305930693079315484FF0C9
:103ED0008042026040F2CF22426083604FF6FF7260
:103EE000C26003618361FEF755FAA8B930230193DC
:103EF000002302930393059304220DEB020109486A
:103F0000FEF7A6FA50B9FFF7A7FE04210548FEF711
:103F1000D7FA0FB05DF804FBFFF79CFEFFF79AFE9F
:103F200000100240780C002000B58FB0234BDA69F6
:103F300042F00402DA61DB6903F004030093009BA2
:103F4000002211461E20FDF7D5FA1E20FDF70AFBC0
:103F500000230A930B930C930D93089309930193F9
:103F60000293039304930593069307931448154A09
:103F7000026040F2CF22426083604FF6FF72C2605F
:103F800003618361FEF706FAA0B930230193002391
:103F90000293039305930C2201A90948FEF758FAEE
:103FA00050B9FFF77DFE0C210548FEF789FA0FB0E6
:103FB0005DF804FBFFF74EFEFFF74CFE00100240D9
:103FC000C00C002000080040114B19680B6913F069
:103FD000040F1CD082B00023ADF806304B6A9BB2B0
:103FE000ADF80630BDF8062092B20A4B1B889BB292
:103FF0001A44094B83FB02031344DB13C3EB034353
:10400000D31A8B636FF004030B6102B070477047E3
:10401000780C0020740C002001800080114B19687E
:104020000B6913F0100F1CD082B00023ADF80630DE
:104030004B6A9BB2ADF80630BDF8062092B20A4B2F
:104040001B889BB21A44094B83FB02031344DB1306
:10405000C3EB0343D31A0B646FF010030B6102B080
:1040600070477047C00C0020760C00200180008053
:1040700008B5FFF73BFEFFF707FFFFF755FF08BD49
:1040800041F27073984203D820B94CF2503005E0E9
:1040900041F270704CF25033B3FBF0F0014B1880DA
:1040A000704700BF740C002041F27073984203D82F
:1040B00020B94CF2503005E041F270704CF25033B0
:1040C000B3FBF0F0014B1880704700BF760C002066
:1040D00008B5021E18BF012202210248FDF76DFC3F
:1040E00008BD00BF000C014008B5021E18BF012228
:1040F0004FF400410148FDF760FC08BD000C014091
:104100002DE9F0410F46154601463846FCF76AFC9A
:1041100080462149FCF770FD044620492846FCF7FB
:104120006BFD064601462046FCF75EFCFCF7B4FE3C
:1041300005461B4C162221461A48FFF711F838464F
:10414000FCF76AF9022200F059F8034617222146CB
:104150001548FFF705F84046FCF75EF9022200F02B
:104160004DF80346182221461048FEF7F9FF304665
:10417000FCF752F9022200F041F8034619222146C9
:104180000B48FEF7EDFF2B461A2221460948FEF7A1
:10419000E7FF2846BDE8F0810000C8430000204149
:1041A00008AD000884AC0008A0AC0008BCAC000856
:1041B000D4AC0008ECAC000838B50D46041E14DB86
:1041C0000020FFF791FF002D13DB0120FFF780FF98
:1041D000002CB8BF644285EAE570A0EBE570FFF7FC
:1041E0004FFF2046FFF760FF38BD0120FFF77CFF3F
:1041F000E9E70020FFF76CFFEAE70000F0B583B0C5
:1042000006460F46012403E004EB84046400013AEF
:10421000002AF9D130463946FCF768FB0546FCF721
:10422000E9F802460B4630463946FBF795FF06464D
:104230000F462046FCF7DEF832463B46FCF744F9D1
:10424000FCF754FB00280ADB064C00902B46064A7C
:104250001021204600F068F9204603B0F0BD40422E
:10426000F2E700BF0C0D00201CAD000803E0013B8D
:10427000002BFCD1013810B142F6E063F8E770473B
:10428000014B1868704700BF5001002070B50D4EFB
:104290000D4D761BB61006D0002455F8043B0134B2
:1042A0009847A642F9D1094E094D06F08BFC761BC2
:1042B000B61006D0002455F8043B01349847A642B6
:1042C000F9D170BD98B1000898B10008A0B10008FC
:1042D00098B10008830730B548D0541E002A3FD05B
:1042E0000346CAB201E0013C3AD303F8012B9D0713
:1042F000F9D1032C2DD9CDB245EA05250F2C45EA7D
:10430000054536D9A4F1100222F00F0C03F1200E5E
:10431000E6444FEA121C03F1100242E9045542E957
:10432000025510327245F8D10CF1010214F00C0F55
:1043300003EB021204F00F0C13D0ACF1040323F0D2
:1043400003030433134442F8045B9342FBD10CF0A3
:1043500003042CB1CAB21C4403F8012B9C42FBD1CC
:1043600030BD64461346002CF4D1F9E703461446E9
:10437000BFE71A46A446E0E72DE9F043694C0E4634
:10438000D4F80080174604461D4683B0B8F1000FEC
:1043900003D0D8F83830002B77D0022F05D0012F6A
:1043A00000F2AC80002DC0F2A980636EDA0752D50E
:1043B0002146404602F070FF216B41B104F14003F9
:1043C000994202D0404603F093F800232363002370
:1043D000B4F90CC0A3611CF0800F636064D12CF4AD
:1043E0004A6C2CF0030C022FA4F80CC06AD001AB6D
:1043F000214640466A4603F01BFAA3891843A08170
:10440000002D2FD0002E2ED0D8F83830002B38D0E9
:10441000009BC4E90465AB42B4F90C3026601CBFB4
:1044200043F40063A381012F04BF43F00103A38180
:104430009AB213F008032CD0D1075DD500216D424C
:10444000A561656EA16015F0010527D000252846FD
:1044500003B0BDE8F083A3899B05A9D4A06D03F048
:1044600073F9A5E7009D284603F012FA06460028D6
:1044700047D0A38943F08003A381D8F83830002BBC
:10448000C6D1404602F03CFFC2E7404602F038FF8A
:1044900083E7A360656E15F00105D7D1930524D598
:1044A000284603B0BDE8F0834046216903F020F8B8
:1044B000B4F90CC0022F2CF44A6C2CF0030CA4F8B5
:1044C0000CC094D100250021012204F14303236094
:1044D0002361636E4CF0020CD807A4F80CC0A160F5
:1044E0006261DDD41CF4007FDAD1A06D03F02EF9F7
:1044F000284603B0BDE8F083A560CBE74FF0FF3559
:10450000CEE7DDF80090A94504D0484603F0C0F995
:10451000064620B94FF0FF35B4F90CC0D3E74D463D
:10452000A7E700BF500100200CB410B51E4B0029B6
:104530001C689CB033DB4FF402734FF6FF7CADF880
:104540001430029006901FAB16D001391E9A0491C8
:104550000791204602A90193ADF816C000F026F895
:10456000421C01DA8B2323600022029B1A701CB0CC
:10457000BDE8104002B070470491079120461E9A92
:1045800002A90193ADF816C000F010F8431C01DA3F
:104590008B2323601CB0BDE8104002B070478B2312
:1045A0004FF0FF302360F5E7500100202DE9F04F78
:1045B000D5B00C460C9191460E930A9003F0BCF8CE
:1045C00003681846179304F09FF8A38916901906FC
:1045D00003D52369002B00F08F8700242BAB2246E4
:1045E00098464D46CDE9294428931294002300248F
:1045F000CDE914342B78CDE91922CDE91B2218928C
:104600000892002B00F0CE81AA4604E01AF8013F80
:10461000002B00F00981252BF8D1BAEB050640F0FC
:1046200007819AF80030002B00F0BC8100234FF086
:10463000FF324FF02B0920241F469AF801600792A1
:104640000AF1010A8DF8833009930AF1010AA6F1F3
:1046500020035A2B00F22081DFE813F0CA021E016A
:104660001E01C5021E011E011E01A3021E011E0124
:104670006A00F3021E014702D9021E01D4025B0048
:104680005B005B005B005B005B005B005B005B0052
:104690001E011E011E011E011E011E011E01B00190
:1046A0001E010B027A00B001B001B0011E011E0113
:1046B0001E011E019E021E011E01B6001E011E01EA
:1046C0001E0119021E014C021E011E013F071E01A0
:1046D0001E011E011E011E011E011E011E01B00150
:1046E0001E010B027C00B001B001B00191027C0000
:1046F00075001E0184021E017002B8005E02750082
:104700001E01190272001C071E011E011F071E0157
:1047100072000022A6F130031AF8016B02EB82024C
:1047200003EB4202A6F13003092BF5D909928EE77B
:104730000E9B53F8042B002A09920E93C0F2D281EB
:104740009AF8006081E79AF8006047F020077CE75C
:1047500047F01007BA060E9B40F17D81073323F026
:1047600007031A465B6852F8084B99460E92002BD5
:10477000C0F27F85079B013301F0398054EA0903B9
:1047800027F0800B00F005850A2C79F1000380F0FA
:10479000938701235F4630348DF84F410B930DF220
:1047A0004F15079A0B9900238A42B8BF0A46069212
:1047B0009DF883200D930F9313931093002A7CD0C0
:1047C000069B0133069378E047F0100717F02009A5
:1047D00000F032810E9B073323F00703D3F80490D7
:1047E00053F8084B0E93002327F4806B00228DF8BA
:1047F0008320079A511C00F02A8254EA09012BF009
:10480000800740F02382002A41F02B80002B40F0EB
:10481000C5841BF001030B9300F0548530230DF287
:104820004F158DF84F31BCE7BAEB050600F0BA80A2
:104830002A9BC8E9005633442A93299B0133072B4E
:10484000299305DC08F10808089B33440893E8E63F
:104850000C990A9828AA03F0B9FF80B90DF1AC08A9
:10486000F2E70C990A9828AA03F0B0FF002800F09C
:104870008A800D9B1BB10D990A9802F039FE0C9BA2
:104880009B8913F0400F089B18BF4FF0FF3308932C
:10489000089855B0BDE8F08F002E00F0838001230A
:1048A00000228DF8EC6006933BAD8DF883200B93CE
:1048B0000D9207920F921392109217F0020302D0FA
:1048C00006990231069117F0840B07D109990698D1
:1048D000A1EB0009B9F1000F00F336832A9C82B1E5
:1048E0000122C8F80420299A013401320DF1830114
:1048F000072A2A942992C8F8001000F3698308F166
:1049000008087BB10223C8F80430299B0234013324
:1049100021AA072B2A942993C8F8002000F36C835E
:1049200008F10808BBF1800F00F02E82079B0B9A5C
:10493000A3EB020BBBF1000F00F37182FB0500F14A
:10494000C5810B9BC8F800501C44C8F80430299B53
:104950002A940133072B299300F3EA8208F108080F
:104960007B0705D5099B069A9D1A002D00F35083FD
:10497000DDE9083206998A42ACBF9B185B180893A0
:10498000002C7FF46EAF002329930D9B1BB10D9972
:104990000A9802F0ADFD55460DF1AC082B78002BBE
:1049A0007FF432AE2A9B002B3FF469AF0C9C0A982F
:1049B000214628AA03F00AFFA38962E70E9B07336A
:1049C00023F00702F2E80234CDE91434DDE91434AF
:1049D00024F00044994618460E9221464FF0FF32CB
:1049E000B64BFCF77DFB002840F0968448462146F4
:1049F0004FF0FF32B14BFCF755FB002840F08C84A0
:104A0000DDE9140100220023FCF742FB002840F0FE
:104A1000A6879DF8832000210320A94DA94B27F0EC
:104A200080070D910690472EC8BF1D4607910B9039
:104A30000F9113911091C1E617F0100340F06284BA
:104A400017F0400200F07B870E9A994652F8044B0B
:104A50000E92A4B2C7E653F8044B0E93FB0600F186
:104A600041847D0640F13B8444F3C0394B4624B277
:104A70007DE6012000220E9B069053F8041B3BADFF
:104A80008DF883208DF8EC100E930B9010E74FF00B
:104A900000090E9C079B54F8045B8DF88390002D51
:104AA00000F0EE865A1C00F060851A4649462846FA
:104AB00003F0A2F90D90002801F09E800D9B9DF857
:104AC00083205B1B0B9323EAE373CDF81C900E94B9
:104AD0000693CDF83490CDF83C90CDF84C90CDF8BD
:104AE00040906BE6099B5B4209939AF8006047F09F
:104AF0000407AAE547F0100B1BF0200900F0AA8379
:104B00000E9B073323F007031A4652F8084BD3F8DD
:104B100004900E92012369E6302278260E9B8DF8D0
:104B2000842053F8044B684A0E934FF00009022387
:104B300047F0020B8DF88560189257E6BD0600F12C
:104B4000D683FC0600F19386780600F15D87B905EF
:104B500040F18D860E9B089953F8042B5546117031
:104B60000E931BE79AF800606C2E03BF9AF8016061
:104B700047F020070AF1010A47F0100765E59AF8A7
:104B80000060682E03BF9AF8016047F400770AF1CD
:104B9000010A47F0400758E59AF8006047F0080717
:104BA00053E50A9E304602F0C7FD436818461B9342
:104BB00003F0AAFD034630461C931E4602F0BCFDDE
:104BC00083681993002E3FF4BBAD199B002B3FF473
:104BD000B7AD199B1B78002B3FF4B2AD9AF800607B
:104BE00047F4806731E59AF8006047F001072CE54B
:104BF0009DF88330002B7FF4A3AD9AF800608DF808
:104C0000834022E59AF8006047F080071DE5524690
:104C100012F8016B2A2E01F0EB81A6F13003092B6B
:104C2000924698BF002201F203801AF8016B02EB52
:104C3000820203EB4202A6F13003092BF5D9079259
:104C400005E59AF800608DF88390FEE4BB46012BE1
:104C50003FF49AAD022B54AD12D1189A04F00F0311
:104C6000D35C240944EA09744FEA191905F8013D97
:104C700054EA0903F2D154AB5B1B5F460B9390E5FA
:104C800004F00703E40844EA49744FEAD9093033D1
:104C900054EA09012A4605F8013DF1D11BF0010F44
:104CA000E9D0302BE7D03023023A05F8013C54AB71
:104CB0009B1A5F4615460B9373E500BFFFFFEF7F1E
:104CC00028AD00082CAD000838AD0008652E40F373
:104CD000E980DDE9140100220023FCF7CFF9002868
:104CE00000F0D2810123C8F80430299BBF4A013368
:104CF0000134072B2A942993C8F8002000F37A8501
:104D000008F10808229B129A934280F2D782169BE0
:104D1000179A1C44C8E90023299B2A940133072BC6
:104D2000299300F3DD8308F10808129B5D1E002D16
:104D30007FF716AE102D41F34181DFF8B492224681
:104D400049461026B946299B0F46DDF828B00C9C31
:104D500005E008F10808103D102D40F35885013397
:104D60001032072BC8E90076CDE92932F1DD214662
:104D7000584628AA03F02AFD00287FF47AADDDE921
:104D800029320DF1AC08E6E7099B069AA3EB020B6A
:104D9000BBF1000F7FF7CAADBBF1100F41F30580E7
:104DA000DFF84C9241462046A8464C461023299AEB
:104DB0000C9DDDF8289006E0ABF1100BBBF1100F55
:104DC00001F1080119DD01321030072AC1E9004361
:104DD000CDE92920F0DD2946484628AA03F0F6FC53
:104DE00000287FF446ADDDE92920ABF1100BBBF1C3
:104DF000100F4FF010032BA9E5DC4546A14688466D
:104E0000044601325C44072ACDE92924C8F8009001
:104E1000C8F804B000F3188508F1080886E5BBF16E
:104E2000100F40F39785DFF8C89141462046A84609
:104E30004C461023299A0C9DDDF8289006E0ABF132
:104E4000100BBBF1100F01F1080119DD0132103018
:104E5000072AC1E90043CDE92920F0DD294648466B
:104E600028AA03F0B3FC00287FF403ADDDE9292074
:104E7000ABF1100BBBF1100F4FF010032BA9E5DCC9
:104E80004546A1468846044601325C44072ACDE9DE
:104E90002924C8F80090C8F804B000F3CE8108F1C6
:104EA00008084BE5129B012B40F37E810123299ECC
:104EB00001341E44072EC8F800502A94C8F8043064
:104EC000299600F3E18108F10808169B0136179A2C
:104ED0001C44072EC8E90023CDE9296400F3E181D1
:104EE00008F108080022DDE914010023FCF7C6F8E8
:104EF000002840F07681129B0136013B01351C44AD
:104F0000072EC8F800502996C8F804302A9400F3F8
:104F10005B8108F108081A9B01361C44C8F804306C
:104F2000072E24ABCDE92964C8F800307FF716AD11
:104F30000C990A9828AA03F049FC00287FF499AC40
:104F40002A9C0DF1AC080BE5B9F1100F40F3508627
:104F5000DDE929214046CDE91D36B84610244F46EB
:104F60000C9EA9460A9D04E0103F102F00F1080096
:104F700016DD01321F4B1031072AC0E90034CDE99C
:104F80002921F1DD3146284628AA03F01FFC00281C
:104F90007FF46FACDDE92921103F102F2BA8E8DC4E
:104FA0004D46DDE91D36B9464746804609EB01040A
:104FB00001321049072ACDE92924C8F80490C8F81D
:104FC000001000F3C3839DF8832008F1080886E4ED
:104FD0000C990A9828AA1D9303F0F8FB00287FF487
:104FE00048AC2A9C1D9B0DF1AC088AE468AD000812
:104FF0007CAD00086CAD00080C990A9828AA03F053
:10500000E5FB00287FF435AC2A9C0DF1AC0889E45F
:10501000102D40F3C4861026299B0A9FDDF830909E
:1050200004E0103D102D08F1080817DD0133B84ADF
:105030001034072BC8E90026CDE92934F1DD4946B3
:10504000384628AA03F0C2FB00287FF412ACDDE941
:105050002934103D102D0DF1AC08E7DC0133AC4ACA
:105060002C44072BCDE92934C8F80450C8F8002097
:105070007FF77EAC0C990A9828AA03F0A7FB0028BA
:105080007FF4F7AB2A9C73E42299002940F36F83E5
:10509000DDF84090129B9945A8BF9946B9F1000FE1
:1050A0000BDD299B4C440133072BC8E900592A9496
:1050B000299300F31D8508F10808109EB9F1000F2F
:1050C000A8BFA6EB0906002E00F32582DDF840B04C
:1050D0007805AB4400F15F82229B129A934202DB77
:1050E000F90740F17684169A17991444C8E900121A
:1050F000299A2A940132072A299200F3138508F18C
:105100000808129AAE18A6EB0B06D51AAE42A8BF35
:105110002E46002E0DDD299B34440133072BC8F8A1
:1051200000B0C8F804602A94299300F3718508F14F
:105130000808002EA8BFAD1B002D7FF711AC102D65
:1051400040F33C87DFF8CC91224649461026B94609
:10515000299B0F46DDF828B00C9C05E008F10808F3
:10516000103D102D40F3538301331032072BC8E953
:105170000076CDE92932F1DD2146584628AA03F010
:1051800025FB00287FF475ABDDE929320DF1AC0871
:10519000E6E7079B002B7FF4FCAA5F46002354AD93
:1051A00007930B93FFF7FDBAFA073FF57FAE012394
:1051B000299E01341E44072EC8F800502A94C8F8CE
:1051C000043029967FF7A5AE0C990A9828AA03F017
:1051D000FDFA00287FF44DABDDE929640DF1AC0840
:1051E00099E6129B5D1E002D7FF795AE102D40F3C2
:1051F000DF86224607974FF0100BDFF818910A9CC4
:105200000C9F05E008F10808103D102D40F37F8346
:1052100001361032072EC8E9009BCDE92962F1DD85
:105220003946204628AA03F0D1FA00287FF421ABA2
:10523000DDE929620DF1AC08E6E70C990A9828AA85
:1052400003F0C4FA00287FF414AB2A9C0DF1AC08DB
:10525000FFF774BB1BF010030E9A3AD11BF040010C
:1052600033D052F8044B99460E920123A4B2FFF7B3
:10527000BDBA2D2364428DF88330BB464FF0010345
:1052800069EB4909FFF7B5BA0C990A9828AA03F007
:105290009DFA00287FF4EDAADDE929640DF1AC0840
:1052A00013E60C990A9828AA03F090FA00287FF4D4
:1052B000E0AADDE929640DF1AC0813E6FD077FF5EE
:1052C0004FAB24E554ADFFF76CBA1BF4007940F006
:1052D0008A8352F8044B01230E92FFF787BAB80570
:1052E00000F19B834FEAE4794B46FFF740BA0E9BEF
:1052F000089853F8041BC2175546C1E900020E93E3
:10530000FFF74CBB0E9B53F8044B0E93FFF76BBAA1
:105310006CAD00087CAD0008DDE9140102460B46C7
:10532000FBF7DEFE002840F0E985612E00F07D8568
:10533000412E00F08B84079B013300F08F8326F011
:105340002003472B069300F08F85DDE9141247F404
:1053500080730F931346002BC0F2B0850B9300238C
:105360008B461D930D93069B462B00F0E983452B3E
:1053700000F0468507990B9B01910221009126A917
:10538000049123A9039122A95A460A98029100F098
:105390008BFF069B0546472B40F03A8617F0010F1E
:1053A000B9460F9F40F0FE84269B5B1B1293069B21
:1053B000472B00F06E83069B462B00F0F083229B68
:1053C0001093109B069A013B412A229300F0BB8563
:1053D0000021F2B2002B8DF89020B6BF2D222B2297
:1053E000109B8DF89120B8BFC3F10103092B40F346
:1053F0009B850DF19F0C6246B64F1C46104687FBFD
:105400000312D917C1EBA20101EB8102A3EB420207
:105410003032632C00F8012C0B4600F1FF32ECDC3B
:105420003033811EDBB28C4502F8013C40F2F98535
:105430000DF1920101E012F8013B944501F8013BA6
:10544000F9D10DF1A1030DF192021B1A134424AA04
:105450009B1A1A93129B1A9A012B1A440B9240F32F
:1054600081850B9B169A13440B9300230B9A29F406
:10547000806722EAE27247F480770F9306921393D3
:1054800010931D9B002B40F02C839DF883200793E5
:10549000FFF794B9BB46FFF72FBB8F4B189317F05C
:1054A000200900F0F5800E9B073323F00703D3F8A3
:1054B000049053F8084B0E93F80709D554EA0903F2
:1054C00006D030238DF8856047F002078DF88430D0
:1054D000022327F4806BFFF789B9804B1893DEE72E
:1054E0000C990A9828AA03F071F900287FF4C1A941
:1054F0002A9C0DF1AC0818E440210A9802F0D0F97A
:105500000C9B18601861002800F0978540230C9AC6
:105510005361FFF762B8102E40F37685DFF8C09133
:10552000424648462146A846B9464FF0100B07466A
:10553000299B0A9C0C9D04E00832103E102E40F37B
:10554000138201331031072BC2E9007BCDE92931E9
:10555000F2DD2946204628AA03F038F900287FF416
:1055600088A9DDE929312BAAE7E72846CDF81C9068
:105570000E9403F0C9F820EAE0739DF883200B90A5
:10558000CDF83490CDF83C90CDF84C90CDF84090CB
:105590000693FFF713B9129B4246DDF84C80EB18D7
:1055A0005E460793CDF82CA010972146199FDDF891
:1055B0007090DDF828A0DDF830B00F9B1395B8F19E
:1055C000000F2ED083BB013F08F1FF381B9B4944DD
:1055D000C2E90039299B2A910133072B299360DC0A
:1055E0000832079B38789B1B8342A8BF0346002BD9
:1055F0001C460BDD2998194401300728C2E90063D5
:105600002A91299000F3148138780832002CB4BF15
:105610000546051B002D0BDC06440F9BB8F1000F5F
:10562000D0D1002B00F026820F9B013B0F93CDE7DA
:10563000102D40F39D841024299804E0103D102D76
:1056400002F1080216DD0130254B10310728C2E9AE
:105650000034CDE92901F1DD5946504628AA03F06E
:10566000B5F800287FF405A9DDE92901103D102DCA
:105670002BAAE8DC01301A4B29440728CDE929017F
:105680005560136000F34182387808320644C4E75D
:1056900017F0100300F0A0800E9B53F8044B0E93FC
:1056A0000AE75946504628AA03F090F800287FF4EC
:1056B000E0A82A992BAA94E700230BF480620696AF
:1056C000CDF82CA0CDF8348092461E46DDF86480DB
:1056D00054AF14E06766666638AD00084CAD00084C
:1056E0007CAD00080023204649460A22FBF70EFD48
:1056F0000A2C79F100031BD3044689462F46204625
:105700000A2200234946FBF701FD30327D1E013697
:1057100007F8012CBAF1000FE4D098F800309E424F
:10572000E0D1FF2EDED00A2C79F1000380F0308129
:1057300054AB5B1BDDF82CA0CDF8648012965F465D
:10574000069EDDF834800B93FFF72BB80C990A986E
:1057500028AA1D9303F03AF800287FF48AA89DF840
:1057600083202A9C1D9B0DF1AC08FFF7B8B80123DC
:10577000C8F80430299BBC4A01330134072B2A9412
:105780002993C8F8002000F3178108F108080029C0
:1057900040F08680129A07F0010313433FF4E0A81B
:1057A000169B17991A19C8E90013299B2A920133ED
:1057B000072B299300F3378108F108081299013368
:1057C0008C18072BCDE92934C8F80050C8F804100C
:1057D0007FF7C4A8FFF7ACBB17F0400200F0A5802C
:1057E0000E9A994652F8044B0E92A4B264E6BB4658
:1057F000FEF7CABF0C990A9828AA02F0E7FF002812
:105800007FF437A82A9C0DF1AC08FFF77BBA144649
:105810003A464F46914601332C44072BC8F8009076
:10582000C8F80450CDE929347FF798A8FFF780BB6A
:105830005946504628AA02F0C9FF00287FF419A84B
:1058400038782A992BAAE1E60C990A9828AA02F03E
:10585000BDFF00287FF40DA82A9C0DF1AC08FFF7CE
:1058600065B8012BBB467FF4F5A9FEF792BF0E9BEE
:10587000089953F8042B554611600E93FFF78EB824
:10588000062B294628BF06232A4607950D95069321
:10589000764D0E940B930F9113911091FEF78EBFDE
:1058A000169B17981A19C8E90003299B2A920133FD
:1058B000072B299300F3B78008F108080029BFF6E9
:1058C0007DAF4E42103180F2A98341461024A84694
:1058D000DFF89C91DDF828B00C9D04E00831103E03
:1058E000102E40F3A78201331032072BC1E9009438
:1058F000CDE92932F2DD2946584628AA02F066FF92
:1059000000287EF4B6AFDDE929322BA9E7E714467B
:10591000079F01362C44072ECDE92964C8F8009072
:10592000C8F804507FF7F5AA4EE417F400790E9BEF
:1059300066D053F8044B91460E93E4B2BCE517F4DD
:1059400000790E9B57D053F8044B91460E93E4B266
:10595000FEF749BF299ADFF81891FFF795BA2D2273
:105960008DF88320FFF757B8454690463A460C46D7
:105970004F46914601333444072BCDE92934C8F80A
:105980000090C8F804605CDC08F10808FFF79EBBD3
:105990001C9B1B99ED1A1A46284602F0E3FE98F864
:1059A00001300BB108F10108204649460A220023C4
:1059B0000026FBF7ABFB9FE60C990A9828AA02F099
:1059C00005FF00287EF455AF22992A9C0DF1AC0802
:1059D000DDE6129AAE18A6EB0B06D51AAE42A8BFAA
:1059E0002E46FFF7A6BB52F8044B894601230E92C0
:1059F000E4B2FEF7FBBE53F8044B0E93FEF7F3BE82
:105A000053F8044B0E9357E50E9B089953F8042B5B
:105A1000554611800E93FEF7C1BF44F3C0194B46A3
:105A200064B2FEF7A4BE0C990A9828AA02F0CEFE32
:105A300000287EF41EAFDDE9293222990DF1AC0871
:105A40003CE70C990A9828AA02F0C0FE00287EF4D0
:105A500010AF2A9C0DF1AC08FFF738BB0623079363
:105A600026F02003069370E468AD000860AD0008DE
:105A70007CAD0008DDE91235EB189E42B34619975C
:105A800090460C4628BF9B46DDF82CA0109FFFF7E0
:105A900023BB229BDA1C109302DB079A934204DD9E
:105AA000023E26F0200306938BE4109B129A934249
:105AB000C0F2C28019F0010F00F01D82169A134443
:105AC0000B9319F4806F00F01482109B6726002B53
:105AD00076DC0B9B23EAE373069300230F93139367
